:020000040800F2
:10000000000004209DF0000841EC000849EC0008C5
:1000100051EC000859EC000861EC0008EDF0000814
:100020000000000000000000000000007123020832
:1000300069EC00080000000001230208DDE8010867
:10004000EDF00008EDF00008EDF00008EDF000081C
:10005000EDF00008EDF00008EDF00008EDF000080C
:10006000EDF00008EDF00008EDF00008EDF00008FC
:10007000EDF00008EDF00008EDF00008EDF00008EC
:10008000EDF00008EDF00008EDF00008EDF00008DC
:10009000EDF00008EDF00008EDF00008EDF00008CC
:1000A000EDF00008EDF00008EDF00008EDF00008BC
:1000B000EDF0000879EC00088DEC0008EDF0000888
:1000C000EDF00008EDF00008EDF00008EDF000089C
:1000D000EDF00008EDF00008EDF00008A1EC0008DC
:1000E000B5EC0008EDF00008C9EC0008EDF00008E0
:1000F000EDF00008EDF00008EDF00008EDF000086C
:10010000EDF00008DDEC0008F1EC0008EDF000086F
:10011000EDF00008EDF00008EDF00008EDF000084B
:10012000EDF0000805ED000819ED0008EDF00008FD
:100130002DED0008EDF00008EDF00008EDF00008EE
:10014000EDF00008EDF0000841ED0008EDF00008CA
:10015000EDF00008EDF00008EDF00008EDF000080B
:10016000EDF0000855ED0008EDF00008EDF0000896
:10017000EDF0000800000000EDF0000800000000B5
:1001800069ED0008EDF00008EDF00008EDF0000862
:10019000EDF00008EDF00008EDF00008EDF00008CB
:1001A000EDF00008EDF00008EDF00008EDF00008BB
:1001B000EDF00008000000007DED0008EDF0000803
:1001C000EDF0000800000000EDF00008EDF0000880
:1001D000EDF00008EDF00008EDF00008EDF000088B
:1001E000EDF00008EDF00008EDF00008EDF000087B
:0401F000000000000B
:1002000010B5054C237833B9044B13B10448AFF350
:1002100000800123237010BD980703200000000018
:10022000B044020808B5034B1BB103490348AFF3C0
:10023000008008BD000000009C070320B0440208B5
:1002400010F8012B11F8013B012A28BF9A42F7D080
:10025000D01A7047034613F8012B002AFBD1181A55
:100260000138704753B94AB9002908BF00281CBF9C
:100270004FF0FF314FF0FF3000F0B0B9ADF1080C96
:100280006DE904CE00F006F8DDF804E0DDE90223B4
:1002900004B070472DE9F04F099D884604468E460C
:1002A000002B4AD18A4217465FD9B2FA82F64EB184
:1002B000C6F1200301FA06FEB740B44020FA03F36A
:1002C00043EA0E0E4FEA17481FFA87FC230CBEFBC9
:1002D000F8F108FB11EE01FB0CF243EA0E439A42DF
:1002E00007D9FB1801F1FF3002D29A4200F2548183
:1002F00001469B1AA2B2B3FBF8F008FB103300FBD7
:100300000CFC42EA034294450BD9BA1800F1FF33C2
:100310002CBF01240024944502D9002C00F03F8119
:10032000184640EA0140A2EB0C0200211DB1F24048
:100330000023C5E90023BDE8F08F8B4205D90DB13C
:10034000C5E9000100210846F5E7B3FA83F1002969
:100350004ED14345C0F01281824240F20F810846DF
:10036000002DE8D0C5E9004EE5E7002A00F0AC809A
:10037000B2FA82F6002E40F0BB808B1A4FEA124E82
:10038000BCB20121020C80B2B3FBFEFC0EFB1C339D
:1003900042EA034304FB0CF29A420ED9FB180CF11B
:1003A000FF382CBF4FF001094FF000099A4203D9E2
:1003B000B9F1000F00F0EC80C4469B1AB3FBFEF8C5
:1003C0000EFB183304FB08F440EA034294420BD9B5
:1003D000BA1808F1FF332CBF01200020944202D943
:1003E000002800F0D1809846121B48EA0C409DE797
:1003F000C1F120068B4008FA01F400FA01F922FA53
:1004000006F728FA06F88A401F4320FA06F3380C4C
:1004100023431FFA87FC1C0CB8FBF0FE00FB1E8870
:1004200044EA08440EFB0CF8A0450ED93C190EF125
:10043000FF3A2CBF4FF0010B4FF0000BA04503D942
:10044000BBF1000F00F0B880D646A4EB08041FFAF9
:1004500083F8B4FBF0F300FB134403FB0CFC48EA05
:100460000444A4450ED93C1903F1FF302CBF4FF0D2
:1004700001084FF00008A44503D9B8F1000F00F0BF
:100480009F80034643EA0E40A4EB0C04A0FB02EC61
:1004900064457346E04602D307D1F14505D2BEEB71
:1004A00002036CEB070C0138E0465DB1B9EB0302C7
:1004B00064EB080404FA06F622FA01F3CC401E436A
:1004C000C5E90064002136E7B1FBF2FC010C1446DB
:1004D00080B2964641EA08412026904640EA014310
:1004E0001046B1FBF2F1A3EB080341EA0C414BE7E4
:1004F000B740C6F1200301FA06F221FA03F84FEAE9
:10050000174E20FA03F3BCB2B0401343020C190C8F
:1005100080B2B8FBFEF90EFB198841EA084109FBDD
:1005200004F8884551D9791809F1FF3C2CBF4FF0E8
:10053000010A4FF0000A884502D9BAF1000F31D004
:10054000A1EB0801B1FBFEF909FB04F80EFB191140
:100550009BB243EA0143434535D2FB1809F1FF3111
:100560002CBF4FF0010A4FF0000A4345BBD2BAF14D
:10057000000FB8D1A9F102013B44B4E7841A68EB3B
:10058000030201209646EBE63A44A8F102082BE765
:10059000ACF1020C3B4410E702393B44A9E63A4473
:1005A0000238BEE6A7EB0808A9F1020C4144B1FBF2
:1005B000FEF909FB04F8C9E7AEF1020E3C4444E73A
:1005C000023B3C445EE749468DE7A1EB0801CC467F
:1005D000B1FBFEF909FB04F8B8E700BF704700BFA4
:1005E00080B483B000AF7860396000BF0C37BD467F
:1005F0005DF8047B7047000080B500AF034B00221C
:100600001A60034816F026FC00BF80BDE42B0320CF
:10061000200B032080B400AF034B1B681846BD4677
:100620005DF8047B704700BFE42B032080B584B0E5
:1006300002AF72B600BF834B4FF000629A60BFF307
:100640004F8F00BF62B600BF0EF051FD07F0CCFE29
:1006500000F066F900F0D4FB00F08CFB00F059FAD2
:1006600000F078FA00F006FA00F08AFA00F0D8F903
:1006700000F062FA00F0DCF900F044FA00F063FAEE
:1006800000F050FB00F0F2FA00F0B8FA00F024FBA2
:100690006D4B00221A706D4B00936D4B00220121AF
:1006A00043F698201FF07EF803466A4A13606A4BAF
:1006B00000936A4B0022012143F698201FF072F844
:1006C0000346674A1360674B0093674B0022012182
:1006D00041F201001FF066F80346644A1360644B60
:1006E0000093644B0022012141F201001FF05AF8EF
:1006F0000346614A1360614B0093614B0022012164
:1007000043F698201FF04EF803465E4A13605E4B96
:1007100000935E4B0022012143F698201FF042F81F
:1007200003465B4A1360002006F0FCFA002006F046
:1007300011FB06F034FB1FF0D1FF564B0093564BD4
:100740004A4A564906F07EF955480AF07BFE55485C
:1007500005F064F9544A5549554801F04DFA002313
:100760003B603B46184606F069FA0346002B10D161
:100770003B68002B0DD14FF040437B607B6843F416
:1007800024137B607B6843F004037B60786806F089
:100790001BFA1EF0BDF821F0C5FF464A002146486D
:1007A0001EF000F90346454A1360454A00214548BA
:1007B0001EF0F8F80346444A1360444A00214448B6
:1007C0001EF0F0F80346394A1360424A00214248BD
:1007D0001EF0E8F80346414A1360414A00214148AF
:1007E0001EF0E0F80346304A13603F4A00213F48BC
:1007F0001EF0D8F80346294A13603D4A00213D48BF
:100800001EF0D0F803463C4A13603C4A00213C48A5
:100810001EF0C8F803463B4A13603B4A00213B48A0
:100820001EF0C0F803463A4A13603A4A00213A489B
:100830001EF0B8F80346394A13601EF08DF800BF69
:10084000FDE700BF00ED00E0142B0320C42A0320C5
:1008500000000020E82A0320EC2A0320983A002018
:10086000102B0320182B032038BF0020A82B0320B7
:100870003C2B03203CCF0020AC2B0320602B03201B
:1008800040DF0020DC2C0320842B0320D81901201A
:10089000E02C0320B42B0320B02B0320582103208D
:1008A0008C0903201C080320A81C032048130320E4
:1008B00040080320F4690208290F0008940E032061
:1008C000186A020819100008980E03203C6A0208F2
:1008D00055130008606A02082D140008F817032059
:1008E000846A0208ED140008A86A0208C11500080D
:1008F000CC6A0208A117000808260320F06A020843
:100900009D180008B82A0320146B0208F11800088B
:10091000BC2A0320386B020807190008C02A0320EC
:1009200080B59EB000AF07F1300348220021184681
:1009300022F0E9FE07F11C0300221A605A609A6057
:10094000DA601A613B1D00221A605A609A60DA6010
:100950001A615A614FF4007013F03AFD0346002B00
:1009600001D001F007F829233B634FF480337B6308
:100970000123BB650023BB6401237B640223FB6569
:1009800003233B6601237B661023BB660723FB66BC
:1009900004233B6702237B6707F13003184613F0FB
:1009A000B7FD0346002B01D000F0E4FF0F23FB61ED
:1009B00003233B6200237B620023BB620023FB62B4
:1009C00007F11C030321184614F078FA0346002BA4
:1009D00001D000F0CFFF114B9B6D104A43F08073A4
:1009E00093650E4B9B6D03F080733B603B68002367
:1009F0007B604FF00053BB600023FB604BF67F33FE
:100A00003B6122237B612023BB613B1D184615F00F
:100A1000DBF800BF7837BD4680BD00BF0010024044
:100A200080B400AF00BFBD465DF8047B7047000096
:100A300080B500AF0D4B0E4A1A600C4B00221A71A4
:100A40000A4B00225A71094B00225A61074B0022BF
:100A50009A61064B01221A6204480EF0B1FC03466B
:100A6000002B01D000F086FF00BF80BD1C080320D2
:100A70000030024080B500AF204B214A1A601F4B66
:100A800000225A601D4B4FF440729A601B4B0022AB
:100A9000DA601A4B01221A74184B00225A74174B51
:100AA00000229A74154B01225A61144B10229A614C
:100AB000124B3C22DA61114B13221A620F4B0122B6
:100AC0005A620E4B10229A620C4B0F22DA620B4BC9
:100AD00004221A63094B01225A63084B01229A63CC
:100AE000064B0022DA6305480FF018F90346002B85
:100AF00001D000F03FFF00BF80BD00BF40080320D1
:100B000000A4004080B400AF00BFBD465DF8047B88
:100B1000704780B500AF002011F0DCFE0346002BCB
:100B200001D000F027FF11F0F5FE0346002B01D0A5
:100B300000F020FF00BF80BD80B400AF00BFBD4605
:100B40005DF8047B704780B400AF00BFBD465DF820
:100B5000047B704780B500AF074B084A1A60064B0C
:100B600000225A60044815F003FA0346002B01D016
:100B700000F000FF00BF80BD8C09032000080C427C
:100B800080B500AF1B4B1C4A1A601A4B4FF482729F
:100B90005A60184B00229A60164B4FF4E062DA60FC
:100BA000144B00221A61134B00225A61114B4FF46F
:100BB00000729A610F4B0822DA610E4B00221A6212
:100BC0000C4B00225A620B4B00229A62094B0722FF
:100BD000DA62084B00221A63064B08225A63054862
:100BE00015F0D7FB0346002B01D000F0C3FE00BF79
:100BF00080BD00BFA00903200038004080B584B04C
:100C000000AF3B1D00221A605A609A60154B164ACD
:100C10001A60144B42F20F725A60124B00229A6013
:100C2000104B41F63F72DA600E4B00229A610D487C
:100C300016F050F80346002B01D000F09BFE002375
:100C40007B600023FB603B1D1946064816F048FBFD
:100C50000346002B01D000F08DFE00BF1037BD46CB
:100C600080BD00BFD40A03200010004080B584B0CE
:100C700000AF3B1D00221A605A609A60144B154A5F
:100C80001A60134B00225A60114B00229A60104BDD
:100C900041F63F72DA600E4B00229A610C4816F062
:100CA00019F80346002B01D000F064FE00237B609E
:100CB0000023FB603B1D1946054816F011FB034657
:100CC000002B01D000F056FE00BF1037BD4680BD9E
:100CD000200B03200014004080B500AF0F4B104ADA
:100CE0001A600E4B4F225A600C4B00229A600B4B3D
:100CF0004FF6FF72DA60094B00221A61074B00229F
:100D00005A61064B00229A61044815F0E3FF03463E
:100D1000002B01D000F02EFE00BF80BD6C0B032025
:100D20000044014080B500AF104B114A1A600F4BD0
:100D300008221A710D4B02225A710C4B0222DA71F1
:100D40000A4B00221A72094B00225A72074B0022EA
:100D50009A72064B0022DA72044811F0EBFD03464A
:100D6000002B01D000F006FE00BF80BDB80B0320B1
:100D700000D4004080B584B000AF204B9B6C1F4A6C
:100D800043F0040393641D4B9B6C03F00403FB606E
:100D9000FB681A4B9B6C194A43F001039364174B91
:100DA0009B6C03F00103BB60BB68144B9B6C134A44
:100DB00043F002039364114B9B6C03F002037B60CE
:100DC0007B68002205211D200EF0BFFA1D200EF0C9
:100DD000D6FA002205211E200EF0B7FA1E200EF0D2
:100DE000CEFA0022052150200EF0AFFA50200EF06E
:100DF000C6FA00BF1037BD4680BD00BF00100240DC
:100E000080B58AB000AF07F1140300221A605A605F
:100E10009A60DA601A613F4BDB6C3E4A43F0040390
:100E2000D3643C4BDB6C03F004033B613B69394BFF
:100E3000DB6C384A43F08003D364364BDB6C03F041
:100E40008003FB60FB68334BDB6C324A43F00103E9
:100E5000D364304BDB6C03F00103BB60BB682D4BEC
:100E6000DB6C2C4A43F00203D3642A4BDB6C03F0A7
:100E700002037B607B6800224FF46041264810F03B
:100E8000F7FE002240F20111244810F0F1FE00228A
:100E900041F2E401224810F0EBFE4FF460437B6125
:100EA0000123BB610023FB6100233B6207F11403B4
:100EB0001946194810F056FC40F201137B610123DA
:100EC000BB610023FB6100233B6207F11403194659
:100ED000124810F047FC41F2E4037B610123BB613F
:100EE0000023FB6100233B6207F1140319460C4801
:100EF00010F038FC08237B610023BB610023FB61F9
:100F000007F114031946074810F02CFC00BF2837DE
:100F1000BD4680BD001002400008024200000242AF
:100F200000040242001C024280B586B000AF786027
:100F30000023FB75334B186807F10E014FF0FF33A8
:100F400002221EF02AFE38613B69022B04D1FB8984
:100F500042F20302934202D90123FB7510E0294BB0
:100F60001868FB891A464FF0FF3327491EF015FE1B
:100F70003861FB891A463B69934201D00123FB7516
:100F8000FB7D012B0CD1214B1B78012B03D1204879
:100F90000CF0FAFF35E001211E480CF0ADFFC7E769
:100FA000FB891946184804F07DFF0346002BBFD18A
:100FB000164B1B78012B12D1FB891946124801F000
:100FC00021F90346012BB3D1104B1B78002B0CBF2A
:100FD00001230023DBB21A460C4B1A70A8E7FB89E9
:100FE0001946094801F076FD0346012BA0D1074BB5
:100FF0001B78002B0CBF01230023DBB21A46034BE6
:101000001A7095E7E82A0320307D0020142B032076
:10101000684502088845020880B59EB000AF786038
:101020008C4B186807F14C014FF0FF3328221EF05B
:10103000B4FD0346282BF3D1BB6D18460DF068FABA
:10104000034687F8773097F87730002B09D0814B2B
:10105000186897F8772007F10C014FF0FF331EF066
:101060009CFD7B6D002B1CD1FB6C97F8771007F172
:101070000C02184604F094FF1FF030FB024607F103
:101080000C0107F14C03184605F016FD1FF026FB76
:10109000024607F10C0107F14C03184608F002FD67
:1010A00029E07B6DB3F1005F25D1FB6CB3F5E06FF8
:1010B00021D1694B00225A61674B00229A61664B2D
:1010C00000229A603B6D644A5360FB6C624A136075
:1010D000BB6D614AD360604BDB68082B02D95E4B65
:1010E0000822DA6008225D495D480DF04DFA5C493E
:1010F000594800F069FE1FF0F1FA024607F10C01B1
:1011000007F14C03184604F093FD564B1B78DBB2F5
:10111000002B85D0002387F876307B6EB3F5001F57
:1011200017D13B6EB3F5801F09D197F876305A1C62
:1011300087F876201A464C4B3121995410E097F8E5
:1011400076305A1C87F876201A46474B302199543E
:1011500006E097F87730082B02D9082387F8773014
:101160007B6D002B0ED13B6D002B01D1742100E073
:10117000542197F876305A1C87F876201A463A4B55
:10118000995410E03B6D002B01D1722100E05221F7
:1011900097F876305A1C87F876201A46324B9954C5
:1011A000002387F877303B6D002B11D1FB6C9AB28E
:1011B00097F876302C490B44194610460CF0BEFFC8
:1011C0000346DAB297F87630134487F876300FE0AA
:1011D000FA6C97F8763024490B44194610460CF007
:1011E0005BFF0346DAB297F87630134487F876301F
:1011F0007B6EB3F5001F14D1BB6DDBB203F00F03A0
:10120000DAB297F8763018490B44194610460DF0BB
:1012100013F80346DAB297F87630134487F876303D
:1012200013E097F8773003F00F03DAB297F87630CF
:101230000D490B44194610460CF0FEFF0346DAB286
:1012400097F87630134487F87630002387F87530A6
:1012500026E000BFDC2C0320B82B03209005FA0BFE
:10126000DC2B032098010320349D002097F8753073
:1012700078333B4413F86C2C97F8763032490B44A2
:10128000194610460CF0B8FF0346DAB297F87630EC
:10129000134487F8763097F87530013387F8753046
:1012A00097F8752097F877309A42DFD3274BDB7891
:1012B000DBB2002B1BD01FF011FA0246244BA3FB1C
:1012C00002139B0B4EF6602101FB03F3D31A9AB273
:1012D00097F876301C490B44194610460CF058FF1D
:1012E0000346DAB297F87630134487F87630174B16
:1012F0005B79DBB2002B10D07B6EB3F5001F0CD1F5
:10130000FB6DB3F1004F08D197F876305A1C87F87F
:1013100076201A460C4B6921995497F876305A1C5E
:1013200087F876201A46084B0D21995497F87630A5
:10133000194605480CF0E0FD0346002B3FF470AE63
:10134000024B00221A706BE6349D002098010320A6
:1013500073B2E74580B59EB000AF786000233B676D
:1013600015E02F4B18683A6F1346DB0013449B00BF
:101370001A4607F14C0399183B6FC3F124024FF052
:10138000FF331EF00AFC02463B6F13443B673B6F82
:10139000232BE6D9BB6D18460DF0BAF8034687F843
:1013A00077307B6DB3F1005F02D1002387F877308F
:1013B00097F87730002B1FD000233B6711E0184BC4
:1013C000186807F10C023B6FD11897F877203B6F34
:1013D000D21A4FF0FF331EF0E0FB02463B6F13447E
:1013E0003B6797F877303A6F9A42E8D304E04FF0C2
:1013F000FF3101201FF0C2FF0A480FF048F90346F1
:10140000002BF4D007F10C0207F14C0319460548F4
:101410000EF05EFF044BDB680133034AD3609DE7A7
:10142000E02C0320400803200000032080B584B096
:1014300000AF786004F0A8FD00F002FC05F0A2FC0B
:1014400000F09EFA09F0E8FA1FF048F90346184642
:1014500004F01EFB1FF042F90346184604F02CFB73
:101460001D4815F0F7FC1D4815F08CFC1C491D4863
:1014700008F08CFA06F0ECFD1FF030F90346FB6033
:10148000FB68184609F0BEFAFB68184609F0D0FA66
:10149000FB68184600F07BFA134B1B78DBB2002B7D
:1014A00007D1FB68184604F05BFFFB68184604F0A0
:1014B000F9FAFB68184604F001FDFB68184605F0D0
:1014C000E7FAFB68184608F073FA07F10C030A21E3
:1014D00018461EF01FFFCFE7D40A03206C0B032031
:1014E000F8170320A00903206800032080B5A8B0E6
:1014F00000AF78604FF0FF3101201FF03FFF20F078
:10150000ABFD2B480FF037FBC7F89C0007F16003D9
:10151000194627480FF028F807F18C03194624488C
:101520000FF072F8234AD7F89C309360214A07F1F4
:101530000C0311465422184622F045FA1C4B002297
:101540001A66BB6AB3F5003F0BD91A4B9B6803F4CC
:101550000013002B05D0174B012283F8202000F048
:1015600089FB20F08BFD144B1B78012B09D107F16F
:101570000C0207F1600107F18C00D7F89C3005F0F0
:1015800053F8D7F89C3003F48003002B07D0094BA5
:101590001B79DBB263F07F03DAB2064B1A71074B9B
:1015A00018680023022200211FF084FFA2E700BF79
:1015B0004008032000000320903503204813032037
:1015C00080B588B002AF786000237B736F4B1B68D7
:1015D00018461EF0A1F90346002B00F0D0806B4B9B
:1015E000186807F10D014FF0FF3301221EF0D5FA04
:1015F0000346012B40F0C380644B1B6818461EF065
:101600008BF90346012B40F2BA80604B186807F152
:101610000E014FF0FF3302221EF0BFFA0346022BE9
:1016200040F0AD80FB89B3F5805F80F0A880002397
:10163000FB82FB89002B17D012E0544B1868FB8A01
:10164000534A9918FB891A46FB8AD31A1A464FF057
:10165000FF331EF0A2FA03469AB2FB8A1344FB82C0
:10166000FB89FA8A9A42E8D17B7B002B35D11FF0A7
:1016700035F8FA8907F10A030093464B44490CF008
:1016800031F97B89002B1DD0434B186807F10A0103
:101690004FF0FF3302221EF055F938613E4B1868B7
:1016A0007B891A464FF0FF333A491EF04BF9024648
:1016B0003B6913443B61394B186800230222002127
:1016C0001FF0F8FE1FF00AF8FA8907F10A030093E9
:1016D000304B2F490CF096FB51E01EF0FFFFFA89CA
:1016E00007F10A0300932B4B29490CF0DFFA7B89A1
:1016F000002B3AD000237B75264B1B787F2B02D022
:1017000001237B7510E07B89022B0DD9214B9B783F
:10171000112B09D01F4B9B78122B05D01D4B9B78AA
:10172000312B01D001237B757B7D002B1DD01A4B03
:10173000186807F10A014FF0FF3302221EF002F988
:101740003861154B18687B891A464FF0FF331149F1
:101750001EF0F8F802463B6913443B610F4B1868D2
:101760000023022200211FF0A5FE1EF0B7FFFA8918
:1017700007F10A030093074B05490CF043FB4FF0B8
:10178000FF3100201FF0FAFD20E700BFA82B032047
:10179000349F002038AF0020AC2B03200826032004
:1017A00080B584B000AF78600023FB81364B1B68A6
:1017B00018461EF0B1F80346012B5ED9324B18686B
:1017C0004FF0FF33022231491EF0E7F90346022BA6
:1017D00053D12F4B03F580539B8AB3F5805F4CD2D6
:1017E0000023FB8115E0284B1868FB89294A9918CA
:1017F000274B03F580539B8A1A46FB89D31A1A4656
:101800004FF0FF331EF0C9F903469AB2FB89134427
:10181000FB811F4B03F580539B8AFA899A42E2D1E0
:101820001EF05CFF03461946194805F071FF034698
:10183000002B22D116E0144B1B6818461EF06CF8E2
:101840000346012B18D8144B1B78DBB2002B05D0B4
:101850000F4B03F5005393F8233000E00A2318469A
:101860001DF033F91EF03AFF034618460BF062FFF5
:101870000346012BDFD100E000BF4FF0FF31002015
:101880001FF07CFD92E700BFAC2B0320A03D02209F
:101890008C2D0220A83D02206800032080B584B072
:1018A00000AF78600D490E480CF0DAFA0B4A0D498A
:1018B0000D4820F069FF0A4B18684FF0FF334FF4D2
:1018C00000620A491EF069F9F860FB68002BF2D04B
:1018D000F96806480CF0EAFAEDE700BFB82A0320E1
:1018E000102B0320940E0320E82A032030750020DB
:1018F00080B582B000AF7860786804F00DFB00BF5F
:101900000837BD4680BD80B582B000AF786000204A
:1019100004F00DFB00BF0837BD4680BD80B582B026
:1019200000AF78607B681B680E4A934205D10E4B6E
:101930001B6801330C4A13600FE07B681B680B4A7D
:10194000934202D10DF0EEFB07E07B681B68084A6A
:10195000934202D1786804F0CDFA00BF0837BD4643
:1019600080BD00BF00140040E42B0320002C014088
:101970000010004080B400AF72B600BF00BFFDE7AA
:1019800080B400AF00BFBD465DF8047B704780B4F3
:1019900083B000AF786000BF0C37BD465DF8047BB4
:1019A000704780B400AF00BFBD465DF8047B704750
:1019B00080B48BB000AF78606FF000433B620123CE
:1019C000FB757B68404A934203D940F2EE233B8388
:1019D0000AE07B683D4A934203D94FF448733B8346
:1019E00002E040F26B333B833B8B394AA2FB03237B
:1019F0001B09BB82374B3B610123BB833A697B6880
:101A0000B2FBF3F3FB770AE0BB8B0133BB83BB8BE9
:101A10003A69B2FBF3F27B68B2FBF3F3FB77FB7F2F
:101A2000192BF1D845E0FB7F5B08FB7631E0FA7FAC
:101A3000FB7ED31ADBB2013BFB733A8BFB7E4FF488
:101A40007A7103FB01F1FB7F91FBF3F3D31A7B6205
:101A50007B6A002B02DA7B6A5B427B627A6A3B6AB2
:101A60009A4213DABB8A7A6A9A420FDC7B6A3B623B
:101A7000194B1B68BA8B5A61174B1B68FA7EDA61E7
:101A8000154B1B68FA7B1A620023FB75FB7E013342
:101A9000FB76FA7EFB7F023B9A42C8DBBB8B0133AD
:101AA000BB83BB8B3A69B2FBF3F27B68B2FBF3F307
:101AB000FB77BB8BB3F5806FB5D3FB7D18462C3716
:101AC000BD465DF8047B704700350C0020A107007F
:101AD000CDCCCCCC005A6202E82B032080B582B07A
:101AE00002AF002240213F4810F0C2F83E4B1B6875
:101AF0003E4918460EF087FA0346002B01D0FFF747
:101B000039FF394B1B683A4918460EF07CFA0346F8
:101B1000002B01D0FFF72EFF334B186800230093F2
:101B20000023022202210EF0C8FA0346002B01D046
:101B3000FFF720FF2C4B1B6818460EF031FB0346C5
:101B4000002B01D0FFF716FF274B1B680022012155
:101B500018460EF0AEFD0346002B01D0FFF70AFF3A
:101B6000214B1B680022062118460EF0A2FD0346F9
:101B7000002B01D0FFF7FEFE1B4B1B6807224FF422
:101B8000F05118460EF095FD0346002B01D0FFF7EB
:101B9000F1FE154B1B680722802118460EF089FDC7
:101BA0000346002B01D0FFF7E5FE0F4B1B68002218
:101BB000104918460EF07DFD0346002B01D0FFF7BB
:101BC000D9FE094B1B6800224FF4602118460EF025
:101BD00070FD0346002B01D0FFF7CCFE00BFBD46D1
:101BE00080BD00BF00040242E82B03202400032034
:101BF0003C0003200040710080B584B000AFF86065
:101C0000B9607A60094AFB681360094ABB681360CF
:101C1000084A7B681360084901201DF044F9034617
:101C2000064A136000BF1037BD4680BDE82B032075
:101C3000EC2B0320F02B03208C2C0320882C03207A
:101C400080B500AF0A4B1B6818460EF0B9F9084B77
:101C50001B6818460EF062F80346002B01D0FFF710
:101C600089FE00F08FF8FFF739FF00BF80BD00BF8D
:101C7000E82B032080B500AF034B1B6818460EF01D
:101C80009FF900BF80BD00BFE82B032080B584B062
:101C900000AF78600023FB737B68082B4DD801A24E
:101CA00052F823F0C91C0008D71C0008E51C0008E6
:101CB000F31C0008FF1C00080B1D0008171D00087E
:101CC000231D00082F1D000842F21070FFF770FE60
:101CD0000346FB7344E044F62060FFF769FE0346C9
:101CE000FB733DE04CF25030FFF762FE0346FB739E
:101CF00036E01E48FFF75CFE0346FB7330E01C48ED
:101D0000FFF756FE0346FB732AE01A48FFF750FE22
:101D10000346FB7324E01848FFF74AFE0346FB73B3
:101D20001EE01648FFF744FE0346FB7318E0144814
:101D3000FFF73EFE0346FB7312E07B6842F20F7230
:101D400093420AD97B680E4A934206D87868FFF717
:101D50002FFE0346FB7300BF01E00123FB7300BFAE
:101D6000FB7B18461037BD4680BD00BFA086010032
:101D700048E8010090D0030020A1070000350C00C6
:101D800040420F0080B400AF0E4B00221A710D4B81
:101D90000022DA600B4B00221A610A4B00225A61C2
:101DA000084B00229A61074B00229A60054B0022E3
:101DB000DA61044B002283F8202000BFBD465DF8A5
:101DC000047B70470000032080B586B000AF7860C8
:101DD00039600023BB747B68DB6818460CF098FB05
:101DE0000346FB747B689B68B3F1005F01D100235D
:101DF000FB74FB7C2433FB6000BF2C4B1B684FF053
:101E0000FF3118461DF067FA0346012BF5D1284B28
:101E10001B6818461DF056FD0246FB6893420AD91E
:101E2000244B1B79DBB243F00203DAB2214B1A7167
:101E30000223BB7425E01E4B18684FF0FF332422A9
:101E400079681DF07FFD7861FB7C002B0BD0184B6F
:101E50001868FA7C4FF0FF3339681DF073FD0246B5
:101E60007B6913447B617A69FB689A4209D0114B04
:101E70001B79DBB243F00803DAB20E4B1A7101236F
:101E8000BB740A4B18680023002200211DF026F8BD
:101E9000094B1B6818680023022200211FF00AFB6F
:101EA000BB7C18461837BD4680BD00BF882C032078
:101EB000E02C032000000320EC2B032080B400AFB3
:101EC0001E4B1B6801225A601C4B1B684FF440726A
:101ED0009A601A4B1B680022DA60184B1B680022BC
:101EE0001A74164B1B6800225A74144B1B6801228B
:101EF0009A74124B1B6801225A61104B1B68102206
:101F00009A610E4B1B683F22DA610C4B1B68102252
:101F10001A620A4B1B6801225A62084B1B68042292
:101F20009A62064B1B680F22DA62044B1B6804227C
:101F30001A6300BFBD465DF8047B7047E82B0320A1
:101F400080B586B000AF786039600023BB603B6825
:101F500003F00103002B4FD0454B464A40217868DF
:101F60000EF0FAF90346002B01D0FFF71AFD424BA1
:101F70005B690133404A53613E4BDB6818460CF005
:101F8000C7FA0346FB74FB7C2833FB603B4B1B68A2
:101F900018461DF097FC0246FB6893420ED9364B5B
:101FA0009B690133344A9361354B1B681B6807F109
:101FB0000802114618461FF0DBFB1DE02F4B186886
:101FC00007F1080328222B491DF055FD7861FB7CA1
:101FD000002B0BD0294B1868FA7C07F10803244921
:101FE0001DF049FD02467B6913447B617A69FB68F9
:101FF0009A4201D0FFF7D5FC3B6803F00203002BA7
:102000000BD01D4B1B79DBB243F00103DAB21A4B44
:102010001A717B681B6802221A653B6803F004038F
:10202000002B19D0144B9B690133134A9361124B57
:102030001B79DBB243F00803DAB20F4B1A717B68ED
:102040001B6804221A650E4B1B681B6807F1080207
:10205000114618461FF08CFBBB68002B03D0094BC0
:102060004FF080521A6000BF1837BD4680BD00BFD8
:10207000F42B0320342C032000000320DC2C03204D
:10208000F02B032004ED00E080B584B000AF786051
:1020900039600023FB600C4B1B6901330A4A136152
:1020A0000A4B1B681B6807F10C02114618461FF00B
:1020B0005FFBFB68002B03D0054B4FF080521A608A
:1020C00000BF1037BD4680BD00000320EC2B03206D
:1020D00004ED00E080B584B000AF78600023FB60C1
:1020E0000C4BDB6901330B4AD3610B4B1B681B683C
:1020F00007F10C02114618461FF03AFBFB68002B53
:1021000003D0064B4FF080521A6000BF1037BD4617
:1021100080BD00BF00000320F02B032004ED00E091
:1021200080B582B000AF786039601E4978680EF0E3
:102130001BFA3B6803F40033002B0BD0194BDB6810
:10214000002B03D1184B00221A6003E0164B4FF00E
:1021500000421A603B6803F48023002B14D0114B1B
:102160001B69012B08D1104B1B79DBB243F0040330
:10217000DAB20D4B1A7107E00B4B1B79DBB223F07F
:102180000403DAB2084B1A713B6803F40023002BF6
:1021900003D0054B012283F8202000BF0837BD463D
:1021A00080BD00BF5C2C03200000032080B487B0FA
:1021B00000AF7860396000237B6100233B6100231E
:1021C000FB6013E0FB687A6813441B78202B02D174
:1021D00000233B6107E03B69002B04D101233B61F5
:1021E0007B6901337B61FB680133FB60FA683B6804
:1021F0009A42E7DB7B6918461C37BD465DF8047BD5
:102200007047000080B588B000AF78603960002367
:10221000FB777A683B68134400221A703B6842F2ED
:102220000202934204D988480BF0AEFE00F00BBCCA
:102230000023BB6100233B6100237B6120E07A68BF
:102240007B6913441B78082B06D1BB69002B14D083
:10225000BB69013BBB6110E07A687B6913441B7862
:102260000A2B0AD07A687B691A447968BB690B44E7
:1022700012781A70BB690133BB617B6901337B61E2
:102280007A693B689A42DAD37A68BB6913440022C0
:102290001A70BB693B603B6819467868FFF786FF98
:1022A00003463B613B69002B06D13B68002B03D101
:1022B00066480BF069FEC6E36549786821F03EFA8E
:1022C000F860FB68002B03D162480BF05DFEBAE3B7
:1022D0006149F868FDF7B4FF0346002B15D05F494C
:1022E000F868FDF7ADFF0346002B0ED05C49F86897
:1022F000FDF7A6FF0346002B07D05A49F868FDF703
:102300009FFF0346002B40F07B813B69012B40F28D
:1023100034814F49002021F011FAF8605249F868E1
:10232000FDF78EFF0346002B3CD150480BF02CFEEE
:102330004F480BF029FE4D480BF026FE4D480BF0A0
:1023400023FE4D480BF020FE4A480BF01DFE4B4883
:102350000BF01AFE4A480BF017FE46480BF014FE2D
:1023600048480BF011FE48480BF00EFE41480BF0B8
:102370000BFE46480BF008FE45480BF005FE3D48B5
:102380000BF002FE43480BF0FFFD43480BF0FCFD51
:1023900042480BF0F9FD37480BF0F6FD33480BF0DF
:1023A000F3FDE6E03E49F868FDF74AFF0346002BDF
:1023B00040F08C802D480BF0E7FD2D480BF0E4FD3C
:1023C0002A480BF0E1FD2B480BF0DEFD35480BF001
:1023D000DBFD28480BF0D8FD28480BF0D5FD32482E
:1023E0000BF0D2FD23480BF0CFFD26480BF0CCFDBF
:1023F0002E480BF0C9FD1F480BF0C6FD23480BF01B
:10240000C3FD2B480BF0C0FD1A480BF0BDFD214861
:102410000BF0BAFD27480BF0B7FD27480BF0B4FDD1
:1024200026480BF0B1FD26480BF0AEFD25480BF019
:10243000ABFD25480BF0A8FD0E480BF0A5FD0B48A1
:102440000BF0A2FD95E000BF8C450208A0450208F4
:10245000A4450208A8450208D4450208DC45020844
:10246000E4450208EC450208F0450208F845020878
:1024700038460208644602086846020878460208A0
:1024800088460208BC460208C4460208E046020824
:10249000EC46020834470208404702088447020815
:1024A000944702089C470208B0470208EC4702081C
:1024B000004802084C4802086C4802087C480208A0
:1024C0009C480208AC480208CC480208AC49F868AD
:1024D000FDF7B6FE0346002B48D1AA480BF054FD89
:1024E000A9480BF051FDA7480BF04EFDA7480BF093
:1024F0004BFDA7480BF048FDA4480BF045FDA5484F
:102500000BF042FDA4480BF03FFDA0480BF03CFD52
:10251000A2480BF039FDA2480BF036FD9B480BF0AA
:1025200033FDA0480BF030FD9F480BF02DFD974880
:102530000BF02AFD9D480BF027FD9D480BF024FD74
:102540009C480BF021FD9C480BF01EFD9B480BF0B6
:102550001BFD9B480BF018FD9A480BF015FD8B48AE
:102560000BF012FD87480BF00FFD02E096480BF0D0
:102570000BFD96480BF008FD65E282480BF004FD68
:1025800081480BF001FD7F480BF0FEFC7F480BF00B
:10259000FBFC8F480BF0F8FC7C480BF0F5FC8D48F9
:1025A0000BF0F2FC8C480BF0EFFC8C480BF0ECFCD1
:1025B0008B480BF0E9FC8B480BF0E6FC8A480BF0EB
:1025C000E3FC8A480BF0E0FC89480BF0DDFC89480D
:1025D0000BF0DAFC88480BF0D7FC88480BF0D4FCF1
:1025E00087480BF0D1FC87480BF0CEFC67480BF016
:1025F000CBFC85480BF0C8FC62480BF0C5FC22E21E
:102600005F49F868FDF71CFE0346002B47D13B6984
:10261000022B03D07D480BF0B7FC14E27C4900206C
:1026200021F08CF8F8607B49F868FDF709FE034655
:10263000002B03D178480BF0A7FC04E27749F86837
:10264000FDF7FEFD0346002B07D175480BF09CFCFF
:102650000021422004F006FBF5E17249F868FDF71D
:10266000EFFD0346002B07D16F480BF08DFC0021D6
:10267000432004F0F7FAE6E16C49F868FDF7E0FD65
:102680000346002B07D16A480BF07EFC0021442052
:1026900004F0E8FAD7E167480BF076FCD3E166492D
:1026A000F868FDF7CDFD0346002B47D13B69022BAF
:1026B00003D062480BF068FCC5E15549002021F0C9
:1026C0003DF8F8605349F868FDF7BAFD0346002B62
:1026D00003D15B480BF058FCB5E15049F868FDF7B1
:1026E000AFFD0346002B07D156480BF04DFC0121EE
:1026F000422004F0B7FAA6E14A49F868FDF7A0FDC8
:102700000346002B07D150480BF03EFC012143202B
:1027100004F0A8FA97E14549F868FDF791FD0346F2
:10272000002B07D149480BF02FFC0121442004F075
:1027300099FA88E13F480BF027FC84E14449F868A6
:10274000FDF77EFD0346002B40F0E2803B69022B43
:1027500003D040480BF018FC75E12D49002020F013
:10276000EDFFF8603C49F868FDF76AFD0346002B71
:1027700076D1012007F0A4FE38480BF005FC62E199
:10278000DC480208F8450208384602086446020898
:10279000E448020878460208F8480208BC460208E5
:1027A00034490208E0460208484902083447020852
:1027B00094490208B4490208C8490208E8490208D5
:1027C000FC4902081C4A0208304A0208584A02081A
:1027D000AC4A0208504B02085C4B0208884B0208C6
:1027E000D84B0208284C0208784C0208E44C020836
:1027F0000C4D0208384D0208684D0208944D02083D
:10280000EC4D0208384E02086C4E02088C4E02084D
:10281000A4450208DC4E0208E04E0208144F0208EC
:10282000184F02083C4F0208404F0208644F02084C
:10283000684F02088C4F020894470208B04F020804
:10284000005002081C500208405002086450020860
:10285000F045020888500208D8500208DC500208EF
:102860007E49F868FDF7ECFC0346002B06D10220F8
:1028700007F026FE7A480BF087FBE4E07949F86818
:10288000FDF7DEFC0346002B06D1032007F018FEFF
:1028900073480BF079FBD6E07349F868FDF7D0FC7C
:1028A0000346002B06D1042007F00AFE6C480BF00B
:1028B0006BFBC8E06D49F868FDF7C2FC0346002BCE
:1028C00006D1052007F0FCFD65480BF05DFBBAE082
:1028D0006749F868FDF7B4FC0346002B06D10620D3
:1028E00007F0EEFD5E480BF04FFBACE06149F86885
:1028F000FDF7A6FC0346002B06D1072007F0E0FDFC
:1029000057480BF041FB9EE05B480BF03DFB9AE023
:102910005A49F868FDF794FC0346002B14D0584937
:10292000F868FDF78DFC0346002B0DD05549F8687B
:10293000FDF786FC0346002B06D05349F868FDF7E7
:102940007FFC0346002B02D10123FB777BE04F493C
:10295000F868FDF775FC0346002B08D14C480BF0D6
:1029600013FBC8201CF0B1F80CF025FD6BE04949C1
:10297000F868FDF765FC0346002B03D146480BF0D1
:1029800003FB60E04549F868FDF75AFC0346002B5D
:1029900039D13B69022B03D041480BF0F5FA52E0E4
:1029A0004049002020F0CAFEF8603F49F868FDF772
:1029B00047FC0346002B06D1012007F09EF83B4858
:1029C0000BF0E2FA3FE02549F868FDF739FC0346D1
:1029D000002B06D1022007F090F835480BF0D4FA0E
:1029E00031E02049F868FDF72BFC0346002B06D1A7
:1029F000032007F082F82F480BF0C6FA23E02E4898
:102A00000BF0C2FA1FE02D49F868FDF719FC0346E8
:102A1000002B0FD101F094FD0346002B06D028486F
:102A20000BF0B2FA012001F0ABFD0CE025480BF0F1
:102A3000ABFA08E024480BF0A7FAF8680BF0A4FA08
:102A400022480BF0A1FAFB7F002B02D120480BF0AB
:102A50009BFAFB7F18462037BD4680BDE850020830
:102A6000DC500208EC500208F0500208F450020852
:102A7000F8500208FC5002080051020830510208C8
:102A8000345102083C510208445102084C510208DA
:102A900054510208A4510208AC51020828520208FD
:102AA00030520208A4450208D850020850520208C9
:102AB00064520208785202088C520208BC52020882
:102AC000C4520208D4520208E8520208FC5202081A
:102AD000405302082DE9F04FC7B002AF786107F507
:102AE0008873A3F580731960002387F80E310023E3
:102AF00087F80D317B691B78302B03D07B691B78FD
:102B0000312B14D14FF40013C7F8E8307B6901333F
:102B10001B78302B03D10023C7F8E43003E04FF4D7
:102B20008013C7F8E430012387F80E3108E0002352
:102B3000C7F8E8300023C7F8E430002387F80E31E7
:102B4000D44B5B79DBB2012B1ED107F58873A3F55B
:102B500080731B68013B7A6913441B78692B0FD182
:102B60004FF00043C7F8E03007F58873A3F5807392
:102B700007F58872A2F580721268013A1A6007E0C0
:102B80000023C7F8E03003E0C34B1B68C7F8E03010
:102B90000023C7F8EC300023C7F8F0307B691B78BE
:102BA000752B0CD107F58873A3F580731B68132B65
:102BB00041F0D281786903F017FC01F0CDB997F8A4
:102BC0000E317A6913441B78742B07D097F80E31B5
:102BD0007A6913441B78722B40F0A98097F80E3164
:102BE00007F58872A2F580721268D31A042B40F29E
:102BF00098800023C7F8D4300023C7F8D83097F85E
:102C00000E3101337A69134418460BF011FC034668
:102C1000C7F8D03097F80E3104337A691344184658
:102C20000BF0A8FB034687F80F3197F80F31C7F870
:102C3000DC3097F80E317A6913441B78722B06D179
:102C40004FF00053C7F8D830002387F80F3197F8BA
:102C50000E3107F58872A2F580721268D41A97F8BF
:102C60000F3118460BF054FC03465B0005339C42C1
:102C700051D1002387F80C3197F80E31053387F8CE
:102C80000E311AE097F80E317A691A4497F80C3130
:102C9000591C87F80C111C4610460BF07DFB0346AF
:102CA0001A4604F5807307F110010B4403F8802CD9
:102CB00097F80E31023387F80E3197F80E2107F599
:102CC0008873A3F580731B68013B9A42DAD302E054
:102CD0000A201BF0FAFE07F1900207F1D00311461B
:102CE0001846FFF771F80346022BF1D001216B481B
:102CF0000BF002F9D7F8D04097F80F3118460BF0D7
:102D000007FC0346194607F190031A46204603F0D4
:102D100047F901F021B9012161480BF0EDF801F00C
:102D20001BB901215E480BF0E7F801F015B997F8DF
:102D30000E317A6913441B78522B07D097F80E3165
:102D40007A6913441B78542B40F0B28097F80E3107
:102D500007F58872A2F580721268D31A092B40F227
:102D6000A1804FF08043C7F8D4300023C7F8D83093
:102D700097F80E3101337A69134418460BF07EFB45
:102D80000346C7F8D03097F80E3109337A691344F7
:102D900018460BF0EFFA034687F80F3197F80F311A
:102DA000C7F8DC3097F80E317A6913441B78522B40
:102DB00006D14FF00053C7F8D830002387F80F3101
:102DC00097F80E3107F58872A2F580721268D41A4E
:102DD00097F80F3118460BF09BFB034605335B0059
:102DE0009C4251D197F80E310A3387F80E310023F7
:102DF00087F80B311AE097F80E317A691A4497F880
:102E00000B31591C87F80B111C4610460BF0C4FA05
:102E100003461A4604F5807307F110010B4403F8CA
:102E2000802C97F80E31023387F80E3197F80E2177
:102E300007F58873A3F580731B68013B9A42DAD3C8
:102E400002E00A201BF041FE07F1900207F1D003D7
:102E500011461846FEF7B8FF0346022BF1D00121B8
:102E60000E480BF049F8D7F8D04097F80F311846C4
:102E70000BF04EFB0346194607F190031A46204615
:102E800003F08EF801F068B8012105480BF034F822
:102E900001F062B898010320000003206446020894
:102EA000445302080121CA480BF026F801F054B837
:102EB0007B691B78233B562B01F2498001A252F813
:102EC00023F000BF153600084F3F0008313E0008D0
:102ED0000B3F00084F3F00084F3F00084F3F0008DE
:102EE0004F3F00084F3F00084F3F00084F3F00088A
:102EF0004F3F00084F3F00084F3F00084F3F00087A
:102F00004F3F00084F3F00084F3F00084F3F000869
:102F10004F3F00084F3F00084F3F00084F3F000859
:102F20004F3F00084F3F00084F3F00084F3F000849
:102F30004F3F0008A1370008CD3500084F3F00087B
:102F40004F3F00083D30000885380008C5370008AD
:102F50005132000883340008A13700087D3800088A
:102F600071370008E33600084F30000827330008A7
:102F700097300008213000084F3F00084F3F0008FD
:102F80004F3F0008EF3000084F3F00084F3F000858
:102F90006B30000883320008733B0008093A0008D0
:102FA000F73300084F3F00084F3F00084F3F00082D
:102FB000FB3E00084F3F00084F3F0008FD3400086B
:102FC000F13E00081D3B00083F3600084F3F000857
:102FD0003B3500084F3F0008A13700084534000882
:102FE0003F37000887360008AB3700088F330008EA
:102FF000B53A00084F3F0008E538000809380008D6
:103000004F3F0008FD3100084F3F00084F3F0008C8
:103010008F35000835340008AB3D0008433A0008FE
:1030200001216C480AF068FF6B4B0022DA606B4BA1
:1030300001221A70FEF704FE00F08EBF674B0022DB
:103040001A70012163480AF057FF00F085BF012183
:1030500060480AF051FF604B0222DA605F4B0122A8
:103060001A70FEF7EDFD00F077BF0F215C480AF003
:1030700043FF0C215B480AF03FFF01215A480AF048
:103080003BFF092159480AF037FF022158480AF04E
:1030900033FF00F061BF4E2387F82030002387F80C
:1030A0000A3114E097F80A319A00524B1344187809
:1030B00097F80A315B00013307F1200213441946E7
:1030C0000BF09AF897F80A31013387F80A3197F82C
:1030D0000A310B2BE6D907F12003192118460AF013
:1030E0000BFF01213B480AF007FF00F035BF07F551
:1030F0008873A3F580731B68012B61D907F588736A
:10310000A3F580731B68082B5AD80023C7F8043135
:10311000012387F80331012387F802312DE097F866
:1031200002317A6913441B782F2B06D997F80231A4
:103130007A6913441B78392B02D9002387F80331AD
:10314000D7F8042113469B0013445B00194697F8F7
:1031500002317A6913441B780B44303BC7F80431C1
:10316000D7F80431244A934202D9002387F8033167
:1031700097F80231013387F8023197F8023107F5E9
:103180008872A2F5807212689A42C8D897F8033103
:10319000012B10D1D7F80401FEF778FD0346002B70
:1031A00004D101210B480AF0A7FE0FE001210848D5
:1031B0000AF0A2FE0AE0012105480AF09DFE05E0A2
:1031C000012103480AF098FE00F0C6BE00F0C4BE1C
:1031D0004453020864460208400803209801032073
:1031E0004853020858530208A445020864530208D1
:1031F000705302089005FA0B40420F0007F58873E0
:10320000A3F580731B68052B1CD1B74B01225A61B3
:103210007B69013318460BF0BFF803461A46B24BE0
:10322000DA617B69033318460BF0B6F803461A4699
:10323000AD4B1A62FEF704FD0121AC480AF05CFEBA
:1032400000F08ABE0121AA480AF056FE00F084BEB2
:103250007B691B7887F82030A64B1B79DAB207F11F
:1032600020030133194610460AF0C6FF0D2387F8E4
:10327000233007F12003042118460AF03DFE00F038
:103280006BBE07F58873A3F580731B68022B42D1D0
:103290007B6901331B78303B032B37D801A252F8EE
:1032A00023F000BFB5320008CB320008E13200083D
:1032B000F73200088F4B0022DA628E4B00225A64EC
:1032C00001218A480AF018FE2BE08A4B0122DA62BB
:1032D000884B01225A64012184480AF00DFE20E047
:1032E000844B0222DA62834B02225A6401217F4816
:1032F0000AF002FE15E07F4B0322DA627D4B0322C7
:103300005A64012179480AF0F7FD0AE00121784862
:103310000AF0F2FD05E0012175480AF0EDFD00F02C
:103320001BBE00F019BE07F58873A3F580731B68F8
:10333000042B0FD17B69013318460BF079F8034653
:10334000C3F30A036B4A5363012168480AF0D4FDB2
:1033500000F002BE07F58873A3F580731B68092B84
:103360000FD17B69013318460BF088F8034623F030
:103370000043604AD36401215C480AF0BDFD00F0BF
:10338000EBBD01215A480AF0B7FD00F0E5BD07F595
:103390008873A3F580731B68042B0FD17B690133FD
:1033A00018460BF045F80346C3F30A03514A9363EA
:1033B00001214E480AF0A0FD00F0CEBD07F588734C
:1033C000A3F580731B68092B0FD17B690133184665
:1033D0000BF054F8034623F00043464A13650121DD
:1033E00042480AF089FD00F0B7BD012140480AF0CB
:1033F00083FD00F0B1BD07F58873A3F580731B68EA
:10340000022B11D17B6901331B78302B03D13A4B4E
:103410000022DA7002E0384B0122DA7001213348D1
:103420000AF06AFD00F098BD012131480AF064FD00
:1034300000F092BDFEF704FC01212C480AF05CFD6F
:1034400000F08ABD07F58873A3F580731B68022B13
:1034500011D17B6901331B78302B03D122480CF04A
:103460007EFE02E020480CF059FE01211F480AF0C0
:1034700043FD00F071BD01211D480AF03DFD00F043
:103480006BBD07F58873A3F580731B68032B06D00B
:1034900007F58873A3F580731B68052B1ED17B6924
:1034A000013318460AF078FF03461A460E4B9A611C
:1034B00007F58873A3F580731B68052B08D17B691A
:1034C000033318460AF068FF03461A46064B9A6211
:1034D000012106480AF010FD00F03EBD012104481C
:1034E0000AF00AFD00F038BD4008032064460208D7
:1034F00044530208000003209801032007F5887355
:10350000A3F580731B68022B11D17B6901331B78F3
:10351000302B03D1B64B00221A7402E0B44B0122C7
:103520001A740121B3480AF0E7FC00F015BD01212F
:10353000B1480AF0E1FC00F00FBD07F58873A3F570
:1035400080731B68022B1CD17B6901331B78302BE5
:1035500003D1A74B00229A600DE07B6901331B78F1
:10356000312B04D1A24B4FF480729A6003E0A04B40
:103570004FF440729A6001219E480AF0BDFC00F0B1
:10358000EBBC01219C480AF0B7FC00F0E5BC07F554
:103590008873A3F580731B68022B11D17B690133FB
:1035A0001B78302B03D1954B00225A7102E0934BCC
:1035B00001225A7101218F480AF09EFC00F0CCBC18
:1035C00001218D480AF098FC00F0C6BC07F588730D
:1035D000A3F580731B68022B16D17B6901331B781E
:1035E000302B03D1854B00221A7107E07B69013330
:1035F0001B78312B02D1814B01221A7101217D48A8
:103600000AF07AFC00F0A8BC01217B480AF074FCA7
:1036100000F0A2BC07F58873A3F580731B68012B2B
:1036200007D1012387F80D3175480AF0ADFC00F091
:1036300093BC012170480AF05FFC00F08DBC07F5D7
:103640008873A3F580731B68022B16D17B69013345
:103650001B78302B03D1002002F0C0FF07E07B690C
:1036600001331B78312B02D1012002F0B7FF012179
:1036700060480AF041FC00F06FBC01215E480AF08E
:103680003BFC00F069BC07F58873A3F580731B68E9
:10369000092B20D17B69013318460AF099FE0346B5
:1036A0001A46534B5A617B69053318460AF074FE7B
:1036B00003461A464E4BDA617B69073318460AF017
:1036C0006BFE03461A464A4B1A62012149480AF02A
:1036D00013FC00F041BC012147480AF00DFC00F04A
:1036E0003BBC07F58873A3F580731B68072B20D1BB
:1036F0007B69013318460AF04FFE03461A463C4BDD
:103700005A627B69033318460AF046FE03461A469E
:10371000374BDA627B69053318460AF03DFE0346F3
:103720001A46334B1A63012132480AF0E5FB00F0D8
:1037300013BC012130480AF0DFFB00F00DBC7B69AF
:103740001B7887F8203007F097FE03461A4607F1EA
:1037500020030133194610460AF04EFD0D2387F869
:10376000233007F12003042118460AF0C5FBF3E3D8
:103770007B691B7887F8203007F090FE024607F13E
:1037800020030133194610460AF086FC0D2387F802
:10379000293007F120030A2118460AF0ADFBDBE3CC
:1037A000162118480AF0A8FBD6E3012111480AF0B7
:1037B000A3FB0F4B0122DA60104B01221A70FEF7B7
:1037C0003FFAC9E307F16403194609480CF0CCFE3F
:1037D00007F15403194606480CF016FF07F164027E
:1037E00007F154031146184602F092FEB4E300BFFD
:1037F000400803206446020844530208980103204D
:1038000074530208A4530208BA480AF0BDFB4021D1
:10381000B9480CF01EFF034618460AF0DDFBB64817
:103820000CF035FF034618460AF0D6FBB34B1B6875
:1038300018461CF047F8034618460AF0CDFBAF4B7C
:103840001B6818461CF068F8034618460AF0C4FBCB
:10385000AB4B1B6818461CF035F8034618460AF0B7
:10386000BBFBA74B1B6818461CF056F803461846CE
:103870000AF0B2FBA3480AF087FB6DE3A24802F00E
:1038800019FE69E3A1480AF09EFE0346013307F5DD
:103890008872A2F5807212689A421ED17B695C1C04
:1038A0009A480AF090FE03461A46984920461FF0AF
:1038B00032FF0346002B10D1012192480AF01CFB75
:1038C000C8201BF002F904F07DFD0346002B02D155
:1038D00004F0FEFD01E020F0F7FD01218C480AF024
:1038E0000BFB39E307F58873A3F580731B68022B84
:1038F00040F084807B6901331B78422B09D07B69BF
:1039000001331B78432B04D07B6901331B78442B94
:103910006FD1804B00229A707E4B00221A704FF4B8
:103920008013C7F8E4300023C7F8DC304FF40013ED
:10393000C7F8E8300023C7F8D43040F28113C7F845
:10394000D030002387F801313CE0002003F0EAF991
:10395000FEF7B4FAFEF774F964201BF0B6F87B6941
:1039600001331B780121184603F0ACF97B69013360
:103970001B780121184603F075F997F801315A1C9C
:1039800013469B0013449B0018461BF09EF802E070
:103990000A201BF09AF807F1900207F1D0031146B4
:1039A0001846FEF711FA0346022BF1D032201BF025
:1039B0008CF8554B5B69002B09D197F80131013325
:1039C00087F8013197F80131132BBED900E000BF11
:1039D0004D4B5B69002B04D101214D480AF08CFA54
:1039E00011E04C4B01221A70012146480AF084FA7A
:1039F00009E0012146480AF07FFAADE2012144487E
:103A00000AF07AFAA8E2A7E207F58873A3F58073B3
:103A10001B68022B10D17B6901331B78302B03D13B
:103A2000002003F07FF902E0012003F07BF901217F
:103A300034480AF061FA8FE2012135480AF05CFA55
:103A40008AE207F58873A3F580731B68032B2CD1DA
:103A50007B6901331B78422B09D07B6901331B78CA
:103A6000432B04D07B6901331B78442B18D17B692D
:103A700002331B78302B07D17B6901331B7800217F
:103A8000184603F0EFF806E07B6901331B7801214B
:103A9000184603F0E7F801211A480AF02DFA5BE214
:103AA00001211B480AF028FA56E2012118480AF0C1
:103AB00023FA51E207F58873A3F580731B68012B85
:103AC00012D101210F480AF017FA134802F096FDAF
:103AD000002003F027F9002003F03CF964201AF0DD
:103AE000F4FF0BF068FC37E2012109480AF004FA00
:103AF00032E200BFBC53020840080320DC2C032044
:103B0000E02C03206446020800000320C053020892
:103B10004453020898010320C453020807F5887330
:103B2000A3F580731B68022B1ED17B6901331B78C0
:103B3000302B06D1A84B01221A70A84B00229A7094
:103B40000DE0A74B0022DA60A44B00221A70FEF7AA
:103B500077F8A24B01229A709F4B00221A70012124
:103B6000A0480AF0C9F9F7E101219F480AF0C4F919
:103B7000F2E11CF0C3FD0346102B03D99B480AF069
:103B800003FAE9E19A480AF0FFF91CF0B7FD014693
:103B900007F11C031A4697481CF0BCFD96480AF032
:103BA000F3F9FB690022BB60FA6007F120031A46B3
:103BB000D7E902010AF056FB07F1200318460AF084
:103BC000E3F98E480AF0E0F9002387F8FF30E3E0DC
:103BD000FB69002B12D097F8FF2086491346DB00C3
:103BE00013449B000B4418331B68642203FB02F24E
:103BF000FB69B2FBF3F387F8003102E0002387F89A
:103C0000003197F8FF3000229846914607F12003D3
:103C10001A46404649460AF025FB07F1200318469C
:103C20000AF0B2F976480AF0AFF997F8FF20714927
:103C30001346DB0013449B000B4404331B681846F7
:103C40000AF0A2F997F8FF206A491346DB001344F3
:103C50009B000B4404331B681846FCF7FBFA034631
:103C6000072B03D867480AF08FF902E066480AF08C
:103C70008BF9664BC7F8F83097F8FF205D4913467B
:103C8000DB0013449B000B440C331B78052B27D817
:103C900001A252F823F000BFB13C0008B93C000873
:103CA000C13C0008C93C0008D13C0008D93C0008D0
:103CB000574BC7F8F83013E0564BC7F8F8300FE011
:103CC000554BC7F8F8300BE0544BC7F8F83007E015
:103CD000534BC7F8F83003E0524BC7F8F83000BF39
:103CE000D7F8F8000AF050F997F8003100229A4608
:103CF000934607F120031A46504659460AF0B2FA95
:103D000041480AF041F907F1200318460AF03CF94E
:103D100045480AF039F997F8FF2036491346DB0089
:103D200013449B000B4420331B889BB200221D468A
:103D3000164607F120031A46284631460AF092FA41
:103D400031480AF021F907F1200318460AF01CF95E
:103D50002D480AF019F997F8FF2026491346DB0091
:103D600013449B000B4418331B6800223B607A60AD
:103D700007F120031A46D7E900010AF073FA07F1A8
:103D8000200318460AF000F916480AF0FDF897F8E3
:103D9000FF30013387F8FF3097F8FF401CF0AEFC8E
:103DA00003469C42FFF414AFD6E07B691B7887F88A
:103DB00020301E4B1A6807F12003013319461046C4
:103DC0000AF06AF90D2387F8293007F120030A2148
:103DD00018460AF091F8BFE068000320980103201C
:103DE000400803206446020844530208D4530208E2
:103DF000E453020878740120305402085054020839
:103E000064540208685402086C5402087054020892
:103E1000785402088054020888540208905402081A
:103E200098540208A0540208A85402089005FA0BFE
:103E300007F58873A3F580731B68032B53D907F527
:103E40008873A3F580731B68043B5B08A7F8F63002
:103E50007B69013318460AF0EBFA03461A46B7F8B5
:103E6000F63093423AD17B690433B7F8F62019460D
:103E70003D480AF04DFA1CF031FCB7F8F62007F186
:103E80001A030093394B384909F02CFD7A8B7B6972
:103E90000133194610460AF051F97B6904337A8BD5
:103EA000324918460AF0C0F87B8B02335B007A690E
:103EB00013440D221A707B8B5B0005331946786919
:103EC0000AF01AF81CF00AFCB7F8F62007F11A03FA
:103ED0000093264B244909F095FF3DE00121244839
:103EE0000AF00AF838E0012121480AF005F833E029
:103EF000012120480AF000F82EE01F480AF044F89B
:103F000001211C4809F0F8FF26E007F58873A3F5A6
:103F100080731B68062B15D17B6901330522174975
:103F200018461FF0E0FB0346002B07D114480AF0A7
:103F30002BF801210F4809F0DFFF0DE011480AF0CE
:103F400023F809E001210A4809F0D6FF04E0012125
:103F5000074809F0D1FF00BF97F80D31184607F563
:103F60008A77BD46BDE8F08F70540120746401204B
:103F70004453020864460208AC540208C0540208C4
:103F8000C8540208E054020880B483B000AF03466E
:103F90000A46FB711346BB71BB79002B0DD0FB7930
:103FA000012202FA03F31AB20E4B1B881BB2134311
:103FB0001BB29AB20B4B1A800EE0FB79012202FA77
:103FC00003F31BB2DB431AB2064B1B881BB2134030
:103FD0001BB29AB2034B1A8000BF0C37BD465DF886
:103FE000047B7047462D032080B483B000AF0346A6
:103FF000FB71084B1B881A46FB7942FA03F3DBB2CC
:1040000003F00103DBB218460C37BD465DF8047BB4
:10401000704700BF462D032080B489B000AFF86020
:10402000B9601346FB711E4B1B781A46BB6802FB36
:1040300003F3FA681344FB61FB69DB08BB61FB69AE
:10404000DBB203F00703FB75FB79002B10D0154A98
:10405000BB6913441A78FB7D012101FA03F3DBB23B
:104060001343D9B20F4ABB6913440A461A7011E0D0
:104070000C4ABB6913441A78FB7D012101FA03F352
:10408000DBB2DB43DBB21340D9B2064ABB6913444F
:104090000A461A7000BF2437BD465DF8047B70479E
:1040A00059000320B886012080B487B000AF786043
:1040B0003960114B1B781A463B6802FB03F37A68A0
:1040C00013447B617B69DB083B617B69DBB203F0F6
:1040D0000703FB73094A3B6913441B781A46FB7BB1
:1040E00022FA03F3DBB203F00103DBB218461C37FC
:1040F000BD465DF8047B704759000320B886012057
:10410000B0B586B000AF0346FB7100237B6135E09C
:10411000FB793B6113E07C69FB793A69D31A1D4650
:104120007B693A6911461846FFF7BEFF03461A46F7
:1041300029462046FFF770FF3B6901333B61154B71
:104140001B781A463B699342E5DB124B1B781A46F3
:10415000FB79D31AFB6008E07B69F96800221846F6
:10416000FFF75AFFFB680133FB600B4B1B781A46C5
:10417000FB689342F0DB7B6901337B61064B1B7864
:104180001A467B699342C3DB00BF00BF1837BD46A8
:10419000B0BD00BF5A00032059000320B0B586B05F
:1041A00000AF0346FB7100237B6131E01E4B1B789F
:1041B0001A46FB79D31A013B3B6113E07C69FA791B
:1041C0003B6913441D467B693A6911461846FFF75F
:1041D0006BFF03461A4629462046FFF71DFF3B6941
:1041E000013B3B613B69002BE8DA0023FB6008E000
:1041F0007B69F96800221846FFF70EFFFB68013360
:10420000FB60FB79FA689A42F2DB7B6901337B61E0
:10421000064B1B781A467B699342C7DB00BF00BF81
:104220001837BD46B0BD00BF5A0003205900032017
:10423000B0B584B000AF0423FB73264B1B78002B72
:1042400001D10223FB730023BB6037E000237B60B6
:1042500013E0FA7B7B6813441D46BC687B68BA6830
:1042600011461846FFF720FF03461A462146284606
:10427000FFF7D2FE7B6801337B60174B1B781A4631
:10428000FB7BD31A7A689A42E3DB134B1B781A46FE
:10429000FB7BD31A3B6008E03B68B96800221846F4
:1042A000FFF7BAFE3B6801333B600B4B1B781A46A5
:1042B0003B689342F0DBBB680133BB60074B1B7864
:1042C0001A46BB689342C1DB00BF00BF1037BD4632
:1042D000B0BD00BF4C2D0320590003205A0003201D
:1042E000B0B584B000AF0423FB73224B1B78002BC6
:1042F00001D10223FB730023BB602FE01E4B1B7810
:10430000013B7B6013E0FB7B7A68D31A1D46BC68D7
:104310007B68BA6811461846FFF7C6FE03461A4680
:1043200021462846FFF778FE7B68013B7B60FB7BDC
:104330007A689A42E7DA00233B6008E03B68B96894
:1043400000221846FFF768FE3B6801333B60FB7BA9
:104350003A689A42F2DBBB680133BB60074B1B78BB
:104360001A46BB689342C9DB00BF00BF1037BD4689
:10437000B0BD00BF4C2D0320590003205A0003207C
:1043800080B483B000AF03460A46FB801346BB806F
:10439000054AFB881380054ABB88138000BF0C3791
:1043A000BD465DF8047B70475C0003204E2D032062
:1043B00080B489B000AF78600B467B804C4B4FF4E3
:1043C00000721A804B4B00221A804B4B00221A803D
:1043D0004A4B00221A804A4B00221A70494B002295
:1043E0001A700023FB7706E0FB7F474A0021D15477
:1043F000FB7F0133FB77FB7F0F2BF5D90023BB61DC
:1044000009E0BB694149BA690A441178404AD1546C
:10441000BB690133BB61BB69EF2BF2D90023FB827F
:104420000BE0FB8A7A681A44FB8A03F50073117863
:10443000374AD154FB8A0133FB82FA8A7B889A423D
:10444000EFD300237B7506E07B7D324A0021D154F7
:104450007B7D01337B757B7D072BF5D97B8803F54D
:1044600000737B8206E07B8A294A0021D1547B8A33
:1044700001337B827B8AB3F5805FF4D3264B002225
:104480001A700023FB6007E0244AFB6813440022F3
:104490001A70FB680133FB60FB68B3F5806FF3D3E0
:1044A0000023BB6008E01E4B19881E4ABB6822F837
:1044B0001310BB680133BB60BB68B3F5106FF2D358
:1044C000194B03221A70194B00221A70184B18222C
:1044D0001A80184B2E221A80174B40221A70174B45
:1044E00020221A7000BF2437BD465DF8047B704758
:1044F000022D0320E42C0320002D0320442D032053
:10450000482D0320492D0320E82C03205C6B020872
:10451000B8760120F82C0320502D0320B886012006
:104520004E2D0320B88A0120580003204C2D032073
:104530005400032056000320590003205A00032092
:1045400080B400AF034B1B781846BD465DF8047B72
:10455000704700BF512D032080B483B000AF786056
:10456000054A7B681360054B01221A7000BF0C37A7
:10457000BD465DF8047B7047542D0320512D032068
:1045800080B400AF034B00221A7000BFBD465DF837
:10459000047B7047512D0320B0B58EB002AF786018
:1045A000A54B00221A80A54B93F82030DBB2023BCA
:1045B000042B26D801A252F823F000BFD1450008F1
:1045C000DB450008E5450008EF450008F94500080F
:1045D00001210520FFF7D8FC13E001210820FFF797
:1045E000D3FC0EE001210920FFF7CEFC09E00121F8
:1045F0000720FFF7C9FC04E001210620FFF7C4FCF7
:1046000000BF8F4B1B687A68D31A102B16D98D4BBD
:104610001B78002B05D08B4B1B78013BDAB2894B02
:104620001A70894B1B78002B05D0874B1B78013BF8
:10463000DAB2854B1A70824A7B681360834B1B8801
:1046400040F6FE72934204D8814B1B88B3F5805F1D
:1046500004D3804B00221A7001F047B97B4B1B88B2
:104660001A467D4B9B5C1BB21B021AB2774B1B8810
:1046700001337949CB5C1BB213431BB29AB2774B1F
:104680001A80764B1B8803F47043B3F5704F00F02B
:10469000BE86B3F5704F01F32581B3F5604F00F08E
:1046A0007386B3F5604F01F31D81B3F5504F00F0F1
:1046B0005484B3F5504F01F31581B3F5404F00F02A
:1046C0003384B3F5404F01F30D81B3F5304F00F063
:1046D0001E84B3F5304F01F30581B3F5204F00F090
:1046E0000784B3F5204F01F3FD80B3F5104F00F0C0
:1046F000E183B3F5104F01F3F580B3F5004F00F0FF
:104700004482B3F5004F01F3ED80B3F5E04F00F0C4
:104710002182B3F5E04F01F3E580B3F5C04F00F01F
:104720000782B3F5C04F01F3DD80B3F5A04F00F071
:10473000E181B3F5A04F01F3D580B3F5804F00F0D0
:104740009F81B3F5804F01F3CD80B3F5405F00F05A
:104750007C81B3F5405F01F3C580B3F5005F00F0E5
:104760005681B3F5005F01F3BD80002B05D0B3F592
:10477000805F00F0438101F0B5B8384B1B88DBB295
:10478000012B4FD0002B40F30681FF2B00F3038158
:10479000E02BC0F20081E03B1F2B00F2FC8001A265
:1047A00052F823F033480008974900089749000859
:1047B0009749000897490008974900089749000859
:1047C0009749000897490008974900089749000849
:1047D000974900089749000897490008BB48000816
:1047E0009749000897490008974900089749000829
:1047F0009749000897490008974900089749000819
:104800009749000897490008974900089749000808
:10481000F3480008094900081F4900082749000813
:104820005F490008094B1B8802339AB2074B1A8074
:10483000E2E00023BB621BE0462D03206C00032056
:10484000542D0320492D0320482D0320022D032041
:10485000002D0320512D0320B8760120E42C0320E5
:10486000954ABB6A134400221A70BB6A0133BB62CB
:10487000BB6AB3F5806FF3D3904B1888904B1988BF
:10488000904B1B781A46904B1B7812FB03F39AB29D
:104890008E4B1B781C468C4B1B7814FB03F39CB28D
:1048A0008B4B1B880093234606F05EFB894B1B88CD
:1048B00002339AB2874B1A809EE0874B1B88013BDC
:1048C0009AB2854B1A80844B1B881F2B02D9834BCD
:1048D00000221A70804B1B881A46814B33F8122035
:1048E0007C4B1A807B4B1B8802339AB2794B1A801F
:1048F00082E0FFF7F5FC01F009F8764B1B880233E4
:104900009AB2744B1A8077E0FFF792FC00F0FEFF3A
:10491000704B1B8802339AB26E4B1A806CE06F4B5F
:1049200000221A7068E0684B03221A706D4B002257
:104930001A70624B18221A80614B2E221A80614B2A
:1049400040221A70614B20221A70624B1B8802337E
:104950009AB2604B1A80644B00221A704CE05A4B9A
:1049600001221A70554B38221A80554B40221A806A
:10497000544B80221A70554B40221A70594B012219
:104980001A70544B1B8802339AB2524B1A80564B02
:1049900000221A7030E0554B1B8803F0F003C02B47
:1049A00013D0D02B23D1514B1B88DBB203F00F0364
:1049B000DBB21846FFF7A4FB00F0A8FF454B1B88AD
:1049C00002339AB2434B1A8016E0484B1B88DBB285
:1049D00003F00F03DBB21846FFF7E0FB00F096FF91
:1049E0003C4B1B8802339AB23A4B1A8004E03B4B93
:1049F00000221A7000F079BF00F077BF3B4B1B8894
:104A0000C3F30B039AB2334B1A8000F06EBF324BE4
:104A10001B881A462F4B1988314B23F812102E4B46
:104A20001B8801339AB22C4B1A802B4B1B881F2BEF
:104A300002D92A4B00221A702C4B1B88C3F30B039C
:104A40009AB2244B1A8000F050BF284B1B881B12CF
:104A500003F00F03264AD35C1A46244B1B88DBB2B3
:104A60009A4205D11B4B1B8802339AB2194B1A800C
:104A7000184B1B8802339AB2164B1A8000F035BFD0
:104A80001A4B1B881B1203F00F03194AD35C1A46FA
:104A9000164B1B88DBB29A4205D00E4B1B880233A3
:104AA0009AB20C4B1A800B4B1B8802339AB2094BFB
:104AB0001A8000F01ABF00BFB886012054000320FE
:104AC0005600032059000320580003205A000320F9
:104AD0004E2D0320022D0320442D0320512D0320B1
:104AE000042D03204C2D0320502D0320E42C032003
:104AF000E82C0320A04B1B881B1203F00F039F4AD6
:104B0000D25C9D4B1B881B1103F00F039B49CB5CB0
:104B10009A4205D19A4B1B8802339AB2984B1A805D
:104B2000974B1B8802339AB2954B1A8000F0DDBE7A
:104B3000914B1A88904B1B881B1203F00F03D1B2C4
:104B40008E4AD1548E4B1B8802339AB28C4B1A80FA
:104B500000F0CBBE884B1B881B1203F00F03874A63
:104B6000D15C854B1B88DAB2834B1B881B1203F088
:104B70000F030A44D1B2814AD154814B1B880233BE
:104B80009AB27F4B1A8000F0B0BE7B4B1B881B1281
:104B9000DBB203F00F037B72774B1B881B11DBB278
:104BA00003F00F033B72744B1B8803F00F030E2BB3
:104BB00000F2798101A252F823F000BFF94B0008FE
:104BC000234C00085F4C00089B4C0008D74C0008A1
:104BD0004F4D0008CF4D0008354E0008A74E000885
:104BE000A74E0008A74E0008A74E0008A74E0008D1
:104BF000A74E0008034E00085F4B1B881B1103F0F3
:104C00000F025D4B1B881B1203F00F035B49895C8D
:104C10005A4AD1545A4B1B8802339AB2584B1A80C5
:104C200046E1554B1B881B1203F00F03534AD15C1E
:104C3000514B1B881B1103F00F03504AD25C4E4BA3
:104C40001B881B1203F00F030A43D1B24B4AD15405
:104C50004B4B1B8802339AB2494B1A8028E1464BD2
:104C60001B881B1203F00F03444AD15C424B1B8884
:104C70001B1103F00F03414AD25C3F4B1B881B12F0
:104C800003F00F030A40D1B23C4AD1543C4B1B887D
:104C900002339AB23A4B1A800AE1374B1B881B1237
:104CA00003F00F03354AD15C334B1B881B1103F013
:104CB0000F03324AD25C304B1B881B1203F00F03E8
:104CC0004A40D1B22D4AD1542D4B1B8802339AB29F
:104CD0002B4B1A80ECE0284B1B881B1103F00F03B1
:104CE000264AD35C1946244B1B881B1203F00F0382
:104CF000224AD35CC3F1FF03994203DD012387F805
:104D00002F3002E0002387F82F301B4B1B881B122B
:104D100003F00F03194AD15C174B1B881B1103F0DA
:104D20000F03164AD25C144B1B881B1203F00F03AF
:104D30000A44D1B2114AD154104A97F82F30D37394
:104D40000F4B1B8802339AB20D4B1A80B0E00A4B0E
:104D50001B881B1103F00F03084AD25C064B1B880B
:104D60001B1203F00F030549CB5C9A420AD90023BA
:104D700087F82F3009E000BFE42C0320E82C032043
:104D8000022D0320012387F82F30A04B1B881B1214
:104D900003F00F039E4AD15C9C4B1B881B1103F050
:104DA0000F039B4AD25C994B1B881B1203F00F0325
:104DB0008A1AD1B2964AD154954A97F82F30D373B4
:104DC000944B1B8802339AB2924B1A8070E03B7A64
:104DD0008F4AD35C03F0010387F82F303B7A8C4A6B
:104DE000D25C7B7A5208D1B2894AD154884A97F86A
:104DF0002F30D373874B1B8802339AB2854B1A80AE
:104E000056E03B7A824AD35CDB0987F82F303B7A45
:104E10007F4AD25C7B7A5200D1B27D4AD1547C4A1F
:104E200097F82F30D3737B4B1B8802339AB2794BA0
:104E30001A803DE0754B1B881B1203F00F03744A68
:104E4000D25C724B1B881B1103F00F037049CB5CC3
:104E50009A4203D9002387F82F3002E0012387F814
:104E60002F306A4B1B881B1103F00F03684AD15C7B
:104E7000664B1B881B1203F00F03654AD25C634B21
:104E80001B881B1203F00F038A1AD1B2604AD15457
:104E90005F4A97F82F30D3735E4B1B8802339AB268
:104EA0005C4B1A8004E05C4B00221A7000F01DBDC0
:104EB00000F01BBD554B1B881B1203F00F03544A17
:104EC000D25C524B1B881B1103F00F035049CB5C83
:104ED0009A4205D04F4B1B8802339AB24D4B1A8031
:104EE0004C4B1B8802339AB24A4B1A8000F0FDBC2F
:104EF000464B1B88C3F30B039AB2484B1A80454BB1
:104F00001B8802339AB2434B1A8000F0EEBC3F4B31
:104F10001B88C3F30B039BB23D4A127813449AB229
:104F20003C4B1A8000F0E1BC06F0A6FA03465AB2E8
:104F3000364B1B885BB213405AB2344B1B881B1292
:104F400003F00F03D1B2324AD154324B1B880233E3
:104F50009AB2304B1A8000F0C8BC2C4B1B881B1235
:104F600003F00F032A4AD35C3B82284B1B881B119A
:104F700003F00F03264AD35CFB81244B1B8803F00C
:104F80000F03FB8400237B73082387F82330204B17
:104F90000022DA73224B1B78002B0BD1214B1B888C
:104FA00000936023C0222E21182005F0DDFF1C4B4A
:104FB00001221A70FB8C002B0ED11B4B1B78002B8F
:104FC00005D01023FB84102387F8233004E010233E
:104FD000FB84102387F8233080233B840023FB7756
:104FE0003A8A97F823301344104A1278934206DC29
:104FF000FA89FB8C13440E4A1278934201DD012397
:1050000000E000237B730023BB8373E1E42C0320C7
:10501000E82C0320022D0320512D0320002D032016
:10502000502D03204E2D03204C2D0320590003202A
:105030005A000320FB8C102B1AD14FF400433B8401
:10504000864B1B881A46BB8B5B001344844AD35C97
:105050001B02BB84814B1B881A46BB8B5B0013442D
:1050600001337F4AD35C1A46BB8C1343BB8409E0EF
:1050700080233B84794B1B881A46BB8B1344784AA8
:10508000D35CBB8400237B832AE1BA8C398C7B8B75
:1050900041FA03F31340002B01D0012300E0002369
:1050A0003B733B7B002B00F0AF800123FB773A8AF8
:1050B0007B8B13446B4A127893FBF2F101FB02F2F3
:1050C0009B1A1846FA89BB8B1344674A127893FBE4
:1050D000F2F101FB02F29B1A1946FEF7E5FF0346C7
:1050E000002B02D0614B0122DA733A8A7B8B134486
:1050F0005C4A127893FBF2F101FB02F29B1A1C4608
:10510000FA89BB8B1344584A127893FBF2F101FBE6
:1051100002F29B1A1D463A8A7B8B1344514A12783D
:1051200093FBF2F101FB02F29B1A1846FA89BB8B42
:1051300013444D4A127893FBF2F101FB02F29B1AE1
:105140001946FEF7B1FF03461A463B7B5340DBB2DC
:105150001A4629462046FEF75FFF7B7B002B53D083
:105160003A8A7B8B13443F4A127893FBF2F101FB9E
:1051700002F29B1A1846FA89BB8B13443A4A1278FA
:1051800093FBF2F101FB02F29B1A1946FEF78CFF2A
:105190000346002B02D1364B1B8801E0354B1B88A0
:1051A0007B813A8A7B8B13442E4A127893FBF2F16F
:1051B00001FB02F29B1A9BB22F4A127813FB02F3F7
:1051C0009AB22E4B1B88134498B2FA89BB8B1344B6
:1051D000254A127893FBF2F101FB02F29B1A9BB273
:1051E000254A127813FB02F39AB2254B1B8813440D
:1051F00099B2214B1B781A461F4B1B781C467B89A2
:105200000093234605F0B0FE7B7B002B65D13A8AE4
:105210007B8B1344134A127893FBF2F101FB02F2E9
:105220009B1A1846FA89BB8B13440F4A127893FBDA
:10523000F2F101FB02F29B1A1946FEF735FF034615
:10524000002B02D10A4B1B8801E00A4B1B887B8193
:1052500000237B763CE000233B7631E0002D0320E9
:10526000B8760120590003205A000320E82C0320BF
:105270004E2D03205C00032058000320540003201F
:10528000560003207B8BAB4A127803FB02F27B7E35
:105290001A44BB8BA749097803FB01F13B7E0B4401
:1052A00097F82310A348007800FB01F101FB03F3FA
:1052B0001344A1497A8921F813203B7E01333B76C0
:1052C0009C4B1B783A7E9A42DCD37B7E01337B7603
:1052D000984B1B787A7E9A42BDD37B8B01337B83BC
:1052E00097F823309BB27A8B9A42FFF4CEAEBB8BF9
:1052F0000133BB83BA8BFB8C9A42FFF49BAEFB7FDE
:10530000002B3AD07B7B002B37D13B8A8B4A12781B
:1053100093FBF2F101FB02F29B1A9BB2854A1278D1
:1053200013FB02F39AB2864B1B88134498B2FB8995
:10533000844A127893FBF2F101FB02F29B1A9BB2B2
:105340007C4A127813FB02F39AB27F4B1B881344FA
:1053500099B2784B1B781A4697F823309BB212FB10
:1053600003F39AB2734B1B781C46FB8C13FB04F3BC
:105370009BB2714C009405F080FE744B1B88023385
:105380009AB2724B1A80B0E2714B1B88DBB29E2B33
:1053900002D0A12B1BD035E06D4B1B881B1203F0F4
:1053A0000F036C4AD35C1846FEF71EFE0346002B23
:1053B00006D0664B1B8804339AB2644B1A8025E0F2
:1053C000624B1B8802339AB2604B1A801EE0604B1E
:1053D0001B881B1203F00F035E4AD35C1846FEF7CE
:1053E00003FE0346002B06D1584B1B8804339AB2A8
:1053F000564B1A800AE0554B1B8802339AB2534B26
:105400001A8003E0544B00221A706EE26DE2504B9A
:105410001B88DBB2852B00F04582852B00F35D8273
:10542000752B00F02482752B00F35782652B00F05A
:10543000CA81652B00F35182332B63DC072BC0F24A
:105440004C82073B2C2B00F2488201A252F823F039
:105450000D550008DB580008DB5800082D550008E2
:10546000DB580008DB580008DB580008DB58000850
:10547000DB580008DB580008DB580008DB58000840
:10548000DB580008DB580008D3550008DB5800083B
:10549000DB580008F3550008DB580008DB5800080B
:1054A000DB580008DB580008DB58000813560008DA
:1054B000DB580008DB580008DB580008DB58000800
:1054C000DB580008DB580008DB580008DB580008F0
:1054D000DB580008DB5800083D560008DB58000880
:1054E000DB580008DB580008DB580008DB580008D0
:1054F000DB58000865560008DB580008DB58000838
:1055000093560008552B00F02081E6E1104B1B88D4
:105510001B1203F00F03114A11780E4AD1540B4BA2
:105520001B8802339AB2094B1A80DAE10023FB751B
:105530004BE000BF58000320B88A01205900032027
:10554000540003205A00032056000320022D03209C
:10555000E42C0320E82C0320512D0320482D0320A8
:10556000FB7D1846FEF740FD0346002B0DD0FB7D6A
:10557000012202FA03F31AB29C4B1B881BB213439D
:105580001BB29AB2994B1A801CE0984B1B881A46A2
:10559000FB7D42FA03F303F00103002B12D0944B7E
:1055A0001B881B1203F00F039249FA7DCA548F4BDC
:1055B00000221A80904B1B8802339AB28E4B1A80BD
:1055C00000BF8EE1FB7D0133FB75FB7D0F2BC7D93F
:1055D00087E1874B1B881B1203F00F03854AD25CBF
:1055E000864B1A70844B1B8802339AB2824B1A8006
:1055F00077E17F4B1B881B1203F00F037D4AD25CBF
:105600007F4B1A707C4B1B8802339AB27A4B1A80FC
:1056100067E1774B1B881B1203F00F03754AD35CBD
:105620001A46784B1B8813449AB2764B1A80724BF9
:105630001B8802339AB2704B1A8052E16C4B1B8864
:105640001B1203F00F036B4AD35C1A4692001344FB
:105650009AB26C4B1A80684B1B8802339AB2664B25
:105660001A803EE1624B1B881B1203F00F03614A54
:10567000D35C1A46920013445B009BB250339AB23B
:10568000604B1A805C4B1B8802339AB25A4B1A80CB
:1056900027E15C4B1B880233B3F5805F03D35A4B81
:1056A00000221A701DE1524B1B881B1203F00F03DE
:1056B000504AD35C534A12881146544AA2FB032332
:1056C0005B09DAB2524B5A54494B1B881B1203F048
:1056D0000F03484AD35C4F4AA2FB0323DB08DAB22C
:1056E000484B1B88581C4B4BA3FB0213D9080B4695
:1056F0009B000B445B00D31ADAB2454B1A543C4B67
:105700001B881B1203F00F033A4AD35C3F4AA2FBEB
:1057100003125209642101FB02F29B1ADAB2394BDF
:105720001B88981C3B4BA3FB0213D9080B469B001C
:105730000B445B00D31ADAB2354B1A542E4B1B883C
:1057400002339AB22C4B1A80CBE02E4B1B881A46A0
:10575000274B1B881B1203F00F031344B3F5805F24
:1057600003D3294B00221A70BBE00023BB750CE069
:10577000BA7D244B1B881946BB7D0B441D49895CAF
:10578000234AD154BB7D0133BB75BA7D184B1B88AE
:105790001B1203F00F039A42EADD154B1B881B1204
:1057A0009BB203F00F039AB2164B1B8813449BB2B3
:1057B00001339AB2134B1A800F4B1B8802339AB2F3
:1057C0000D4B1A808DE00F4B1B881A46084B1B8827
:1057D0001B1203F00F031344B3F5805F03D30A4B8E
:1057E00000221A707DE000237B7522E04A2D032001
:1057F000E42C0320E82C0320022D0320482D032055
:10580000492D0320002D0320512D03201F85EB512E
:10581000B8760120CDCCCCCC354B1B881A467B7D8D
:105820001A447B7D3349895C334AD1547B7D0133F3
:105830007B757A7D314B1B881B1203F00F039A4254
:10584000EADD2E4B1B881B129BB203F00F039AB2AA
:10585000274B1B8813449BB201339AB2244B1A8006
:10586000274B1B8802339AB2254B1A8039E000235C
:105870003B7508E03A7D3B7D1F49895C214AD15444
:105880003B7D01333B753A7D1C4B1B881B1203F09B
:105890000F039A42EEDD1A4B1B8802339AB2184B63
:1058A0001A801EE00023FB7408E0FA7CFB7C15499B
:1058B000895C114AD154FB7C0133FB74FA7C0F4B99
:1058C0001B881B1203F00F039A42EEDD0C4B1B8862
:1058D00002339AB20A4B1A8003E00B4B00221A7073
:1058E00003E002E0084B00221A703037BD46B0BD1D
:1058F000002D0320B8760120E82C0320E42C03209F
:10590000022D0320F82C0320512D032090B585B0E3
:1059100002AF0023FB804FE00023BB8043E0FB8805
:10592000BA8811461846FEF7BFFB0346002B02D18A
:10593000324B1B8801E0324B1B883B800023FB70FD
:1059400029E00023BB701EE0FB882E4A127803FB7F
:1059500002F2FB781A44BB882A49097803FB01F15B
:10596000BB780B442849097808462649097800FB8A
:1059700001F101FB03F3134424493A8821F8132071
:10598000BB780133BB701F4B1B78BA789A42DBD3CC
:10599000FB780133FB701B4B1B78FA789A42D0D30B
:1059A000BB880133BB801A4B1B781A46BB889342D5
:1059B000B5D3FB880133FB80134B1B781A46FB8859
:1059C0009342A9D3134B1888134B19880D4B1B789E
:1059D0001A460D4B1B7812FB03F39AB2094B1B7846
:1059E0001C460B4B1B7814FB03F39BB2074C009433
:1059F00005F043FB00BF0C37BD4690BD4E2D032084
:105A00005C0003205800032059000320B88A0120BD
:105A10005A000320540003205600032080B483B0B2
:105A200000AF7860044A7B68136000BF0C37BD4646
:105A30005DF8047B704700BF582D032080B485B00B
:105A400000AF786039607B68FB604FF0FF33BB606C
:105A50000EE0FB685A1CFA601B781A46BB6853407C
:105A6000DBB20A4A52F82320BB681B0A5340BB60D2
:105A70003B685A1E3A60002BEBD1BB68DB431846EB
:105A80001437BD465DF8047B704700BF1C8C0208CC
:105A900080B483B000AF786000BF0C37BD465DF8BE
:105AA000047B704780B483B000AF786000BF0C37D0
:105AB000BD465DF8047B704780B483B000AF78606A
:105AC0000A4B00221A600A4B00221A80094B00225E
:105AD0001A80094B00221A70084A7B68136000BFC5
