:020000040800F2
:1000000000000420D5ED000879E9000881E9000826
:1000100089E9000891E9000899E9000825EE00083F
:100020000000000000000000000000009123020812
:10003000A1E90008000000002123020801E90108ED
:1000400025EE000825EE000825EE000825EE000844
:1000500025EE000825EE000825EE000825EE000834
:1000600025EE000825EE000825EE000825EE000824
:1000700025EE000825EE000825EE000825EE000814
:1000800025EE000825EE000825EE000825EE000804
:1000900025EE000825EE000825EE000825EE0008F4
:1000A00025EE000825EE000825EE000825EE0008E4
:1000B00025EE0008B1E90008C5E9000825EE0008B2
:1000C00025EE000825EE000825EE000825EE0008C4
:1000D00025EE000825EE000825EE0008D9E9000805
:1000E000EDE9000825EE000801EA000825EE000809
:1000F00025EE000825EE000825EE000825EE000894
:1001000025EE000815EA000829EA000825EE000897
:1001100025EE000825EE000825EE000825EE000873
:1001200025EE00083DEA000851EA000825EE000827
:1001300065EA000825EE000825EE000825EE000817
:1001400025EE000825EE000879EA000825EE0008F3
:1001500025EE000825EE000825EE000825EE000833
:1001600025EE00088DEA000825EE000825EE0008BF
:1001700025EE00080000000025EE00080000000049
:10018000A1EA000825EE000825EE000825EE00088B
:1001900025EE000825EE000825EE000825EE0008F3
:1001A00025EE000825EE000825EE000825EE0008E3
:1001B00025EE000800000000B5EA000825EE000862
:1001C00025EE00080000000025EE000825EE0008DE
:1001D00025EE000825EE000825EE000825EE0008B3
:1001E00025EE000825EE000825EE000825EE0008A3
:0401F000000000000B
:1002000010B5054C237833B9044B13B10448AFF350
:1002100000800123237010BD880703200000000028
:100220008C48020808B5034B1BB103490348AFF3E0
:10023000008008BD000000008C0703208C480208E5
:1002400010F8012B11F8013B012A28BF9A42F7D080
:10025000D01A7047034613F8012B002AFBD1181A55
:100260000138704753B94AB9002908BF00281CBF9C
:100270004FF0FF314FF0FF3000F0B0B9ADF1080C96
:100280006DE904CE00F006F8DDF804E0DDE90223B4
:1002900004B070472DE9F04F099D884604468E460C
:1002A000002B4AD18A4217465FD9B2FA82F64EB184
:1002B000C6F1200301FA06FEB740B44020FA03F36A
:1002C00043EA0E0E4FEA17481FFA87FC230CBEFBC9
:1002D000F8F108FB11EE01FB0CF243EA0E439A42DF
:1002E00007D9FB1801F1FF3002D29A4200F2548183
:1002F00001469B1AA2B2B3FBF8F008FB103300FBD7
:100300000CFC42EA034294450BD9BA1800F1FF33C2
:100310002CBF01240024944502D9002C00F03F8119
:10032000184640EA0140A2EB0C0200211DB1F24048
:100330000023C5E90023BDE8F08F8B4205D90DB13C
:10034000C5E9000100210846F5E7B3FA83F1002969
:100350004ED14345C0F01281824240F20F810846DF
:10036000002DE8D0C5E9004EE5E7002A00F0AC809A
:10037000B2FA82F6002E40F0BB808B1A4FEA124E82
:10038000BCB20121020C80B2B3FBFEFC0EFB1C339D
:1003900042EA034304FB0CF29A420ED9FB180CF11B
:1003A000FF382CBF4FF001094FF000099A4203D9E2
:1003B000B9F1000F00F0EC80C4469B1AB3FBFEF8C5
:1003C0000EFB183304FB08F440EA034294420BD9B5
:1003D000BA1808F1FF332CBF01200020944202D943
:1003E000002800F0D1809846121B48EA0C409DE797
:1003F000C1F120068B4008FA01F400FA01F922FA53
:1004000006F728FA06F88A401F4320FA06F3380C4C
:1004100023431FFA87FC1C0CB8FBF0FE00FB1E8870
:1004200044EA08440EFB0CF8A0450ED93C190EF125
:10043000FF3A2CBF4FF0010B4FF0000BA04503D942
:10044000BBF1000F00F0B880D646A4EB08041FFAF9
:1004500083F8B4FBF0F300FB134403FB0CFC48EA05
:100460000444A4450ED93C1903F1FF302CBF4FF0D2
:1004700001084FF00008A44503D9B8F1000F00F0BF
:100480009F80034643EA0E40A4EB0C04A0FB02EC61
:1004900064457346E04602D307D1F14505D2BEEB71
:1004A00002036CEB070C0138E0465DB1B9EB0302C7
:1004B00064EB080404FA06F622FA01F3CC401E436A
:1004C000C5E90064002136E7B1FBF2FC010C1446DB
:1004D00080B2964641EA08412026904640EA014310
:1004E0001046B1FBF2F1A3EB080341EA0C414BE7E4
:1004F000B740C6F1200301FA06F221FA03F84FEAE9
:10050000174E20FA03F3BCB2B0401343020C190C8F
:1005100080B2B8FBFEF90EFB198841EA084109FBDD
:1005200004F8884551D9791809F1FF3C2CBF4FF0E8
:10053000010A4FF0000A884502D9BAF1000F31D004
:10054000A1EB0801B1FBFEF909FB04F80EFB191140
:100550009BB243EA0143434535D2FB1809F1FF3111
:100560002CBF4FF0010A4FF0000A4345BBD2BAF14D
:10057000000FB8D1A9F102013B44B4E7841A68EB3B
:10058000030201209646EBE63A44A8F102082BE765
:10059000ACF1020C3B4410E702393B44A9E63A4473
:1005A0000238BEE6A7EB0808A9F1020C4144B1FBF2
:1005B000FEF909FB04F8C9E7AEF1020E3C4444E73A
:1005C000023B3C445EE749468DE7A1EB0801CC467F
:1005D000B1FBFEF909FB04F8B8E700BF704700BFA4
:1005E00080B483B000AF7860396000BF0C37BD467F
:1005F0005DF8047B7047000080B500AF034B00221C
:100600001A60034816F038FC00BF80BDD42B0320CD
:10061000100B032080B400AF034B1B681846BD4687
:100620005DF8047B704700BFD42B032080B584B0F5
:1006300002AF72B600BF834B4FF000629A60BFF307
:100640004F8F00BF62B600BF0EF0EDFB07F072FDEA
:1006500000F066F900F0D4FB00F08CFB00F059FAD2
:1006600000F078FA00F006FA00F08AFA00F0D8F903
:1006700000F062FA00F0DCF900F044FA00F063FAEE
:1006800000F050FB00F0F2FA00F0B8FA00F024FBA2
:100690006D4B00221A706D4B00936D4B00220121AF
:1006A00043F698201FF090F803466A4A13606A4B9D
:1006B00000936A4B0022012143F698201FF084F832
:1006C0000346674A1360674B0093674B0022012182
:1006D00041F201001FF078F80346644A1360644B4E
:1006E0000093644B0022012141F201001FF06CF8DD
:1006F0000346614A1360614B0093614B0022012164
:1007000043F698201FF060F803465E4A13605E4B84
:1007100000935E4B0022012143F698201FF054F80D
:1007200003465B4A1360002006F0A2F9002006F0A1
:10073000B7F906F0DAF91FF0E3FF564B0093564B7A
:100740004A4A564906F024F855480AF017FD55481C
:1007500005F064F9544A5549554801F04DFA002313
:100760003B603B46184606F00FF90346002B10D1BC
:100770003B68002B0DD14FF040437B607B6843F416
:1007800024137B607B6843F004037B60786806F089
:10079000C1F81EF0CFF821F0D5FF464A00214648A7
:1007A0001EF012F90346454A1360454A00214548A8
:1007B0001EF00AF90346444A1360444A00214448A3
:1007C0001EF002F90346394A1360424A00214248AA
:1007D0001EF0FAF80346414A1360414A002141489D
:1007E0001EF0F2F80346304A13603F4A00213F48AA
:1007F0001EF0EAF80346294A13603D4A00213D48AD
:100800001EF0E2F803463C4A13603C4A00213C4893
:100810001EF0DAF803463B4A13603B4A00213B488E
:100820001EF0D2F803463A4A13603A4A00213A4889
:100830001EF0CAF80346394A13601EF09FF800BF45
:10084000FDE700BF00ED00E0042B0320B42A0320E5
:1008500000000020D82A0320DC2A0320983A002038
:10086000002B0320082B032038BF0020982B0320E7
:100870002C2B03203CCF00209C2B0320502B03204B
:1008800040DF0020CC2C0320742B0320D81901203A
:10089000D02C0320A42B0320A02B032048210320CD
:1008A0007C0903200C080320981C03203813032024
:1008B00030080320006E0208290F0008840E032070
:1008C000246E020819100008880E0320486E0208E2
:1008D000551300086C6E02082D140008E817032059
:1008E000906E0208ED140008B46E0208C1150008ED
:1008F000D86E0208A1170008F8250320FC6E020834
:100900009D180008A82A0320206F0208F11800088B
:10091000AC2A0320446F020807190008B02A0320FC
:1009200080B59EB000AF07F1300348220021184681
:1009300022F02FFF07F11C0300221A605A609A6010
:10094000DA601A613B1D00221A605A609A60DA6010
:100950001A615A614FF4007013F0D6FB0346002B66
:1009600001D001F007F829233B634FF480337B6308
:100970000123BB650023BB6401237B640223FB6569
:1009800003233B6601237B661023BB660723FB66BC
:1009900004233B6702237B6707F13003184613F0FB
:1009A00053FC0346002B01D000F0E4FF0F23FB6152
:1009B00003233B6200237B620023BB620023FB62B4
:1009C00007F11C030321184614F014F90346002B09
:1009D00001D000F0CFFF114B9B6D104A43F08073A4
:1009E00093650E4B9B6D03F080733B603B68002367
:1009F0007B604FF00053BB600023FB604BF67F33FE
:100A00003B6122237B612023BB613B1D184614F010
:100A100077FF00BF7837BD4680BD00BF00100240A1
:100A200080B400AF00BFBD465DF8047B7047000096
:100A300080B500AF0D4B0E4A1A600C4B00221A71A4
:100A40000A4B00225A71094B00225A61074B0022BF
:100A50009A61064B01221A6204480EF04DFB0346D0
:100A6000002B01D000F086FF00BF80BD0C080320E2
:100A70000030024080B500AF204B214A1A601F4B66
:100A800000225A601D4B4FF440729A601B4B0022AB
:100A9000DA601A4B01221A74184B00225A74174B51
:100AA00000229A74154B01225A61144B10229A614C
:100AB000124B3C22DA61114B13221A620F4B0122B6
:100AC0005A620E4B10229A620C4B0F22DA620B4BC9
:100AD00004221A63094B01225A63084B01229A63CC
:100AE000064B0022DA6305480EF0B4FF0346002BE4
:100AF00001D000F03FFF00BF80BD00BF30080320E1
:100B000000A4004080B400AF00BFBD465DF8047B88
:100B1000704780B500AF002011F078FD0346002B30
:100B200001D000F027FF11F091FD0346002B01D00A
:100B300000F020FF00BF80BD80B400AF00BFBD4605
:100B40005DF8047B704780B400AF00BFBD465DF820
:100B5000047B704780B500AF074B084A1A60064B0C
:100B600000225A60044815F09FF80346002B01D07C
:100B700000F000FF00BF80BD7C09032000080C428C
:100B800080B500AF1B4B1C4A1A601A4B4FF482729F
:100B90005A60184B00229A60164B4FF4E062DA60FC
:100BA000144B00221A61134B00225A61114B4FF46F
:100BB00000729A610F4B0822DA610E4B00221A6212
:100BC0000C4B00225A620B4B00229A62094B0722FF
:100BD000DA62084B00221A63064B08225A63054862
:100BE00015F073FA0346002B01D000F0C3FE00BFDE
:100BF00080BD00BF900903200038004080B584B05C
:100C000000AF3B1D00221A605A609A60154B164ACD
:100C10001A60144B42F20F725A60124B00229A6013
:100C2000104B41F63F72DA600E4B00229A610D487C
:100C300016F062F80346002B01D000F09BFE002363
:100C40007B600023FB603B1D1946064816F05AFBEB
:100C50000346002B01D000F08DFE00BF1037BD46CB
:100C600080BD00BFC40A03200010004080B584B0DE
:100C700000AF3B1D00221A605A609A60144B154A5F
:100C80001A60134B00225A60114B00229A60104BDD
:100C900041F63F72DA600E4B00229A610C4816F062
:100CA0002BF80346002B01D000F064FE00237B608C
:100CB0000023FB603B1D1946054816F023FB034645
:100CC000002B01D000F056FE00BF1037BD4680BD9E
:100CD000100B03200014004080B500AF0F4B104AEA
:100CE0001A600E4B4F225A600C4B00229A600B4B3D
:100CF0004FF6FF72DA60094B00221A61074B00229F
:100D00005A61064B00229A61044815F0F5FF03462C
:100D1000002B01D000F02EFE00BF80BD5C0B032035
:100D20000044014080B500AF104B114A1A600F4BD0
:100D300008221A710D4B02225A710C4B0222DA71F1
:100D40000A4B00221A72094B00225A72074B0022EA
:100D50009A72064B0022DA72044811F087FC0346AF
:100D6000002B01D000F006FE00BF80BDA80B0320C1
:100D700000D4004080B584B000AF204B9B6C1F4A6C
:100D800043F0040393641D4B9B6C03F00403FB606E
:100D9000FB681A4B9B6C194A43F001039364174B91
:100DA0009B6C03F00103BB60BB68144B9B6C134A44
:100DB00043F002039364114B9B6C03F002037B60CE
:100DC0007B68002205211D200EF05BF91D200EF02E
:100DD00072F9002205211E200EF053F91E200EF09C
:100DE0006AF90022052150200EF04BF950200EF038
:100DF00062F900BF1037BD4680BD00BF0010024041
:100E000080B58AB000AF07F1140300221A605A605F
:100E10009A60DA601A613F4BDB6C3E4A43F0040390
:100E2000D3643C4BDB6C03F004033B613B69394BFF
:100E3000DB6C384A43F08003D364364BDB6C03F041
:100E40008003FB60FB68334BDB6C324A43F00103E9
:100E5000D364304BDB6C03F00103BB60BB682D4BEC
:100E6000DB6C2C4A43F00203D3642A4BDB6C03F0A7
:100E700002037B607B6800224FF46041264810F03B
:100E800093FD002240F20111244810F08DFD002254
:100E900041F2E401224810F087FD4FF460437B618A
:100EA0000123BB610023FB6100233B6207F11403B4
:100EB0001946194810F0F2FA40F201137B61012340
:100EC000BB610023FB6100233B6207F11403194659
:100ED000124810F0E3FA41F2E4037B610123BB61A5
:100EE0000023FB6100233B6207F1140319460C4801
:100EF00010F0D4FA08237B610023BB610023FB615F
:100F000007F114031946074810F0C8FA00BF283744
:100F1000BD4680BD001002400008024200000242AF
:100F200000040242001C024280B586B000AF786027
:100F30000023FB75334B186807F10E014FF0FF33A8
:100F400002221EF03CFE38613B69022B04D1FB8972
:100F500042F20302934202D90123FB7510E0294BB0
:100F60001868FB891A464FF0FF3327491EF027FE09
:100F70003861FB891A463B69934201D00123FB7516
:100F8000FB7D012B0CD1214B1B78012B03D1204879
:100F90000CF096FE35E001211E480CF049FEC7E733
:100FA000FB891946184804F02DFE0346002BBFD1DB
:100FB000164B1B78012B12D1FB891946124801F000
:100FC00021F90346012BB3D1104B1B78002B0CBF2A
:100FD00001230023DBB21A460C4B1A70A8E7FB89E9
:100FE0001946094801F076FD0346012BA0D1074BB5
:100FF0001B78002B0CBF01230023DBB21A46034BE6
:101000001A7095E7D82A0320307D0020042B032096
:10101000484902086849020880B59EB000AF786070
:101020008C4B186807F14C014FF0FF3328221EF05B
:10103000C6FD0346282BF3D1BB6D18460DF004F90D
:10104000034687F8773097F87730002B09D0814B2B
:10105000186897F8772007F10C014FF0FF331EF066
:10106000AEFD7B6D002B1CD1FB6C97F8771007F160
:101070000C02184604F03AFE1FF042FB024607F14C
:101080000C0107F14C03184605F0BCFB1FF038FBC0
:10109000024607F10C0107F14C03184608F0A8FBC3
:1010A00029E07B6DB3F1005F25D1FB6CB3F5E06FF8
:1010B00021D1694B00225A61674B00229A61664B2D
:1010C00000229A603B6D644A5360FB6C624A136075
:1010D000BB6D614AD360604BDB68082B02D95E4B65
:1010E0000822DA6008225D495D480DF0E9F85C49A4
:1010F000594800F069FE1FF003FB024607F10C019E
:1011000007F14C03184604F0E7FC564B1B78DBB2A2
:10111000002B85D0002387F876307B6EB3F5001F57
:1011200017D13B6EB3F5801F09D197F876305A1C62
:1011300087F876201A464C4B3121995410E097F8E5
:1011400076305A1C87F876201A46474B302199543E
:1011500006E097F87730082B02D9082387F8773014
:101160007B6D002B0ED13B6D002B01D1742100E073
:10117000542197F876305A1C87F876201A463A4B55
:10118000995410E03B6D002B01D1722100E05221F7
:1011900097F876305A1C87F876201A46324B9954C5
:1011A000002387F877303B6D002B11D1FB6C9AB28E
:1011B00097F876302C490B44194610460CF05AFE2D
:1011C0000346DAB297F87630134487F876300FE0AA
:1011D000FA6C97F8763024490B44194610460CF007
:1011E000F7FD0346DAB297F87630134487F8763085
:1011F0007B6EB3F5001F14D1BB6DDBB203F00F03A0
:10120000DAB297F8763018490B44194610460CF0BC
:10121000AFFE0346DAB297F87630134487F876309B
:1012200013E097F8773003F00F03DAB297F87630CF
:101230000D490B44194610460CF09AFE0346DAB2EB
:1012400097F87630134487F87630002387F87530A6
:1012500026E000BFCC2C0320A82B03209005FA0B1E
:10126000CC2B03208C010320349D002097F875308F
:1012700078333B4413F86C2C97F8763032490B44A2
:10128000194610460CF054FE0346DAB297F8763051
:10129000134487F8763097F87530013387F8753046
:1012A00097F8752097F877309A42DFD3274BDB7891
:1012B000DBB2002B1BD01FF023FA0246244BA3FB0A
:1012C00002139B0B4EF6602101FB03F3D31A9AB273
:1012D00097F876301C490B44194610460CF0F4FD83
:1012E0000346DAB297F87630134487F87630174B16
:1012F0005B79DBB2002B10D07B6EB3F5001F0CD1F5
:10130000FB6DB3F1004F08D197F876305A1C87F87F
:1013100076201A460C4B6921995497F876305A1C5E
:1013200087F876201A46084B0D21995497F87630A5
:10133000194605480CF07CFC0346002B3FF470AEC8
:10134000024B00221A706BE6349D00208C010320B2
:1013500073B2E74580B59EB000AF786000233B676D
:1013600015E02F4B18683A6F1346DB0013449B00BF
:101370001A4607F14C0399183B6FC3F124024FF052
:10138000FF331EF01CFC02463B6F13443B673B6F70
:10139000232BE6D9BB6D18460CF056FF034687F8A1
:1013A00077307B6DB3F1005F02D1002387F877308F
:1013B00097F87730002B1FD000233B6711E0184BC4
:1013C000186807F10C023B6FD11897F877203B6F34
:1013D000D21A4FF0FF331EF0F2FB02463B6F13446C
:1013E0003B6797F877303A6F9A42E8D304E04FF0C2
:1013F000FF3101201FF0D4FF0A480EF0E4FF03463E
:10140000002BF4D007F10C0207F14C0319460548F4
:101410000EF0FAFD044BDB680133034AD3609DE70D
:10142000D02C0320300803200000032080B584B0B6
:1014300000AF786004F04EFC00F002FC05F048FBC1
:1014400000F09EFA09F08EF91FF05AF9034618468B
:1014500004F01EFB1FF054F90346184604F02CFB61
:101460001D4815F009FD1D4815F09EFC1C491D483E
:1014700008F032F906F092FC1FF042F90346FB60D7
:10148000FB68184609F064F9FB68184609F076F91C
:10149000FB68184600F07BFA134B1B78DBB2002B7D
:1014A00007D1FB68184604F001FEFB68184604F0FB
:1014B000F9FAFB68184604F0B1FBFB68184605F022
:1014C0008DF9FB68184608F019F907F10C030A2199
:1014D00018461EF031FFCFE7C40A03205C0B03203F
:1014E000E8170320900903205E00032080B5A8B010
:1014F00000AF78604FF0FF3101201FF051FF20F066
:10150000BDFD2B480FF0D3F9C7F89C0007F160032D
:10151000194627480EF0C4FE07F18C0319462448EB
:101520000EF00EFF234AD7F89C309360214A07F152
:101530000C0311465422184622F08BFA1C4B002251
:101540001A66BB6AB3F5003F0BD91A4B9B6803F4CC
:101550000013002B05D0174B012283F8202000F048
:1015600089FB20F09DFD144B1B78012B09D107F15D
:101570000C0207F1600107F18C00D7F89C3004F0F1
:10158000F9FED7F89C3003F48003002B07D0094BF9
:101590001B79DBB263F07F03DAB2064B1A71074B9B
:1015A00018680023022200211FF096FFA2E700BF67
:1015B0003008032000000320542D0320381303209B
:1015C00080B588B002AF786000237B736F4B1B68D7
:1015D00018461EF0B3F90346002B00F0D0806B4B89
:1015E000186807F10D014FF0FF3301221EF0E7FAF2
:1015F0000346012B40F0C380644B1B6818461EF065
:101600009DF90346012B40F2BA80604B186807F140
:101610000E014FF0FF3302221EF0D1FA0346022BD7
:1016200040F0AD80FB89B3F5805F80F0A880002397
:10163000FB82FB89002B17D012E0544B1868FB8A01
:10164000534A9918FB891A46FB8AD31A1A464FF057
:10165000FF331EF0B4FA03469AB2FB8A1344FB82AE
:10166000FB89FA8A9A42E8D17B7B002B35D11FF0A7
:1016700047F8FA8907F10A030093464B44490BF0F7
:10168000CDFF7B89002B1DD0434B186807F10A0161
:101690004FF0FF3302221EF067F938613E4B1868A5
:1016A0007B891A464FF0FF333A491EF05DF9024636
:1016B0003B6913443B61394B186800230222002127
:1016C0001FF00AFF1FF01CF8FA8907F10A030093C4
:1016D000304B2F490CF032FA51E01FF011F8FA8923
:1016E00007F10A0300932B4B29490CF07BF97B8906
:1016F000002B3AD000237B75264B1B787F2B02D022
:1017000001237B7510E07B89022B0DD9214B9B783F
:10171000112B09D01F4B9B78122B05D01D4B9B78AA
:10172000312B01D001237B757B7D002B1DD01A4B03
:10173000186807F10A014FF0FF3302221EF014F976
:101740003861154B18687B891A464FF0FF331149F1
:101750001EF00AF902463B6913443B610F4B1868BF
:101760000023022200211FF0B7FE1EF0C9FFFA89F4
:1017700007F10A030093074B05490CF0DFF94FF01E
:10178000FF3100201FF00CFE20E700BF982B032044
:10179000349F002038AF00209C2B0320F825032025
:1017A00080B584B000AF78600023FB81364B1B68A6
:1017B00018461EF0C3F80346012B5ED9324B186859
:1017C0004FF0FF33022231491EF0F9F90346022B94
:1017D00053D12F4B03F580539B8AB3F5805F4CD2D6
:1017E0000023FB8115E0284B1868FB89294A9918CA
:1017F000274B03F580539B8A1A46FB89D31A1A4656
:101800004FF0FF331EF0DBF903469AB2FB89134415
:10181000FB811F4B03F580539B8AFA899A42E2D1E0
:101820001EF06EFF03461946194805F017FE0346E1
:10183000002B22D116E0144B1B6818461EF07EF8D0
:101840000346012B18D8144B1B78DBB2002B05D0B4
:101850000F4B03F5005393F8233000E00A2318469A
:101860001DF045F91EF04CFF034618460BF0FEFD37
:101870000346012BDFD100E000BF4FF0FF31002015
:101880001FF08EFD92E700BF9C2B0320A03D02209D
:101890008C2D0220A83D02205E00032080B584B07C
:1018A00000AF78600D490E480CF076F90B4A0D49EF
:1018B0000D4820F079FF0A4B18684FF0FF334FF4C2
:1018C00000620A491EF07BF9F860FB68002BF2D039
:1018D000F96806480CF086F9EDE700BFA82A032056
:1018E000002B0320840E0320D82A0320307500200B
:1018F00080B582B000AF7860786804F0B3F900BFBB
:101900000837BD4680BD80B582B000AF786000204A
:1019100004F0B3F900BF0837BD4680BD80B582B082
:1019200000AF78607B681B680E4A934205D10E4B6E
:101930001B6801330C4A13600FE07B681B680B4A7D
:10194000934202D10DF08AFA07E07B681B68084ACF
:10195000934202D1786804F073F900BF0837BD469E
:1019600080BD00BF00140040D42B0320002C014098
:101970000010004080B400AF72B600BF00BFFDE7AA
:1019800080B400AF00BFBD465DF8047B704780B4F3
:1019900083B000AF786000BF0C37BD465DF8047BB4
:1019A000704780B400AF00BFBD465DF8047B704750
:1019B00080B48BB000AF78606FF000433B620123CE
:1019C000FB757B68404A934203D940F2EE233B8388
:1019D0000AE07B683D4A934203D94FF448733B8346
:1019E00002E040F26B333B833B8B394AA2FB03237B
:1019F0001B09BB82374B3B610123BB833A697B6880
:101A0000B2FBF3F3FB770AE0BB8B0133BB83BB8BE9
:101A10003A69B2FBF3F27B68B2FBF3F3FB77FB7F2F
:101A2000192BF1D845E0FB7F5B08FB7631E0FA7FAC
:101A3000FB7ED31ADBB2013BFB733A8BFB7E4FF488
:101A40007A7103FB01F1FB7F91FBF3F3D31A7B6205
:101A50007B6A002B02DA7B6A5B427B627A6A3B6AB2
:101A60009A4213DABB8A7A6A9A420FDC7B6A3B623B
:101A7000194B1B68BA8B5A61174B1B68FA7EDA61E7
:101A8000154B1B68FA7B1A620023FB75FB7E013342
:101A9000FB76FA7EFB7F023B9A42C8DBBB8B0133AD
:101AA000BB83BB8B3A69B2FBF3F27B68B2FBF3F307
:101AB000FB77BB8BB3F5806FB5D3FB7D18462C3716
:101AC000BD465DF8047B704700350C0020A107007F
:101AD000CDCCCCCC005A6202D82B032080B582B08A
:101AE00002AF002240213F480FF05EFF3E4B1B68D3
:101AF0003E4918460EF023F90346002B01D0FFF7AC
:101B000039FF394B1B683A4918460EF018F903465D
:101B1000002B01D0FFF72EFF334B186800230093F2
:101B20000023022202210EF064F90346002B01D0AB
:101B3000FFF720FF2C4B1B6818460EF0CDF903462B
:101B4000002B01D0FFF716FF274B1B680022012155
:101B500018460EF04AFC0346002B01D0FFF70AFF9F
:101B6000214B1B680022062118460EF03EFC03465E
:101B7000002B01D0FFF7FEFE1B4B1B6807224FF422
:101B8000F05118460EF031FC0346002B01D0FFF750
:101B9000F1FE154B1B680722802118460EF025FC2C
:101BA0000346002B01D0FFF7E5FE0F4B1B68002218
:101BB000104918460EF019FC0346002B01D0FFF720
:101BC000D9FE094B1B6800224FF4602118460EF025
:101BD0000CFC0346002B01D0FFF7CCFE00BFBD4636
:101BE00080BD00BF00040242D82B03202400032044
:101BF0003C0003200040710080B584B000AFF86065
:101C0000B9607A60094AFB681360094ABB681360CF
:101C1000084A7B681360084901201DF056F9034605
:101C2000064A136000BF1037BD4680BDD82B032085
:101C3000DC2B0320E02B03207C2C0320782C0320BA
:101C400080B500AF0A4B1B6818460EF055F8084BDC
:101C50001B6818460DF0FEFE0346002B01D0FFF76F
:101C600089FE00F08FF8FFF739FF00BF80BD00BF8D
:101C7000D82B032080B500AF034B1B6818460EF02D
:101C80003BF800BF80BD00BFD82B032080B584B0D7
:101C900000AF78600023FB737B68082B4DD801A24E
:101CA00052F823F0C91C0008D71C0008E51C0008E6
:101CB000F31C0008FF1C00080B1D0008171D00087E
:101CC000231D00082F1D000842F21070FFF770FE60
:101CD0000346FB7344E044F62060FFF769FE0346C9
:101CE000FB733DE04CF25030FFF762FE0346FB739E
:101CF00036E01E48FFF75CFE0346FB7330E01C48ED
:101D0000FFF756FE0346FB732AE01A48FFF750FE22
:101D10000346FB7324E01848FFF74AFE0346FB73B3
:101D20001EE01648FFF744FE0346FB7318E0144814
:101D3000FFF73EFE0346FB7312E07B6842F20F7230
:101D400093420AD97B680E4A934206D87868FFF717
:101D50002FFE0346FB7300BF01E00123FB7300BFAE
:101D6000FB7B18461037BD4680BD00BFA086010032
:101D700048E8010090D0030020A1070000350C00C6
:101D800040420F0080B400AF0E4B00221A710D4B81
:101D90000022DA600B4B00221A610A4B00225A61C2
:101DA000084B00229A61074B00229A60054B0022E3
:101DB000DA61044B002283F8202000BFBD465DF8A5
:101DC000047B70470000032080B586B000AF7860C8
:101DD00039600023BB747B68DB6818460CF034FA6A
:101DE0000346FB747B689B68B3F1005F01D100235D
:101DF000FB74FB7C2433FB6000BF2C4B1B684FF053
:101E0000FF3118461DF079FA0346012BF5D1284B16
:101E10001B6818461DF068FD0246FB6893420AD90C
:101E2000244B1B79DBB243F00203DAB2214B1A7167
:101E30000223BB7425E01E4B18684FF0FF332422A9
:101E400079681DF091FD7861FB7C002B0BD0184B5D
:101E50001868FA7C4FF0FF3339681DF085FD0246A3
:101E60007B6913447B617A69FB689A4209D0114B04
:101E70001B79DBB243F00803DAB20E4B1A7101236F
:101E8000BB740A4B18680023002200211DF038F8AB
:101E9000094B1B6818680023022200211FF01CFB5D
:101EA000BB7C18461837BD4680BD00BF782C032088
:101EB000D02C032000000320DC2B032080B400AFD3
:101EC0001E4B1B6801225A601C4B1B684FF440726A
:101ED0009A601A4B1B680022DA60184B1B680022BC
:101EE0001A74164B1B6800225A74144B1B6801228B
:101EF0009A74124B1B6801225A61104B1B68102206
:101F00009A610E4B1B683F22DA610C4B1B68102252
:101F10001A620A4B1B6801225A62084B1B68042292
:101F20009A62064B1B680F22DA62044B1B6804227C
:101F30001A6300BFBD465DF8047B7047D82B0320B1
:101F400080B586B000AF786039600023BB603B6825
:101F500003F00103002B4FD0454B464A40217868DF
:101F60000EF096F80346002B01D0FFF71AFD424B06
:101F70005B690133404A53613E4BDB6818460CF005
:101F800063F90346FB74FB7C2833FB603B4B1B6807
:101F900018461DF0A9FC0246FB6893420ED9364B49
:101FA0009B690133344A9361354B1B681B6807F109
:101FB0000802114618461FF0EDFB1DE02F4B186874
:101FC00007F1080328222B491DF067FD7861FB7C8F
:101FD000002B0BD0294B1868FA7C07F10803244921
:101FE0001DF05BFD02467B6913447B617A69FB68E7
:101FF0009A4201D0FFF7D5FC3B6803F00203002BA7
:102000000BD01D4B1B79DBB243F00103DAB21A4B44
:102010001A717B681B6802221A653B6803F004038F
:10202000002B19D0144B9B690133134A9361124B57
:102030001B79DBB243F00803DAB20F4B1A717B68ED
:102040001B6804221A650E4B1B681B6807F1080207
:10205000114618461FF09EFBBB68002B03D0094BAE
:102060004FF080521A6000BF1837BD4680BD00BFD8
:10207000E42B0320242C032000000320CC2C03207D
:10208000E02B032004ED00E080B584B000AF786061
:1020900039600023FB600C4B1B6901330A4A136152
:1020A0000A4B1B681B6807F10C02114618461FF00B
:1020B00071FBFB68002B03D0054B4FF080521A6078
:1020C00000BF1037BD4680BD00000320DC2B03207D
:1020D00004ED00E080B584B000AF78600023FB60C1
:1020E0000C4BDB6901330B4AD3610B4B1B681B683C
:1020F00007F10C02114618461FF04CFBFB68002B41
:1021000003D0064B4FF080521A6000BF1037BD4617
:1021100080BD00BF00000320E02B032004ED00E0A1
:1021200080B582B000AF786039601E4978680EF0E3
:10213000B7F83B6803F40033002B0BD0194BDB6876
:10214000002B03D1184B00221A6003E0164B4FF00E
:1021500000421A603B6803F48023002B14D0114B1B
:102160001B69012B08D1104B1B79DBB243F0040330
:10217000DAB20D4B1A7107E00B4B1B79DBB223F07F
:102180000403DAB2084B1A713B6803F40023002BF6
:1021900003D0054B012283F8202000BF0837BD463D
:1021A00080BD00BF4C2C03200000032080B487B00A
:1021B00000AF7860396000237B6100233B6100231E
:1021C000FB6013E0FB687A6813441B78202B02D174
:1021D00000233B6107E03B69002B04D101233B61F5
:1021E0007B6901337B61FB680133FB60FA683B6804
:1021F0009A42E7DB7B6918461C37BD465DF8047BD5
:102200007047000080B588B000AF78603960002367
:10221000FB777A683B68134400221A703B6842F2ED
:102220000202934204D988480BF04AFD00F00BBC2F
:102230000023BB6100233B6100237B6120E07A68BF
:102240007B6913441B78082B06D1BB69002B14D083
:10225000BB69013BBB6110E07A687B6913441B7862
:102260000A2B0AD07A687B691A447968BB690B44E7
:1022700012781A70BB690133BB617B6901337B61E2
:102280007A693B689A42DAD37A68BB6913440022C0
:102290001A70BB693B603B6819467868FFF786FF98
:1022A00003463B613B69002B06D13B68002B03D101
:1022B00066480BF005FDC6E36549786821F084FAAD
:1022C000F860FB68002B03D162480BF0F9FCBAE31D
:1022D0006149F868FDF7B4FF0346002B15D05F494C
:1022E000F868FDF7ADFF0346002B0ED05C49F86897
:1022F000FDF7A6FF0346002B07D05A49F868FDF703
:102300009FFF0346002B40F07B813B69012B40F28D
:1023100034814F49002021F057FAF8605249F8689B
:10232000FDF78EFF0346002B3CD150480BF0C8FC54
:102330004F480BF0C5FC4D480BF0C2FC4D480BF06C
:10234000BFFC4D480BF0BCFC4A480BF0B9FC4B48B5
:102350000BF0B6FC4A480BF0B3FC46480BF0B0FC5F
:1023600048480BF0ADFC48480BF0AAFC41480BF084
:10237000A7FC46480BF0A4FC45480BF0A1FC3D48E7
:102380000BF09EFC43480BF09BFC43480BF098FC81
:1023900042480BF095FC37480BF092FC33480BF0A9
:1023A0008FFCE6E03E49F868FDF74AFF0346002B44
:1023B00040F08C802D480BF083FC2D480BF080FC06
:1023C0002A480BF07DFC2B480BF07AFC35480BF0CB
:1023D00077FC28480BF074FC28480BF071FC32485D
:1023E0000BF06EFC23480BF06BFC26480BF068FCEE
:1023F0002E480BF065FC1F480BF062FC23480BF0E5
:102400005FFC2B480BF05CFC1A480BF059FC214890
:102410000BF056FC27480BF053FC27480BF050FC00
:1024200026480BF04DFC26480BF04AFC25480BF0E3
:1024300047FC25480BF044FC0E480BF041FC0B48D0
:102440000BF03EFC95E000BF6C4902088049020891
:102450008449020888490208B4490208BC490208B4
:10246000C4490208CC490208D0490208D8490208E8
:10247000184A0208444A0208484A0208584A020810
:10248000684A02089C4A0208A44A0208C04A020894
:10249000CC4A0208144B0208204B0208644B020885
:1024A000744B02087C4B0208904B0208CC4B02088C
:1024B000E04B02082C4C02084C4C02085C4C020811
:1024C0007C4C02088C4C0208AC4C0208AC49F86801
:1024D000FDF7B6FE0346002B48D1AA480BF0F0FBEF
:1024E000A9480BF0EDFBA7480BF0EAFBA7480BF05F
:1024F000E7FBA7480BF0E4FBA4480BF0E1FBA54881
:102500000BF0DEFBA4480BF0DBFBA0480BF0D8FB84
:10251000A2480BF0D5FBA2480BF0D2FB9B480BF076
:10252000CFFBA0480BF0CCFB9F480BF0C9FB9748B2
:102530000BF0C6FB9D480BF0C3FB9D480BF0C0FBA6
:102540009C480BF0BDFB9C480BF0BAFB9B480BF082
:10255000B7FB9B480BF0B4FB9A480BF0B1FB8B48E0
:102560000BF0AEFB87480BF0ABFB02E096480BF09C
:10257000A7FB96480BF0A4FB65E282480BF0A0FB9A
:1025800081480BF09DFB7F480BF09AFB7F480BF0D6
:1025900097FB8F480BF094FB7C480BF091FB8D4828
:1025A0000BF08EFB8C480BF08BFB8C480BF088FB00
:1025B0008B480BF085FB8B480BF082FB8A480BF0B5
:1025C0007FFB8A480BF07CFB89480BF079FB89483C
:1025D0000BF076FB88480BF073FB88480BF070FB20
:1025E00087480BF06DFB87480BF06AFB67480BF0E0
:1025F00067FB85480BF064FB62480BF061FB22E24D
:102600005F49F868FDF71CFE0346002B47D13B6984
:10261000022B03D07D480BF053FB14E27C490020D1
:1026200021F0D2F8F8607B49F868FDF709FE03460F
:10263000002B03D178480BF043FB04E27749F8689C
:10264000FDF7FEFD0346002B07D175480BF038FB64
:102650000021422004F0ACF9F5E17249F868FDF779
:10266000EFFD0346002B07D16F480BF029FB00213B
:10267000432004F09DF9E6E16C49F868FDF7E0FDC0
:102680000346002B07D16A480BF01AFB00214420B7
:1026900004F08EF9D7E167480BF012FBD3E16649ED
:1026A000F868FDF7CDFD0346002B47D13B69022BAF
:1026B00003D062480BF004FBC5E15549002021F02E
:1026C00083F8F8605349F868FDF7BAFD0346002B1C
:1026D00003D15B480BF0F4FAB5E15049F868FDF717
:1026E000AFFD0346002B07D156480BF0E9FA012154
:1026F000422004F05DF9A6E14A49F868FDF7A0FD23
:102700000346002B07D150480BF0DAFA0121432091
:1027100004F04EF997E14549F868FDF791FD03464D
:10272000002B07D149480BF0CBFA0121442004F0DB
:102730003FF988E13F480BF0C3FA84E14449F86867
:10274000FDF77EFD0346002B40F0E2803B69022B43
:1027500003D040480BF0B4FA75E12D49002021F078
:1027600033F8F8603C49F868FDF76AFD0346002B32
:1027700076D1012007F04AFD38480BF0A1FA62E15A
:10278000BC4C0208D8490208184A0208444A020808
:10279000C44C0208584A0208D84C02089C4A020855
:1027A000144D0208C04A0208284D0208144B0208C2
:1027B000744D0208944D0208A84D0208C84D020845
:1027C000DC4D0208FC4D0208104E0208384E02088B
:1027D0008C4E0208304F02083C4F0208684F020836
:1027E000B84F02080850020858500208C4500208A6
:1027F000EC500208185102084851020874510208AE
:10280000CC510208185202084C5202086C520208BD
:1028100084490208BC520208C0520208F45202085D
:10282000F85202081C5302082053020844530208BD
:10283000485302086C530208744B02089053020874
:10284000E0530208FC5302082054020844540208D2
:10285000D049020868540208B8540208BC5402085F
:102860007E49F868FDF7ECFC0346002B06D10220F8
:1028700007F0CCFC7A480BF023FAE4E07949F868D9
:10288000FDF7DEFC0346002B06D1032007F0BEFC5B
:1028900073480BF015FAD6E07349F868FDF7D0FCE1
:1028A0000346002B06D1042007F0B0FC6C480BF067
:1028B00007FAC8E06D49F868FDF7C2FC0346002B33
:1028C00006D1052007F0A2FC65480BF0F9F9BAE043
:1028D0006749F868FDF7B4FC0346002B06D10620D3
:1028E00007F094FC5E480BF0EBF9ACE06149F86846
:1028F000FDF7A6FC0346002B06D1072007F086FC57
:1029000057480BF0DDF99EE05B480BF0D9F99AE0EF
:102910005A49F868FDF794FC0346002B14D0584937
:10292000F868FDF78DFC0346002B0DD05549F8687B
:10293000FDF786FC0346002B06D05349F868FDF7E7
:102940007FFC0346002B02D10123FB777BE04F493C
:10295000F868FDF775FC0346002B08D14C480BF0D6
:10296000AFF9C8201CF0C3F80CF0C1FB6BE049497B
:10297000F868FDF765FC0346002B03D146480BF0D1
:102980009FF960E04549F868FDF75AFC0346002BC3
:1029900039D13B69022B03D041480BF091F952E049
:1029A0004049002020F010FFF8603F49F868FDF72B
:1029B00047FC0346002B06D1012006F044FF3B48AC
:1029C0000BF07EF93FE02549F868FDF739FC034636
:1029D000002B06D1022006F036FF35480BF070F9C7
:1029E00031E02049F868FDF72BFC0346002B06D1A7
:1029F000032006F028FF2F480BF062F923E02E4851
:102A00000BF05EF91FE02D49F868FDF719FC03464D
:102A1000002B0FD101F094FD0346002B06D028486F
:102A20000BF04EF9012001F0ABFD0CE025480BF056
:102A300047F908E024480BF043F9F8680BF040F937
:102A400022480BF03DF9FB7F002B02D120480BF010
:102A500037F9FB7F18462037BD4680BDC8540208B1
:102A6000BC540208CC540208D0540208D4540208C2
:102A7000D8540208DC540208E05402081055020839
:102A8000145502081C550208245502082C5502084A
:102A900034550208845502088C550208085602086D
:102AA0001056020884490208B85402083056020839
:102AB00044560208585602086C5602089C560208F2
:102AC000A4560208B4560208C8560208DC5602088A
:102AD000205702082DE9F04FC7B002AF786107F523
:102AE0008873A3F580731960002387F80E310023E3
:102AF00087F80D317B691B78302B03D07B691B78FD
:102B0000312B14D14FF40013C7F8E8307B6901333F
:102B10001B78302B03D10023C7F8E43003E04FF4D7
:102B20008013C7F8E430012387F80E3108E0002352
:102B3000C7F8E8300023C7F8E430002387F80E31E7
:102B4000D44B5B79DBB2012B1ED107F58873A3F55B
:102B500080731B68013B7A6913441B78692B0FD182
:102B60004FF00043C7F8E03007F58873A3F5807392
:102B700007F58872A2F580721268013A1A6007E0C0
:102B80000023C7F8E03003E0C34B1B68C7F8E03010
:102B90000023C7F8EC300023C7F8F0307B691B78BE
:102BA000752B0CD107F58873A3F580731B68132B65
:102BB00041F0D281786903F0BDFA01F0CDB997F800
:102BC0000E317A6913441B78742B07D097F80E31B5
:102BD0007A6913441B78722B40F0A98097F80E3164
:102BE00007F58872A2F580721268D31A042B40F29E
:102BF00098800023C7F8D4300023C7F8D83097F85E
:102C00000E3101337A69134418460BF0ADFA0346CE
:102C1000C7F8D03097F80E3104337A691344184658
:102C20000BF044FA034687F80F3197F80F31C7F8D5
:102C3000DC3097F80E317A6913441B78722B06D179
:102C40004FF00053C7F8D830002387F80F3197F8BA
:102C50000E3107F58872A2F580721268D41A97F8BF
:102C60000F3118460BF0F0FA03465B0005339C4227
:102C700051D1002387F80C3197F80E31053387F8CE
:102C80000E311AE097F80E317A691A4497F80C3130
:102C9000591C87F80C111C4610460BF019FA034614
:102CA0001A4604F5807307F110010B4403F8802CD9
:102CB00097F80E31023387F80E3197F80E2107F599
:102CC0008873A3F580731B68013B9A42DAD302E054
:102CD0000A201BF00CFF07F1900207F1D003114608
:102CE0001846FFF771F80346022BF1D001216B481B
:102CF0000AF09EFFD7F8D04097F80F3118460BF036
:102D0000A3FA0346194607F190031A46204602F03B
:102D1000EDFF01F021B9012161480AF089FF01F0BE
:102D20001BB901215E480AF083FF01F015B997F83D
:102D30000E317A6913441B78522B07D097F80E3165
:102D40007A6913441B78542B40F0B28097F80E3107
:102D500007F58872A2F580721268D31A092B40F227
:102D6000A1804FF08043C7F8D4300023C7F8D83093
:102D700097F80E3101337A69134418460BF01AFAAA
:102D80000346C7F8D03097F80E3109337A691344F7
:102D900018460BF08BF9034687F80F3197F80F317F
:102DA000C7F8DC3097F80E317A6913441B78522B40
:102DB00006D14FF00053C7F8D830002387F80F3101
:102DC00097F80E3107F58872A2F580721268D41A4E
:102DD00097F80F3118460BF037FA034605335B00BE
:102DE0009C4251D197F80E310A3387F80E310023F7
:102DF00087F80B311AE097F80E317A691A4497F880
:102E00000B31591C87F80B111C4610460BF060F96A
:102E100003461A4604F5807307F110010B4403F8CA
:102E2000802C97F80E31023387F80E3197F80E2177
:102E300007F58873A3F580731B68013B9A42DAD3C8
:102E400002E00A201BF053FE07F1900207F1D003C5
:102E500011461846FEF7B8FF0346022BF1D00121B8
:102E60000E480AF0E5FED7F8D04097F80F31184623
:102E70000BF0EAF90346194607F190031A4620467B
:102E800002F034FF01F068B8012105480AF0D0FED5
:102E900001F062B88C01032000000320444A0208BC
:102EA000245702080121CA480AF0C2FE01F054B8B2
:102EB0007B691B78233B562B01F2498001A252F813
:102EC00023F000BF153600084F3F0008313E0008D0
:102ED0000B3F00084F3F00084F3F00084F3F0008DE
:102EE0004F3F00084F3F00084F3F00084F3F00088A
:102EF0004F3F00084F3F00084F3F00084F3F00087A
:102F00004F3F00084F3F00084F3F00084F3F000869
:102F10004F3F00084F3F00084F3F00084F3F000859
:102F20004F3F00084F3F00084F3F00084F3F000849
:102F30004F3F0008A1370008CD3500084F3F00087B
:102F40004F3F00083D30000885380008C5370008AD
:102F50005132000883340008A13700087D3800088A
:102F600071370008E33600084F30000827330008A7
:102F700097300008213000084F3F00084F3F0008FD
:102F80004F3F0008EF3000084F3F00084F3F000858
:102F90006B30000883320008733B0008093A0008D0
:102FA000F73300084F3F00084F3F00084F3F00082D
:102FB000FB3E00084F3F00084F3F0008FD3400086B
:102FC000F13E00081D3B00083F3600084F3F000857
:102FD0003B3500084F3F0008A13700084534000882
:102FE0003F37000887360008AB3700088F330008EA
:102FF000B53A00084F3F0008E538000809380008D6
:103000004F3F0008FD3100084F3F00084F3F0008C8
:103010008F35000835340008AB3D0008433A0008FE
:1030200001216C480AF004FE6B4B0022DA606B4B06
:1030300001221A70FEF704FE00F08EBF674B0022DB
:103040001A70012163480AF0F3FD00F085BF0121E9
:1030500060480AF0EDFD604B0222DA605F4B01220E
:103060001A70FEF7EDFD00F077BF0F215C480AF003
:10307000DFFD0C215B480AF0DBFD01215A480AF014
:10308000D7FD092159480AF0D3FD022158480AF01A
:10309000CFFD00F061BF4E2387F82030002387F872
:1030A0000A3114E097F80A319A00524B1344187809
:1030B00097F80A315B00013307F1200213441946E7
:1030C0000AF036FF97F80A31013387F80A3197F88A
:1030D0000A310B2BE6D907F12003192118460AF013
:1030E000A7FD01213B480AF0A3FD00F035BF07F51D
:1030F0008873A3F580731B68012B61D907F588736A
:10310000A3F580731B68082B5AD80023C7F8043135
:10311000012387F80331012387F802312DE097F866
:1031200002317A6913441B782F2B06D997F80231A4
:103130007A6913441B78392B02D9002387F80331AD
:10314000D7F8042113469B0013445B00194697F8F7
:1031500002317A6913441B780B44303BC7F80431C1
:10316000D7F80431244A934202D9002387F8033167
:1031700097F80231013387F8023197F8023107F5E9
:103180008872A2F5807212689A42C8D897F8033103
:10319000012B10D1D7F80401FEF778FD0346002B70
:1031A00004D101210B480AF043FD0FE0012108483A
:1031B0000AF03EFD0AE0012105480AF039FD05E06C
:1031C000012103480AF034FD00F0C6BE00F0C4BE81
:1031D00024570208444A0208300803208C010320C7
:1031E0002857020838570208844902084457020841
:1031F000505702089005FA0B40420F0007F58873FC
:10320000A3F580731B68052B1CD1B74B01225A61B3
:103210007B69013318460AF05BFF03461A46B24B3E
:10322000DA617B69033318460AF052FF03461A46F7
:10323000AD4B1A62FEF704FD0121AC480AF0F8FC20
:1032400000F08ABE0121AA480AF0F2FC00F084BE18
:103250007B691B7887F82030A64B1B79DAB207F11F
:1032600020030133194610460AF062FE0D2387F849
:10327000233007F12003042118460AF0D9FC00F09E
:103280006BBE07F58873A3F580731B68022B42D1D0
:103290007B6901331B78303B032B37D801A252F8EE
:1032A00023F000BFB5320008CB320008E13200083D
:1032B000F73200088F4B0022DA628E4B00225A64EC
:1032C00001218A480AF0B4FC2BE08A4B0122DA6221
:1032D000884B01225A64012184480AF0A9FC20E0AD
:1032E000844B0222DA62834B02225A6401217F4816
:1032F0000AF09EFC15E07F4B0322DA627D4B03222D
:103300005A64012179480AF093FC0AE001217848C7
:103310000AF08EFC05E0012175480AF089FC00F0F6
:103320001BBE00F019BE07F58873A3F580731B68F8
:10333000042B0FD17B69013318460AF015FF0346B1
:10334000C3F30A036B4A5363012168480AF070FC17
:1033500000F002BE07F58873A3F580731B68092B84
:103360000FD17B69013318460AF024FF034623F08E
:103370000043604AD36401215C480AF059FC00F024
:10338000EBBD01215A480AF053FC00F0E5BD07F5FA
:103390008873A3F580731B68042B0FD17B690133FD
:1033A00018460AF0E1FE0346C3F30A03514A936349
:1033B00001214E480AF03CFC00F0CEBD07F58873B1
:1033C000A3F580731B68092B0FD17B690133184665
:1033D0000AF0F0FE034623F00043464A136501213C
:1033E00042480AF025FC00F0B7BD012140480AF030
:1033F0001FFC00F0B1BD07F58873A3F580731B684F
:10340000022B11D17B6901331B78302B03D13A4B4E
:103410000022DA7002E0384B0122DA7001213348D1
:103420000AF006FC00F098BD012131480AF000FCCA
:1034300000F092BDFEF704FC01212C480AF0F8FBD5
:1034400000F08ABD07F58873A3F580731B68022B13
:1034500011D17B6901331B78302B03D122480CF04A
:103460001AFD02E020480CF0F5FC01211F480AF08B
:10347000DFFB00F071BD01211D480AF0D9FB00F00F
:103480006BBD07F58873A3F580731B68032B06D00B
:1034900007F58873A3F580731B68052B1ED17B6924
:1034A000013318460AF014FE03461A460E4B9A6181
:1034B00007F58873A3F580731B68052B08D17B691A
:1034C000033318460AF004FE03461A46064B9A6276
:1034D000012106480AF0ACFB00F03EBD0121044882
:1034E0000AF0A6FB00F038BD30080320444A020869
:1034F00024570208000003208C01032007F588737D
:10350000A3F580731B68022B11D17B6901331B78F3
:10351000302B03D1B64B00221A7402E0B44B0122C7
:103520001A740121B3480AF083FB00F015BD012194
:10353000B1480AF07DFB00F00FBD07F58873A3F5D5
:1035400080731B68022B1CD17B6901331B78302BE5
:1035500003D1A74B00229A600DE07B6901331B78F1
:10356000312B04D1A24B4FF480729A6003E0A04B40
:103570004FF440729A6001219E480AF059FB00F016
:10358000EBBC01219C480AF053FB00F0E5BC07F5B9
:103590008873A3F580731B68022B11D17B690133FB
:1035A0001B78302B03D1954B00225A7102E0934BCC
:1035B00001225A7101218F480AF03AFB00F0CCBC7D
:1035C00001218D480AF034FB00F0C6BC07F5887372
:1035D000A3F580731B68022B16D17B6901331B781E
:1035E000302B03D1854B00221A7107E07B69013330
:1035F0001B78312B02D1814B01221A7101217D48A8
:103600000AF016FB00F0A8BC01217B480AF010FB71
:1036100000F0A2BC07F58873A3F580731B68012B2B
:1036200007D1012387F80D3175480AF049FB00F0F6
:1036300093BC012170480AF0FBFA00F08DBC07F53D
:103640008873A3F580731B68022B16D17B69013345
:103650001B78302B03D1002002F066FE07E07B6967
:1036600001331B78312B02D1012002F05DFE0121D4
:1036700060480AF0DDFA00F06FBC01215E480AF0F4
:10368000D7FA00F069BC07F58873A3F580731B684F
:10369000092B20D17B69013318460AF035FD03461A
:1036A0001A46534B5A617B69053318460AF010FDE0
:1036B00003461A464E4BDA617B69073318460AF017
:1036C00007FD03461A464A4B1A62012149480AF08F
:1036D000AFFA00F041BC012147480AF0A9FA00F016
:1036E0003BBC07F58873A3F580731B68072B20D1BB
:1036F0007B69013318460AF0EBFC03461A463C4B43
:103700005A627B69033318460AF0E2FC03461A4604
:10371000374BDA627B69053318460AF0D9FC034659
:103720001A46334B1A63012132480AF081FA00F03D
:1037300013BC012130480AF07BFA00F00DBC7B6914
:103740001B7887F8203007F033FD03461A4607F14F
:1037500020030133194610460AF0EAFB0D2387F8CF
:10376000233007F12003042118460AF061FAF3E33D
:103770007B691B7887F8203007F02CFD024607F1A3
:1037800020030133194610460AF022FB0D2387F867
:10379000293007F120030A2118460AF049FADBE331
:1037A000162118480AF044FAD6E3012111480AF01C
:1037B0003FFA0F4B0122DA60104B01221A70FEF71C
:1037C0003FFAC9E307F16403194609480CF068FDA4
:1037D00007F15403194606480CF0B2FD07F16402E4
:1037E00007F154031146184602F038FDB4E300BF58
:1037F00030080320444A0208245702088C010320A1
:103800005457020884570208BA480AF059FA40216E
:10381000B9480CF0BAFD034618460AF079FAB648E2
:103820000CF0D1FD034618460AF072FAB34B1B6840
:1038300018461CF059F8034618460AF069FAAF4BCF
:103840001B6818461CF07AF8034618460AF060FA1E
:10385000AB4B1B6818461CF047F8034618460AF0A5
:1038600057FAA74B1B6818461CF068F80346184621
:103870000AF04EFAA3480AF023FA6DE3A24802F0D8
:10388000BFFC69E3A1480AF03AFD0346013307F59E
:103890008872A2F5807212689A421ED17B695C1C04
:1038A0009A480AF02CFD03461A46984920461FF014
:1038B00078FF0346002B10D1012192480AF0B8F995
:1038C000C8201BF014F904F023FC0346002B02D19E
:1038D00004F0A4FC01E020F0E7FF01218C480AF08D
:1038E000A7F939E307F58873A3F580731B68022BEA
:1038F00040F084807B6901331B78422B09D07B69BF
:1039000001331B78432B04D07B6901331B78442B94
:103910006FD1804B00229A707E4B00221A704FF4B8
:103920008013C7F8E4300023C7F8DC304FF40013ED
:10393000C7F8E8300023C7F8D43040F28113C7F845
:10394000D030002387F801313CE0002003F090F8EC
:10395000FEF7B4FAFEF774F964201BF0C8F87B692F
:1039600001331B780121184603F052F87B690133BB
:103970001B780121184603F01BF897F801315A1CF7
:1039800013469B0013449B0018461BF0B0F802E05E
:103990000A201BF0ACF807F1900207F1D0031146A2
:1039A0001846FEF711FA0346022BF1D032201BF025
:1039B0009EF8554B5B69002B09D197F80131013313
:1039C00087F8013197F80131132BBED900E000BF11
:1039D0004D4B5B69002B04D101214D480AF028F9B9
:1039E00011E04C4B01221A70012146480AF020F9DF
:1039F00009E0012146480AF01BF9ADE201214448E3
:103A00000AF016F9A8E2A7E207F58873A3F5807318
:103A10001B68022B10D17B6901331B78302B03D13B
:103A2000002003F025F802E0012003F021F8012135
:103A300034480AF0FDF88FE2012135480AF0F8F821
:103A40008AE207F58873A3F580731B68032B2CD1DA
:103A50007B6901331B78422B09D07B6901331B78CA
:103A6000432B04D07B6901331B78442B18D17B692D
:103A700002331B78302B07D17B6901331B7800217F
:103A8000184602F095FF06E07B6901331B7801219F
:103A9000184602F08DFF01211A480AF0C9F85BE2CE
:103AA00001211B480AF0C4F856E2012118480AF027
:103AB000BFF851E207F58873A3F580731B68012BEB
:103AC00012D101210F480AF0B3F8134802F03CFC70
:103AD000002002F0CDFF002002F0E2FF64201BF086
:103AE00006F80BF004FB37E2012109480AF0A0F8C0
:103AF00032E200BF9C57020830080320CC2C032080
:103B0000D02C0320444A020800000320A0570208DA
:103B1000245702088C010320A457020807F5887374
:103B2000A3F580731B68022B1ED17B6901331B78C0
:103B3000302B06D1A84B01221A70A84B00229A7094
:103B40000DE0A74B0022DA60A44B00221A70FEF7AA
:103B500077F8A24B01229A709F4B00221A70012124
:103B6000A0480AF065F8F7E101219F480AF060F8E3
:103B7000F2E11CF0D5FD0346102B03D99B480AF057
:103B80009FF8E9E19A480AF09BF81CF0C9FD01464C
:103B900007F11C031A4697481CF0CEFD96480AF020
:103BA0008FF8FB690022BB60FA6007F120031A4618
:103BB000D7E902010AF0F2F907F1200318460AF0EA
:103BC0007FF88E480AF07CF8002387F8FF30E3E0A6
:103BD000FB69002B12D097F8FF2086491346DB00C3
:103BE00013449B000B4418331B68642203FB02F24E
:103BF000FB69B2FBF3F387F8003102E0002387F89A
:103C0000003197F8FF3000229846914607F12003D3
:103C10001A46404649460AF0C1F907F12003184602
:103C20000AF04EF876480AF04BF897F8FF207149F1
:103C30001346DB0013449B000B4404331B681846F7
:103C40000AF03EF897F8FF206A491346DB00134458
:103C50009B000B4404331B681846FCF7FBFA034631
:103C6000072B03D867480AF02BF802E066480AF0F1
:103C700027F8664BC7F8F83097F8FF205D491346E0
:103C8000DB0013449B000B440C331B78052B27D817
:103C900001A252F823F000BFB13C0008B93C000873
:103CA000C13C0008C93C0008D13C0008D93C0008D0
:103CB000574BC7F8F83013E0564BC7F8F8300FE011
:103CC000554BC7F8F8300BE0544BC7F8F83007E015
:103CD000534BC7F8F83003E0524BC7F8F83000BF39
:103CE000D7F8F80009F0ECFF97F8003100229A4667
:103CF000934607F120031A46504659460AF04EF9FA
:103D0000414809F0DDFF07F12003184609F0D8FF0C
:103D1000454809F0D5FF97F8FF2036491346DB00E8
:103D200013449B000B4420331B889BB200221D468A
:103D3000164607F120031A46284631460AF02EF9A6
:103D4000314809F0BDFF07F12003184609F0B8FF1C
:103D50002D4809F0B5FF97F8FF2026491346DB00F0
:103D600013449B000B4418331B6800223B607A60AD
:103D700007F120031A46D7E900010AF00FF907F10D
:103D80002003184609F09CFF164809F099FF97F8A0
:103D9000FF30013387F8FF3097F8FF401CF0C0FC7C
:103DA00003469C42FFF414AFD6E07B691B7887F88A
:103DB00020301E4B1A6807F12003013319461046C4
:103DC0000AF006F80D2387F8293007F120030A21AD
:103DD000184609F02DFFBFE05E0003208C01032090
:103DE00030080320444A020824570208B457020846
:103DF000C45702087874012010580208305802088D
:103E000044580208485802084C5802085058020802
:103E1000585802086058020868580208705802088A
:103E20007858020880580208885802089005FA0B52
:103E300007F58873A3F580731B68032B53D907F527
:103E40008873A3F580731B68043B5B08A7F8F63002
:103E50007B69013318460AF087F903461A46B7F81A
:103E6000F63093423AD17B690433B7F8F62019460D
:103E70003D480AF0E9F81CF043FCB7F8F62007F1DA
:103E80001A030093394B384909F0C8FB7A8B7B69D8
:103E900001331946104609F0EDFF7B6904337A8B34
:103EA0003249184609F05CFF7B8B02335B007A696C
:103EB00013440D221A707B8B5B0005331946786919
:103EC00009F0B6FE1CF01CFCB7F8F62007F11A0347
:103ED0000093264B244909F031FE3DE0012124489E
:103EE00009F0A6FE38E00121214809F0A1FE33E0E7
:103EF0000121204809F09CFE2EE01F4809F0E0FE59
:103F000001211C4809F094FE26E007F58873A3F50B
:103F100080731B68062B15D17B6901330522174975
:103F200018461FF026FC0346002B07D1144809F061
:103F3000C7FE01210F4809F07BFE0DE0114809F092
:103F4000BFFE09E001210A4809F072FE04E00121E8
:103F5000074809F06DFE00BF97F80D31184607F5C8
:103F60008A77BD46BDE8F08F70540120746401204B
:103F700024570208444A02088C580208A058020834
:103F8000A8580208C058020880B483B000AF0346A6
:103F90000A46FB711346BB71BB79002B0DD0FB7930
:103FA000012202FA03F31AB20E4B1B881BB2134311
:103FB0001BB29AB20B4B1A800EE0FB79012202FA77
:103FC00003F31BB2DB431AB2064B1B881BB2134030
:103FD0001BB29AB2034B1A8000BF0C37BD465DF886
:103FE000047B7047362D032080B483B000AF0346B6
:103FF000FB71084B1B881A46FB7942FA03F3DBB2CC
:1040000003F00103DBB218460C37BD465DF8047BB4
:10401000704700BF362D032080B489B000AFF86030
:10402000B9601346FB711E4B1B781A46BB6802FB36
:1040300003F3FA681344FB61FB69DB08BB61FB69AE
:10404000DBB203F00703FB75FB79002B10D0154A98
:10405000BB6913441A78FB7D012101FA03F3DBB23B
:104060001343D9B20F4ABB6913440A461A7011E0D0
:104070000C4ABB6913441A78FB7D012101FA03F352
:10408000DBB2DB43DBB21340D9B2064ABB6913444F
:104090000A461A7000BF2437BD465DF8047B70479E
:1040A00059000320B886012080B487B000AF786043
:1040B0003960114B1B781A463B6802FB03F37A68A0
:1040C00013447B617B69DB083B617B69DBB203F0F6
:1040D0000703FB73094A3B6913441B781A46FB7BB1
:1040E00022FA03F3DBB203F00103DBB218461C37FC
:1040F000BD465DF8047B704759000320B886012057
:10410000B0B586B000AF0346FB7100237B6135E09C
:10411000FB793B6113E07C69FB793A69D31A1D4650
:104120007B693A6911461846FFF7BEFF03461A46F7
:1041300029462046FFF770FF3B6901333B61154B71
:104140001B781A463B699342E5DB124B1B781A46F3
:10415000FB79D31AFB6008E07B69F96800221846F6
:10416000FFF75AFFFB680133FB600B4B1B781A46C5
:10417000FB689342F0DB7B6901337B61064B1B7864
:104180001A467B699342C3DB00BF00BF1837BD46A8
:10419000B0BD00BF5A00032059000320B0B586B05F
:1041A00000AF0346FB7100237B6131E01E4B1B789F
:1041B0001A46FB79D31A013B3B6113E07C69FA791B
:1041C0003B6913441D467B693A6911461846FFF75F
:1041D0006BFF03461A4629462046FFF71DFF3B6941
:1041E000013B3B613B69002BE8DA0023FB6008E000
:1041F0007B69F96800221846FFF70EFFFB68013360
:10420000FB60FB79FA689A42F2DB7B6901337B61E0
:10421000064B1B781A467B699342C7DB00BF00BF81
:104220001837BD46B0BD00BF5A0003205900032017
:10423000B0B584B000AF0423FB73264B1B78002B72
:1042400001D10223FB730023BB6037E000237B60B6
:1042500013E0FA7B7B6813441D46BC687B68BA6830
:1042600011461846FFF720FF03461A462146284606
:10427000FFF7D2FE7B6801337B60174B1B781A4631
:10428000FB7BD31A7A689A42E3DB134B1B781A46FE
:10429000FB7BD31A3B6008E03B68B96800221846F4
:1042A000FFF7BAFE3B6801333B600B4B1B781A46A5
:1042B0003B689342F0DBBB680133BB60074B1B7864
:1042C0001A46BB689342C1DB00BF00BF1037BD4632
:1042D000B0BD00BF3C2D0320590003205A0003202D
:1042E000B0B584B000AF0423FB73224B1B78002BC6
:1042F00001D10223FB730023BB602FE01E4B1B7810
:10430000013B7B6013E0FB7B7A68D31A1D46BC68D7
:104310007B68BA6811461846FFF7C6FE03461A4680
:1043200021462846FFF778FE7B68013B7B60FB7BDC
:104330007A689A42E7DA00233B6008E03B68B96894
:1043400000221846FFF768FE3B6801333B60FB7BA9
:104350003A689A42F2DBBB680133BB60074B1B78BB
:104360001A46BB689342C9DB00BF00BF1037BD4689
:10437000B0BD00BF3C2D0320590003205A0003208C
:1043800080B483B000AF03460A46FB801346BB806F
:10439000054AFB881380054ABB88138000BF0C3791
:1043A000BD465DF8047B70475C0003203E2D032072
:1043B00080B489B000AF78600B467B804C4B4FF4E3
:1043C00000721A804B4B00221A804B4B00221A803D
:1043D0004A4B00221A804A4B00221A70494B002295
:1043E0001A700023FB7706E0FB7F474A0021D15477
:1043F000FB7F0133FB77FB7F0F2BF5D90023BB61DC
:1044000009E0BB694149BA690A441178404AD1546C
:10441000BB690133BB61BB69EF2BF2D90023FB827F
:104420000BE0FB8A7A681A44FB8A03F50073117863
:10443000374AD154FB8A0133FB82FA8A7B889A423D
:10444000EFD300237B7506E07B7D324A0021D154F7
:104450007B7D01337B757B7D072BF5D97B8803F54D
:1044600000737B8206E07B8A294A0021D1547B8A33
:1044700001337B827B8AB3F5805FF4D3264B002225
:104480001A700023FB6007E0244AFB6813440022F3
:104490001A70FB680133FB60FB68B3F5806FF3D3E0
:1044A0000023BB6008E01E4B19881E4ABB6822F837
:1044B0001310BB680133BB60BB68B3F5106FF2D358
:1044C000194B03221A70194B00221A70184B18222C
:1044D0001A80184B2E221A80174B40221A70174B45
:1044E00020221A7000BF2437BD465DF8047B704758
:1044F000F22C0320D42C0320F02C0320342D032095
:10450000382D0320392D0320D82C0320686F020892
:10451000B8760120E82C0320402D0320B886012026
:104520003E2D0320B88A0120580003203C2D032093
:104530005400032056000320590003205A00032092
:1045400080B400AF034B1B781846BD465DF8047B72
:10455000704700BF412D032080B483B000AF786066
:10456000054A7B681360054B01221A7000BF0C37A7
:10457000BD465DF8047B7047442D0320412D032088
:1045800080B400AF034B00221A7000BFBD465DF837
:10459000047B7047412D0320B0B58EB002AF786028
:1045A000A54B00221A80A54B93F82030DBB2023BCA
:1045B000042B26D801A252F823F000BFD1450008F1
:1045C000DB450008E5450008EF450008F94500080F
:1045D00001210520FFF7D8FC13E001210820FFF797
:1045E000D3FC0EE001210920FFF7CEFC09E00121F8
:1045F0000720FFF7C9FC04E001210620FFF7C4FCF7
:1046000000BF8F4B1B687A68D31A102B16D98D4BBD
:104610001B78002B05D08B4B1B78013BDAB2894B02
:104620001A70894B1B78002B05D0874B1B78013BF8
:10463000DAB2854B1A70824A7B681360834B1B8801
:1046400040F6FE72934204D8814B1B88B3F5805F1D
:1046500004D3804B00221A7001F047B97B4B1B88B2
:104660001A467D4B9B5C1BB21B021AB2774B1B8810
:1046700001337949CB5C1BB213431BB29AB2774B1F
:104680001A80764B1B8803F47043B3F5704F00F02B
:10469000BE86B3F5704F01F32581B3F5604F00F08E
:1046A0007386B3F5604F01F31D81B3F5504F00F0F1
:1046B0005484B3F5504F01F31581B3F5404F00F02A
:1046C0003384B3F5404F01F30D81B3F5304F00F063
:1046D0001E84B3F5304F01F30581B3F5204F00F090
:1046E0000784B3F5204F01F3FD80B3F5104F00F0C0
:1046F000E183B3F5104F01F3F580B3F5004F00F0FF
:104700004482B3F5004F01F3ED80B3F5E04F00F0C4
:104710002182B3F5E04F01F3E580B3F5C04F00F01F
:104720000782B3F5C04F01F3DD80B3F5A04F00F071
:10473000E181B3F5A04F01F3D580B3F5804F00F0D0
:104740009F81B3F5804F01F3CD80B3F5405F00F05A
:104750007C81B3F5405F01F3C580B3F5005F00F0E5
:104760005681B3F5005F01F3BD80002B05D0B3F592
:10477000805F00F0438101F0B5B8384B1B88DBB295
:10478000012B4FD0002B40F30681FF2B00F3038158
:10479000E02BC0F20081E03B1F2B00F2FC8001A265
:1047A00052F823F033480008974900089749000859
:1047B0009749000897490008974900089749000859
:1047C0009749000897490008974900089749000849
:1047D000974900089749000897490008BB48000816
:1047E0009749000897490008974900089749000829
:1047F0009749000897490008974900089749000819
:104800009749000897490008974900089749000808
:10481000F3480008094900081F4900082749000813
:104820005F490008094B1B8802339AB2074B1A8074
:10483000E2E00023BB621BE0362D03206000032072
:10484000442D0320392D0320382D0320F22C032082
:10485000F02C0320412D0320B8760120D42C032016
:10486000954ABB6A134400221A70BB6A0133BB62CB
:10487000BB6AB3F5806FF3D3904B1888904B1988BF
:10488000904B1B781A46904B1B7812FB03F39AB29D
:104890008E4B1B781C468C4B1B7814FB03F39CB28D
:1048A0008B4B1B880093234606F0FAF9894B1B8833
:1048B00002339AB2874B1A809EE0874B1B88013BDC
:1048C0009AB2854B1A80844B1B881F2B02D9834BCD
:1048D00000221A70804B1B881A46814B33F8122035
:1048E0007C4B1A807B4B1B8802339AB2794B1A801F
:1048F00082E0FFF7F5FC01F009F8764B1B880233E4
:104900009AB2744B1A8077E0FFF792FC00F0FEFF3A
:10491000704B1B8802339AB26E4B1A806CE06F4B5F
:1049200000221A7068E0684B03221A706D4B002257
:104930001A70624B18221A80614B2E221A80614B2A
:1049400040221A70614B20221A70624B1B8802337E
:104950009AB2604B1A80644B00221A704CE05A4B9A
:1049600001221A70554B38221A80554B40221A806A
:10497000544B80221A70554B40221A70594B012219
:104980001A70544B1B8802339AB2524B1A80564B02
:1049900000221A7030E0554B1B8803F0F003C02B47
:1049A00013D0D02B23D1514B1B88DBB203F00F0364
:1049B000DBB21846FFF7A4FB00F0A8FF454B1B88AD
:1049C00002339AB2434B1A8016E0484B1B88DBB285
:1049D00003F00F03DBB21846FFF7E0FB00F096FF91
:1049E0003C4B1B8802339AB23A4B1A8004E03B4B93
:1049F00000221A7000F079BF00F077BF3B4B1B8894
:104A0000C3F30B039AB2334B1A8000F06EBF324BE4
:104A10001B881A462F4B1988314B23F812102E4B46
:104A20001B8801339AB22C4B1A802B4B1B881F2BEF
:104A300002D92A4B00221A702C4B1B88C3F30B039C
:104A40009AB2244B1A8000F050BF284B1B881B12CF
:104A500003F00F03264AD35C1A46244B1B88DBB2B3
:104A60009A4205D11B4B1B8802339AB2194B1A800C
:104A7000184B1B8802339AB2164B1A8000F035BFD0
:104A80001A4B1B881B1203F00F03194AD35C1A46FA
:104A9000164B1B88DBB29A4205D00E4B1B880233A3
:104AA0009AB20C4B1A800B4B1B8802339AB2094BFB
:104AB0001A8000F01ABF00BFB886012054000320FE
:104AC0005600032059000320580003205A000320F9
:104AD0003E2D0320F22C0320342D0320412D0320F2
:104AE000F42C03203C2D0320402D0320D42C032044
:104AF000D82C0320A04B1B881B1203F00F039F4AE6
:104B0000D25C9D4B1B881B1103F00F039B49CB5CB0
:104B10009A4205D19A4B1B8802339AB2984B1A805D
:104B2000974B1B8802339AB2954B1A8000F0DDBE7A
:104B3000914B1A88904B1B881B1203F00F03D1B2C4
:104B40008E4AD1548E4B1B8802339AB28C4B1A80FA
:104B500000F0CBBE884B1B881B1203F00F03874A63
:104B6000D15C854B1B88DAB2834B1B881B1203F088
:104B70000F030A44D1B2814AD154814B1B880233BE
:104B80009AB27F4B1A8000F0B0BE7B4B1B881B1281
:104B9000DBB203F00F037B72774B1B881B11DBB278
:104BA00003F00F033B72744B1B8803F00F030E2BB3
:104BB00000F2798101A252F823F000BFF94B0008FE
:104BC000234C00085F4C00089B4C0008D74C0008A1
:104BD0004F4D0008CF4D0008354E0008A74E000885
:104BE000A74E0008A74E0008A74E0008A74E0008D1
:104BF000A74E0008034E00085F4B1B881B1103F0F3
:104C00000F025D4B1B881B1203F00F035B49895C8D
:104C10005A4AD1545A4B1B8802339AB2584B1A80C5
:104C200046E1554B1B881B1203F00F03534AD15C1E
:104C3000514B1B881B1103F00F03504AD25C4E4BA3
:104C40001B881B1203F00F030A43D1B24B4AD15405
:104C50004B4B1B8802339AB2494B1A8028E1464BD2
:104C60001B881B1203F00F03444AD15C424B1B8884
:104C70001B1103F00F03414AD25C3F4B1B881B12F0
:104C800003F00F030A40D1B23C4AD1543C4B1B887D
:104C900002339AB23A4B1A800AE1374B1B881B1237
:104CA00003F00F03354AD15C334B1B881B1103F013
:104CB0000F03324AD25C304B1B881B1203F00F03E8
:104CC0004A40D1B22D4AD1542D4B1B8802339AB29F
:104CD0002B4B1A80ECE0284B1B881B1103F00F03B1
:104CE000264AD35C1946244B1B881B1203F00F0382
:104CF000224AD35CC3F1FF03994203DD012387F805
:104D00002F3002E0002387F82F301B4B1B881B122B
:104D100003F00F03194AD15C174B1B881B1103F0DA
:104D20000F03164AD25C144B1B881B1203F00F03AF
:104D30000A44D1B2114AD154104A97F82F30D37394
:104D40000F4B1B8802339AB20D4B1A80B0E00A4B0E
:104D50001B881B1103F00F03084AD25C064B1B880B
:104D60001B1203F00F030549CB5C9A420AD90023BA
:104D700087F82F3009E000BFD42C0320D82C032063
:104D8000F22C0320012387F82F30A04B1B881B1225
:104D900003F00F039E4AD15C9C4B1B881B1103F050
:104DA0000F039B4AD25C994B1B881B1203F00F0325
:104DB0008A1AD1B2964AD154954A97F82F30D373B4
:104DC000944B1B8802339AB2924B1A8070E03B7A64
:104DD0008F4AD35C03F0010387F82F303B7A8C4A6B
:104DE000D25C7B7A5208D1B2894AD154884A97F86A
:104DF0002F30D373874B1B8802339AB2854B1A80AE
:104E000056E03B7A824AD35CDB0987F82F303B7A45
:104E10007F4AD25C7B7A5200D1B27D4AD1547C4A1F
:104E200097F82F30D3737B4B1B8802339AB2794BA0
:104E30001A803DE0754B1B881B1203F00F03744A68
:104E4000D25C724B1B881B1103F00F037049CB5CC3
:104E50009A4203D9002387F82F3002E0012387F814
:104E60002F306A4B1B881B1103F00F03684AD15C7B
:104E7000664B1B881B1203F00F03654AD25C634B21
:104E80001B881B1203F00F038A1AD1B2604AD15457
:104E90005F4A97F82F30D3735E4B1B8802339AB268
:104EA0005C4B1A8004E05C4B00221A7000F01DBDC0
:104EB00000F01BBD554B1B881B1203F00F03544A17
:104EC000D25C524B1B881B1103F00F035049CB5C83
:104ED0009A4205D04F4B1B8802339AB24D4B1A8031
:104EE0004C4B1B8802339AB24A4B1A8000F0FDBC2F
:104EF000464B1B88C3F30B039AB2484B1A80454BB1
:104F00001B8802339AB2434B1A8000F0EEBC3F4B31
:104F10001B88C3F30B039BB23D4A127813449AB229
:104F20003C4B1A8000F0E1BC06F042F903465AB24D
:104F3000364B1B885BB213405AB2344B1B881B1292
:104F400003F00F03D1B2324AD154324B1B880233E3
:104F50009AB2304B1A8000F0C8BC2C4B1B881B1235
:104F600003F00F032A4AD35C3B82284B1B881B119A
:104F700003F00F03264AD35CFB81244B1B8803F00C
:104F80000F03FB8400237B73082387F82330204B17
:104F90000022DA73224B1B78002B0BD1214B1B888C
:104FA00000936023C0222E21182005F079FE1C4BAF
:104FB00001221A70FB8C002B0ED11B4B1B78002B8F
:104FC00005D01023FB84102387F8233004E010233E
:104FD000FB84102387F8233080233B840023FB7756
:104FE0003A8A97F823301344104A1278934206DC29
:104FF000FA89FB8C13440E4A1278934201DD012397
:1050000000E000237B730023BB8373E1D42C0320D7
:10501000D82C0320F22C0320412D0320F02C032058
:10502000402D03203E2D03203C2D0320590003205A
:105030005A000320FB8C102B1AD14FF400433B8401
:10504000864B1B881A46BB8B5B001344844AD35C97
:105050001B02BB84814B1B881A46BB8B5B0013442D
:1050600001337F4AD35C1A46BB8C1343BB8409E0EF
:1050700080233B84794B1B881A46BB8B1344784AA8
:10508000D35CBB8400237B832AE1BA8C398C7B8B75
:1050900041FA03F31340002B01D0012300E0002369
:1050A0003B733B7B002B00F0AF800123FB773A8AF8
:1050B0007B8B13446B4A127893FBF2F101FB02F2F3
:1050C0009B1A1846FA89BB8B1344674A127893FBE4
:1050D000F2F101FB02F29B1A1946FEF7E5FF0346C7
:1050E000002B02D0614B0122DA733A8A7B8B134486
:1050F0005C4A127893FBF2F101FB02F29B1A1C4608
:10510000FA89BB8B1344584A127893FBF2F101FBE6
:1051100002F29B1A1D463A8A7B8B1344514A12783D
:1051200093FBF2F101FB02F29B1A1846FA89BB8B42
:1051300013444D4A127893FBF2F101FB02F29B1AE1
:105140001946FEF7B1FF03461A463B7B5340DBB2DC
:105150001A4629462046FEF75FFF7B7B002B53D083
:105160003A8A7B8B13443F4A127893FBF2F101FB9E
:1051700002F29B1A1846FA89BB8B13443A4A1278FA
:1051800093FBF2F101FB02F29B1A1946FEF78CFF2A
:105190000346002B02D1364B1B8801E0354B1B88A0
:1051A0007B813A8A7B8B13442E4A127893FBF2F16F
:1051B00001FB02F29B1A9BB22F4A127813FB02F3F7
:1051C0009AB22E4B1B88134498B2FA89BB8B1344B6
:1051D000254A127893FBF2F101FB02F29B1A9BB273
:1051E000254A127813FB02F39AB2254B1B8813440D
:1051F00099B2214B1B781A461F4B1B781C467B89A2
:105200000093234605F04CFD7B7B002B65D13A8A49
:105210007B8B1344134A127893FBF2F101FB02F2E9
:105220009B1A1846FA89BB8B13440F4A127893FBDA
:10523000F2F101FB02F29B1A1946FEF735FF034615
:10524000002B02D10A4B1B8801E00A4B1B887B8193
:1052500000237B763CE000233B7631E0F02C0320FA
:10526000B8760120590003205A000320D82C0320CF
:105270003E2D03205C00032058000320540003202F
:10528000560003207B8BAB4A127803FB02F27B7E35
:105290001A44BB8BA749097803FB01F13B7E0B4401
:1052A00097F82310A348007800FB01F101FB03F3FA
:1052B0001344A1497A8921F813203B7E01333B76C0
:1052C0009C4B1B783A7E9A42DCD37B7E01337B7603
:1052D000984B1B787A7E9A42BDD37B8B01337B83BC
:1052E00097F823309BB27A8B9A42FFF4CEAEBB8BF9
:1052F0000133BB83BA8BFB8C9A42FFF49BAEFB7FDE
:10530000002B3AD07B7B002B37D13B8A8B4A12781B
:1053100093FBF2F101FB02F29B1A9BB2854A1278D1
:1053200013FB02F39AB2864B1B88134498B2FB8995
:10533000844A127893FBF2F101FB02F29B1A9BB2B2
:105340007C4A127813FB02F39AB27F4B1B881344FA
:1053500099B2784B1B781A4697F823309BB212FB10
:1053600003F39AB2734B1B781C46FB8C13FB04F3BC
:105370009BB2714C009405F01CFD744B1B880233EA
:105380009AB2724B1A80B0E2714B1B88DBB29E2B33
:1053900002D0A12B1BD035E06D4B1B881B1203F0F4
:1053A0000F036C4AD35C1846FEF71EFE0346002B23
:1053B00006D0664B1B8804339AB2644B1A8025E0F2
:1053C000624B1B8802339AB2604B1A801EE0604B1E
:1053D0001B881B1203F00F035E4AD35C1846FEF7CE
:1053E00003FE0346002B06D1584B1B8804339AB2A8
:1053F000564B1A800AE0554B1B8802339AB2534B26
:105400001A8003E0544B00221A706EE26DE2504B9A
:105410001B88DBB2852B00F04582852B00F35D8273
:10542000752B00F02482752B00F35782652B00F05A
:10543000CA81652B00F35182332B63DC072BC0F24A
:105440004C82073B2C2B00F2488201A252F823F039
:105450000D550008DB580008DB5800082D550008E2
:10546000DB580008DB580008DB580008DB58000850
:10547000DB580008DB580008DB580008DB58000840
:10548000DB580008DB580008D3550008DB5800083B
:10549000DB580008F3550008DB580008DB5800080B
:1054A000DB580008DB580008DB58000813560008DA
:1054B000DB580008DB580008DB580008DB58000800
:1054C000DB580008DB580008DB580008DB580008F0
:1054D000DB580008DB5800083D560008DB58000880
:1054E000DB580008DB580008DB580008DB580008D0
:1054F000DB58000865560008DB580008DB58000838
:1055000093560008552B00F02081E6E1104B1B88D4
:105510001B1203F00F03114A11780E4AD1540B4BA2
:105520001B8802339AB2094B1A80DAE10023FB751B
:105530004BE000BF58000320B88A01205900032027
:10554000540003205A00032056000320F22C0320AD
:10555000D42C0320D82C0320412D0320382D0320E8
:10556000FB7D1846FEF740FD0346002B0DD0FB7D6A
:10557000012202FA03F31AB29C4B1B881BB213439D
:105580001BB29AB2994B1A801CE0984B1B881A46A2
:10559000FB7D42FA03F303F00103002B12D0944B7E
:1055A0001B881B1203F00F039249FA7DCA548F4BDC
:1055B00000221A80904B1B8802339AB28E4B1A80BD
:1055C00000BF8EE1FB7D0133FB75FB7D0F2BC7D93F
:1055D00087E1874B1B881B1203F00F03854AD25CBF
:1055E000864B1A70844B1B8802339AB2824B1A8006
:1055F00077E17F4B1B881B1203F00F037D4AD25CBF
:105600007F4B1A707C4B1B8802339AB27A4B1A80FC
:1056100067E1774B1B881B1203F00F03754AD35CBD
:105620001A46784B1B8813449AB2764B1A80724BF9
:105630001B8802339AB2704B1A8052E16C4B1B8864
:105640001B1203F00F036B4AD35C1A4692001344FB
:105650009AB26C4B1A80684B1B8802339AB2664B25
:105660001A803EE1624B1B881B1203F00F03614A54
:10567000D35C1A46920013445B009BB250339AB23B
:10568000604B1A805C4B1B8802339AB25A4B1A80CB
:1056900027E15C4B1B880233B3F5805F03D35A4B81
:1056A00000221A701DE1524B1B881B1203F00F03DE
:1056B000504AD35C534A12881146544AA2FB032332
:1056C0005B09DAB2524B5A54494B1B881B1203F048
:1056D0000F03484AD35C4F4AA2FB0323DB08DAB22C
:1056E000484B1B88581C4B4BA3FB0213D9080B4695
:1056F0009B000B445B00D31ADAB2454B1A543C4B67
:105700001B881B1203F00F033A4AD35C3F4AA2FBEB
:1057100003125209642101FB02F29B1ADAB2394BDF
:105720001B88981C3B4BA3FB0213D9080B469B001C
:105730000B445B00D31ADAB2354B1A542E4B1B883C
:1057400002339AB22C4B1A80CBE02E4B1B881A46A0
:10575000274B1B881B1203F00F031344B3F5805F24
:1057600003D3294B00221A70BBE00023BB750CE069
:10577000BA7D244B1B881946BB7D0B441D49895CAF
:10578000234AD154BB7D0133BB75BA7D184B1B88AE
:105790001B1203F00F039A42EADD154B1B881B1204
:1057A0009BB203F00F039AB2164B1B8813449BB2B3
:1057B00001339AB2134B1A800F4B1B8802339AB2F3
:1057C0000D4B1A808DE00F4B1B881A46084B1B8827
:1057D0001B1203F00F031344B3F5805F03D30A4B8E
:1057E00000221A707DE000237B7522E03A2D032011
:1057F000D42C0320D82C0320F22C0320382D032096
:10580000392D0320F02C0320412D03201F85EB515F
:10581000B8760120CDCCCCCC354B1B881A467B7D8D
:105820001A447B7D3349895C334AD1547B7D0133F3
:105830007B757A7D314B1B881B1203F00F039A4254
:10584000EADD2E4B1B881B129BB203F00F039AB2AA
:10585000274B1B8813449BB201339AB2244B1A8006
:10586000274B1B8802339AB2254B1A8039E000235C
:105870003B7508E03A7D3B7D1F49895C214AD15444
:105880003B7D01333B753A7D1C4B1B881B1203F09B
:105890000F039A42EEDD1A4B1B8802339AB2184B63
:1058A0001A801EE00023FB7408E0FA7CFB7C15499B
:1058B000895C114AD154FB7C0133FB74FA7C0F4B99
:1058C0001B881B1203F00F039A42EEDD0C4B1B8862
:1058D00002339AB20A4B1A8003E00B4B00221A7073
:1058E00003E002E0084B00221A703037BD46B0BD1D
:1058F000F02C0320B8760120D82C0320D42C0320D0
:10590000F22C0320E82C0320412D032090B585B014
:1059100002AF0023FB804FE00023BB8043E0FB8805
:10592000BA8811461846FEF7BFFB0346002B02D18A
:10593000324B1B8801E0324B1B883B800023FB70FD
:1059400029E00023BB701EE0FB882E4A127803FB7F
:1059500002F2FB781A44BB882A49097803FB01F15B
:10596000BB780B442849097808462649097800FB8A
:1059700001F101FB03F3134424493A8821F8132071
:10598000BB780133BB701F4B1B78BA789A42DBD3CC
:10599000FB780133FB701B4B1B78FA789A42D0D30B
:1059A000BB880133BB801A4B1B781A46BB889342D5
:1059B000B5D3FB880133FB80134B1B781A46FB8859
:1059C0009342A9D3134B1888134B19880D4B1B789E
:1059D0001A460D4B1B7812FB03F39AB2094B1B7846
:1059E0001C460B4B1B7814FB03F39BB2074C009433
:1059F00005F0DFF900BF0C37BD4690BD3E2D0320FA
:105A00005C0003205800032059000320B88A0120BD
:105A10005A000320540003205600032080B483B0B2
:105A200000AF7860044A7B68136000BF0C37BD4646
:105A30005DF8047B704700BF482D032080B485B01B
:105A400000AF786039607B68FB604FF0FF33BB606C
:105A50000EE0FB685A1CFA601B781A46BB6853407C
:105A6000DBB20A4A52F82320BB681B0A5340BB60D2
:105A70003B685A1E3A60002BEBD1BB68DB431846EB
:105A80001437BD465DF8047B704700BF28900208BC
:105A900080B483B000AF786000BF0C37BD465DF8BE
:105AA000047B704780B483B000AF786000BF0C37D0
:105AB000BD465DF8047B704780B483B000AF78606A
:105AC000044B00221A6000BF0C37BD465DF8047B12
:105AD000704700BF4C2D032080B5A8B002AFF8601E
