:020000040800F2
:1000000000000420FD890008C1860008C986000898
:10001000D1860008D9860008E18600084D8A0008CC
:10002000000000000000000000000000D1DB01081B
:10003000E98600080000000061DB0108E1A4010876
:100040004D8A00084D8A00084D8A00084D8A000834
:100050004D8A00084D8A00084D8A00084D8A000824
:100060004D8A00084D8A00084D8A00084D8A000814
:100070004D8A00084D8A00084D8A00084D8A000804
:100080004D8A00084D8A00084D8A00084D8A0008F4
:100090004D8A00084D8A00084D8A00084D8A0008E4
:1000A0004D8A00084D8A00084D8A00084D8A0008D4
:1000B0004D8A0008F98600080D8700084D8A00085F
:1000C0004D8A00084D8A00084D8A00084D8A0008B4
:1000D0004D8A00084D8A00084D8A000821870008D3
:1000E000358700084D8A0008498700084D8A0008B6
:1000F0004D8A00084D8A00084D8A00084D8A000884
:100100004D8A00085D870008718700084D8A000845
:100110004D8A00084D8A00084D8A00084D8A000863
:100120004D8A000885870008998700084D8A0008D5
:10013000AD8700084D8A00084D8A00084D8A0008E6
:100140004D8A00084D8A0008C18700084D8A0008C2
:100150004D8A00084D8A00084D8A00084D8A000823
:100160004D8A0008D58700084D8A00084D8A00088E
:100170004D8A0008000000004D8A000800000000C1
:10018000E98700084D8A00084D8A00084D8A00085A
:100190004D8A00084D8A00084D8A00084D8A0008E3
:1001A0004D8A00084D8A00084D8A00084D8A0008D3
:1001B0004D8A000800000000FD8700084D8A0008F5
:1001C0004D8A0008000000004D8A00084D8A000892
:1001D0004D8A00084D8A00084D8A00084D8A0008A3
:1001E0004D8A00084D8A00084D8A00084D8A000893
:0401F000000000000B
:1002000010B5054C237833B9044B13B10448AFF350
:1002100000800123237010BDA00303200000000014
:10022000B4ED010808B5034B1BB103490348AFF314
:10023000008008BD00000000A4030320B4ED010805
:1002400010F8012B11F8013B012A28BF9A42F7D080
:10025000D01A704753B94AB9002908BF00281CBFFB
:100260004FF0FF314FF0FF3000F0B0B9ADF1080CA6
:100270006DE904CE00F006F8DDF804E0DDE90223C4
:1002800004B070472DE9F04F099D884604468E461C
:10029000002B4AD18A4217465FD9B2FA82F64EB194
:1002A000C6F1200301FA06FEB740B44020FA03F37A
:1002B00043EA0E0E4FEA17481FFA87FC230CBEFBD9
:1002C000F8F108FB11EE01FB0CF243EA0E439A42EF
:1002D00007D9FB1801F1FF3002D29A4200F2548193
:1002E00001469B1AA2B2B3FBF8F008FB103300FBE7
:1002F0000CFC42EA034294450BD9BA1800F1FF33D3
:100300002CBF01240024944502D9002C00F03F8129
:10031000184640EA0140A2EB0C0200211DB1F24058
:100320000023C5E90023BDE8F08F8B4205D90DB14C
:10033000C5E9000100210846F5E7B3FA83F1002979
:100340004ED14345C0F01281824240F20F810846EF
:10035000002DE8D0C5E9004EE5E7002A00F0AC80AA
:10036000B2FA82F6002E40F0BB808B1A4FEA124E92
:10037000BCB20121020C80B2B3FBFEFC0EFB1C33AD
:1003800042EA034304FB0CF29A420ED9FB180CF12B
:10039000FF382CBF4FF001094FF000099A4203D9F2
:1003A000B9F1000F00F0EC80C4469B1AB3FBFEF8D5
:1003B0000EFB183304FB08F440EA034294420BD9C5
:1003C000BA1808F1FF332CBF01200020944202D953
:1003D000002800F0D1809846121B48EA0C409DE7A7
:1003E000C1F120068B4008FA01F400FA01F922FA63
:1003F00006F728FA06F88A401F4320FA06F3380C5D
:1004000023431FFA87FC1C0CB8FBF0FE00FB1E8880
:1004100044EA08440EFB0CF8A0450ED93C190EF135
:10042000FF3A2CBF4FF0010B4FF0000BA04503D952
:10043000BBF1000F00F0B880D646A4EB08041FFA09
:1004400083F8B4FBF0F300FB134403FB0CFC48EA15
:100450000444A4450ED93C1903F1FF302CBF4FF0E2
:1004600001084FF00008A44503D9B8F1000F00F0CF
:100470009F80034643EA0E40A4EB0C04A0FB02EC71
:1004800064457346E04602D307D1F14505D2BEEB81
:1004900002036CEB070C0138E0465DB1B9EB0302D7
:1004A00064EB080404FA06F622FA01F3CC401E437A
:1004B000C5E90064002136E7B1FBF2FC010C1446EB
:1004C00080B2964641EA08412026904640EA014320
:1004D0001046B1FBF2F1A3EB080341EA0C414BE7F4
:1004E000B740C6F1200301FA06F221FA03F84FEAF9
:1004F000174E20FA03F3BCB2B0401343020C190CA0
:1005000080B2B8FBFEF90EFB198841EA084109FBED
:1005100004F8884551D9791809F1FF3C2CBF4FF0F8
:10052000010A4FF0000A884502D9BAF1000F31D014
:10053000A1EB0801B1FBFEF909FB04F80EFB191150
:100540009BB243EA0143434535D2FB1809F1FF3121
:100550002CBF4FF0010A4FF0000A4345BBD2BAF15D
:10056000000FB8D1A9F102013B44B4E7841A68EB4B
:10057000030201209646EBE63A44A8F102082BE775
:10058000ACF1020C3B4410E702393B44A9E63A4483
:100590000238BEE6A7EB0808A9F1020C4144B1FB02
:1005A000FEF909FB04F8C9E7AEF1020E3C4444E74A
:1005B000023B3C445EE749468DE7A1EB0801CC468F
:1005C000B1FBFEF909FB04F8B8E700BF704700BFB4
:1005D00080B483B000AF7860396000BF0C37BD468F
:1005E0005DF8047B7047000080B500AF034B00222C
:1005F0001A60034811F050FA00BF80BDA428032000
:100600009007032080B400AF034B1B681846BD461B
:100610005DF8047B704700BFA428032080B584B038
:1006200002AF72B600BF8C4B4FF000629A60BFF30E
:100630004F8F00BF62B600BF08F009FA00F086F9DC
:1006400000F0CAFC00F082FC00F009FB00F06EFB39
:1006500000F0B6FA00F080FB00F0F8F900F012FBB1
:1006600000F08CFA00F0F4FA00F014FB00F046FC05
:1006700000F0E8FB00F0AEFB00F01AFC774B002224
:100680001A70774B0093774B002201214FF40070D2
:100690001AF08AFE0346744A1360744B0093744B3D
:1006A000002201214FF400701AF07EFE0346714AC9
:1006B0001360714B0093714B0022012146F206003A
:1006C0001AF072FE03466E4A13606E4B00936E4B37
:1006D0000022012146F206001AF066FE03466B4A2C
:1006E00013606B4B00936B4B002201214FF47A6037
:1006F0001AF05AFE0346684A1360684B0093684B31
:10070000002201214FF47A601AF04EFE0346654A3A
:100710001360654B0093654B002201214FF4A0400C
:100720001AF042FE0346624A1360624B0093624B2A
:10073000002201214FF4A0401AF036FE03465F4A22
:1007400013605F495F4804F081FA02F043FD1BF03B
:1007500067FD514B00935C4B494A5C4902F00CFC2D
:100760005B4804F0C5FA5B4801F022FE5A4A5B4937
:100770005B4801F085FB00233B603B46184602F0D6
:1007800015FD0346002B10D13B68002B0DD14FF017
:1007900000437B607B6843F411037B607B6843F01C
:1007A00004037B60786802F0C7FC19F0B3FE4D4A81
:1007B00000214D4819F0F8FE03464C4A13604C4A9C
:1007C00000214C4819F0F0FE03464B4A13604B4A97
:1007D00000214B4819F0E8FE0346404A1360494A9D
:1007E0000021494819F0E0FE0346354A1360474AA4
:1007F0000021474819F0D8FE0346374A1360454A9E
:100800000021454819F0D0FE0346304A1360434AA0
:100810000021434819F0C8FE0346424A1360424A89
:100820000021424819F0C0FE0346414A1360414A84
:100830000021414819F0B8FE0346404A1360404A7F
:100840000021404819F0B0FE03463F4A136019F0FA
:1008500085FE00BFFDE700BF00ED00E08827032014
:100860003427032000000020582703205C270320A2
:1008700000020020802703208C27032084250020ED
:1008800064280320B02703208C85002068280320DB
:10089000D427032094E5002070280320F8270320A4
:1008A00034F50020742803201C280320D4040120E0
:1008B000A029032040280320D4540120A429032088
:1008C00068140320100603206C280320C81D032091
:1008D000FC0503208C04032018190320B80F032003
:1008E000B004032040F0010821120008040B03208B
:1008F00064F0010879120008080B032088F0010851
:1009000081130008ACF0010859140008D0F0010868
:1009100011150008F4F001083915000818F1010854
:10092000D9170008782203203CF101085919000862
:100930002827032060F10108AD1900082C270320A7
:1009400084F10108C31900083027032080B59EB048
:1009500000AF07F130034822002118461DF0E2FDE8
:1009600007F11C0300221A605A609A60DA601A616B
:100970003B1D00221A605A609A60DA601A615A615F
:100980004FF400700EF038FA0346002B01D001F04E
:100990004FF829233B634FF480337B630123BB650E
:1009A0000023BB6401237B640223FB6503233B66B6
:1009B00001237B661023BB660723FB6604233B678A
:1009C00002237B6707F1300318460EF0A5FA0346B1
:1009D000002B01D001F02CF80F23FB6103233B62B5
:1009E00000237B620023BB620023FB6207F11C0330
:1009F000032118460EF066FF0346002B01D001F0DC
:100A000017F8114B9B6D104A43F0807393650E4BA2
:100A10009B6D03F080733B603B6800237B604FF06D
:100A20000053BB600023FB604BF67F333B61222306
:100A30007B612023BB613B1D18460FF0DDFD00BF2D
:100A40007837BD4680BD00BF0010024080B58AB037
:100A500000AF07F11C0300221A605A609A603B1D28
:100A600000221A605A609A60DA601A615A613E4B3D
:100A70003E4A1A603C4B4FF430125A603A4B002207
:100A80009A60394B0022DA60374B01221A61364BEB
:100A900004225A61344B00221A76334B01225A76D3
:100AA000314B0322DA61304B002283F820202E4B99
:100AB00000229A622C4B0022DA622B4B012283F82F
:100AC0003020294B4FF480525A63274B002283F881
:100AD0003820254808F0DEF90346002B01D000F04D
:100AE000A7FF0023FB6107F11C0319461E4809F00C
:100AF00019F90346002B01D000F09AFF1C4B7B60D4
:100B00000623BB600023FB607F233B6104237B61E2
:100B10000023BB613B1D1946134808F0D9FB03466F
:100B2000002B01D000F084FF124B7B600C23BB60D4
:100B30003B1D19460C4808F0CBFB0346002B01D0A7
:100B400000F076FF0C4B7B601223BB603B1D194607
:100B5000054808F0BDFB0346002B01D000F068FFFC
:100B600000BF2837BD4680BDBC0303200080024281
:100B7000400020190002B0250004002A80B500AF13
:100B80000D4B0E4A1A600C4B00221A710A4B0022C0
:100B90005A71094B00225A61074B00229A61064B99
:100BA00001221A62044809F08FFA0346002B01D093
:100BB00000F03EFF00BF80BD8C04032000300240E7
:100BC00080B500AF204B214A1A601F4B00225A60AB
:100BD0001D4B4FF440729A601B4B0022DA601A4B97
:100BE00001221A74184B00225A74174B00229A746F
:100BF000154B01225A61144B10229A61124B3C2270
:100C0000DA61114B13221A620F4B01225A620E4B0A
:100C100010229A620C4B0F22DA620B4B04221A63E9
:100C2000094B01225A63084B01229A63064B0022AA
:100C3000DA63054809F0F6FE0346002B01D000F008
:100C4000F7FE00BF80BD00BFB004032000A4004039
:100C500080B400AF00BFBD465DF8047B704780B52F
:100C600000AF00200CF010FC0346002B01D000F078
:100C7000DFFE0CF029FC0346002B01D000F0D8FE6B
:100C800000BF80BD80B400AF00BFBD465DF8047BEF
:100C90007047000080B500AF224B234A1A60214BF9
:100CA0004FF4E1325A601F4B00229A601D4B002224
:100CB000DA601C4B00221A611A4B0C225A61194B44
:100CC00000229A61174B00221A62164B00225A62C8
:100CD000144B00229A62134B00225A66114811F0FD
:100CE000C7F90346002B01D000F0A2FE00210D48F9
:100CF00013F0C1FB0346002B01D000F099FE002148
:100D0000084813F0F6FB0346002B01D000F090FEDC
:100D1000044813F077FB0346002B01D000F088FE57
:100D200000BF80BD680503200080004080B500AF93
:100D3000074B084A1A60064B00225A6004480FF01D
:100D40002FFE0346002B01D000F072FE00BF80BDD5
:100D5000FC05032000080C4280B500AF1B4B1C4A69
:100D60001A601A4B4FF482725A60184B00229A6034
:100D7000164B4FF4E062DA60144B00221A61134BF9
:100D800000225A61114B4FF400729A610F4B0822F6
:100D9000DA610E4B00221A620C4B00225A620B4B96
:100DA00000229A62094B0722DA62084B00221A637A
:100DB000064B08225A63054810F003F80346002B3F
:100DC00001D000F035FE00BF80BD00BF100603203B
:100DD0000038004080B584B000AF3B1D00221A608F
:100DE0005A609A60154B164A1A60144B42F20F7201
:100DF0005A60124B00229A60104B41F63F72DA6043
:100E00000E4B00229A610D4810F087FD0346002B1F
:100E100001D000F00DFE00237B600023FB603B1D32
:100E20001946064811F07EF80346002B01D000F069
:100E3000FFFD00BF1037BD4680BD00BF4407032043
:100E40000010004080B584B000AF3B1D00221A6046
:100E50005A609A60144B154A1A60134B00225A606C
:100E6000114B00229A60104B41F63F72DA600E4B34
:100E700000229A610C4810F050FD0346002B01D06F
:100E800000F0D6FD00237B600023FB603B1D19466C
:100E9000054811F047F80346002B01D000F0C8FDCB
:100EA00000BF1037BD4680BD9007032000140040EE
:100EB00080B500AF0F4B104A1A600E4B4F225A609C
:100EC0000C4B00229A600B4B4FF6FF72DA60094B15
:100ED00000221A61074B00225A61064B00229A61D8
:100EE000044810F01AFD0346002B01D000F0A0FDCD
:100EF00000BF80BDDC0703200044014080B500AF87
:100F0000104B114A1A600F4B08221A710D4B022226
:100F10005A710C4B0222DA710A4B00221A72094BE9
:100F200000225A72074B00229A72064B0022DA7294
:100F300004480CF0D9FA0346002B01D000F078FDEC
:100F400000BF80BD2808032000D4004080B584B0D5
:100F500000AF204B9B6C1F4A43F0040393641D4B6E
:100F60009B6C03F00403FB60FB681A4B9B6C194AF3
:100F700043F001039364174B9B6C03F00103BB60C8
:100F8000BB68144B9B6C134A43F002039364114BF0
:100F90009B6C03F002037B607B68002205211D200F
:100FA00009F057F81D2009F06EF8002205211E20D7
:100FB00009F04FF81E2009F066F8002205215020A4
:100FC00009F047F8502009F05EF800BF1037BD4621
:100FD00080BD00BF0010024080B58AB000AF07F1AD
:100FE000140300221A605A609A60DA601A613F4B5B
:100FF000DB6C3E4A43F00403D3643C4BDB6C03F0F0
:1010000004033B613B69394BDB6C384A43F0800396
:10101000D364364BDB6C03F08003FB60FB68334B1F
:10102000DB6C324A43F00103D364304BDB6C03F0DA
:101030000103BB60BB682D4BDB6C2C4A43F0020301
:10104000D3642A4BDB6C03F002037B607B680022D5
:101050004FF4604126480BF0E5FB002240F20111FD
:1010600024480BF0DFFB002241F2E40122480BF0A0
:10107000D9FB4FF460437B610123BB610023FB611B
:1010800000233B6207F11403194619480BF05CF981
:1010900040F201137B610123BB610023FB6100234C
:1010A0003B6207F11403194612480BF04DF941F267
:1010B000E4037B610123BB610023FB6100233B62EE
:1010C00007F1140319460C480BF03EF908237B6125
:1010D0000023BB610023FB6107F114031946074895
:1010E0000BF032F900BF2837BD4680BD001002402A
:1010F000000802420000024200040242001C0242B8
:1011000080B584B000AF78600C4B1B68002B10D00A
:101110000023FB60094B1B6807F10C0211461846BF
:101120001BF058FFFB68002B03D0054B4FF080529B
:101130001A6000BF1037BD4680BD00BF28270320BE
:1011400004ED00E080B584B000AF78600023FB6060
:101150002C4B1B887F2B03D92A4B00221A8047E097
:10116000294B1B780D2B0DD0264B1B881A46264B7E
:101170001978264B9954234B1B8801339AB2214B83
:101180001A8035E01F4B1B88002B2ED01D4B1B886F
:10119000802B2AD81E4B1B68002B26D01C4B1868AE
:1011A0000023022217491AF068FA0346022B1CD1C9
:1011B000174B1868134B1B881A46002313491AF063
:1011C0005CFA03460F4A128893420ED1114B1B68FA
:1011D00007F10C02114618461BF0FCFEFB68002BC1
:1011E00003D00D4B4FF080521A60064B00221A803C
:1011F00001220549094811F01FF800BF1037BD460C
:1012000080BD00BF86270320842703200004002020
:1012100058270320040B032004ED00E06805032099
:1012200080B584B000AF786001220F490F4811F0FB
:1012300003F80F4B186807F10A014FF0FF33022241
:101240001AF0ADFAF8600A4B18687B891A464FF01D
:10125000FF3308491AF0A3FAF8607B89194605485C
:1012600001F032FCE5E700BF842703206805032076
:10127000582703200005002080B59EB000AF78609D
:101280003B4B186807F14C014FF0FF3328221AF04E
:1012900086FA0346282BF3D1BB6D184606F0C8FA30
:1012A000034687F8773097F87730002B09D0304B1A
:1012B000186897F8772007F10C014FF0FF331AF008
:1012C0006EFA7B6D002B12D1FB6C97F8771007F14B
:1012D0000C02184601F032FC1AF0A2FF024607F198
:1012E0000C0107F14C03184601F08AFE2AE07B6DE1
:1012F000B3F1005F26D1FB6C40F20372934221D11F
:101300001C4B00225A611B4B00229A61194B002290
:101310009A603B6D174A5360FB6C164A1360BB6DB5
:10132000144AD360134BDB68082B02D9114B0822F7
:10133000DA6008221049114806F0B6FA0F490D4844
:1013400000F086FE1AF06CFF024607F10C0107F16F
:101350004C03184601F022FA1AF062FF024607F128
:101360000C0107F14C03184601F0CEFA88E700BFE4
:10137000A0290320782803209005FA0B9C2803203D
:1013800080B59EB000AF786000233B6715E02F4B1F
:1013900018683A6F1346DB0013449B001A4607F1A6
:1013A0004C0399183B6FC3F124024FF0FF331AF03E
:1013B000F6F902463B6F13443B673B6F232BE6D99C
:1013C000BB6D184606F034FA034687F877307B6D1C
:1013D000B3F1005F02D1002387F8773097F87730B8
:1013E000002B1FD000233B6711E0184B186807F152
:1013F0000C023B6FD11897F877203B6FD21A4FF051
:10140000FF331AF0CCF902463B6F13443B6797F861
:1014100077303A6F9A42E8D304E04FF0FF31012071
:101420001BF0DEFB0A4809F031FF0346002BF4D025
:1014300007F10C0207F14C031946054809F08AFD33
:10144000044BDB680133034AD3609DE7A4290320E2
:10145000B00403200000032080B584B000AF7860A2
:1014600001F060FB00F030FD03222449244807F01E
:101470005DFE03F0FFFA00F0E1FA03F01BFB1AF047
:10148000CFFE0346184601F079F91AF0C9FE03466B
:10149000184601F029FA1B4810F0FEFA1A4810F01D
:1014A00093FA1AF0BDFE0346FB60FB68184603F092
:1014B000EDFAFB68184603F009FBFB68184600F0DC
:1014C000FBFA124B1B78DBB2002B07D1FB681846E6
:1014D00001F00EFDFB68184601F0CEF9FB681846D6
:1014E00001F0A8FAFB68184601F06EFD07F10C0345
:1014F0000A2118461AF010FDD3E700BF282A03205E
:10150000BC03032044070320DC070320540003200E
:1015100080B582B000AF78604FF0FF3101201BF042
:101520005FFB044B18680023022200211BF0F4FB30
:1015300000BFF1E7B80F032080B588B002AF786034
:1015400000237B739D4B1B68184619F0E7FF034689
:10155000002B00F0D080994B186807F10D014FF077
:10156000FF3301221AF01BF90346012B40F0C38020
:10157000924B1B68184619F0D1FF0346012B40F22D
:10158000BA808E4B186807F10E014FF0FF3302222C
:101590001AF005F90346022B40F0AD80FB89B3F544
:1015A000805F80F0A8800023FB82FB89002B17D08E
:1015B00012E0824B1868FB8A814A9918FB891A4607
:1015C000FB8AD31A1A464FF0FF331AF0E8F80346A5
:1015D0009AB2FB8A1344FB82FB89FA8A9A42E8D1C9
:1015E0007B7B002B35D11AF01BFEFA8907F10A0329
:1015F0000093744B724905F063FE7B89002B1DD06C
:10160000714B186807F10A014FF0FF33022219F0FD
:101610009BFF38616C4B18687B891A464FF0FF338B
:10162000684919F091FF02463B6913443B61674BDF
:1016300018680023022200211BF06EFB1AF0F0FD57
:10164000FA8907F10A0300935E4B5D4906F0C2F880
:1016500051E01AF0E5FDFA8907F10A030093594BAE
:10166000574906F00BF87B89002B3AD000237B7595
:10167000544B1B787F2B02D001237B7510E07B89B4
:10168000022B0DD94F4B9B78112B09D04D4B9B78DA
:10169000122B05D04B4B9B78312B01D001237B754E
:1016A0007B7D002B1DD0484B186807F10A014FF0D5
:1016B000FF33022219F048FF3861434B18687B89D9
:1016C0001A464FF0FF333F4919F03EFF02463B698F
:1016D00013443B613D4B18680023022200211BF09C
:1016E0001BFB1AF09DFDFA8907F10A030093354BA5
:1016F000334906F06FF8364B1B68184619F00EFF99
:101700000346012B54D9324B186807F10E014FF0F4
:10171000FF3302221AF043F80346022B48D1FB891B
:10172000B3F5805F44D20023FB8212E0284B186897
:10173000FB8A234A9918FB891A46FB8AD31A1A4650
:101740004FF0FF331AF02BF803469AB2FB8A13448A
:10175000FB82FB89FA8A9A42E8D11AF061FDFA8984
:1017600007F10A030093174B154906F035FB7B89F7
:10177000002B1DD0174B186807F10A014FF0FF33FB
:10178000022219F0E1FE3861124B18687B891A4673
:101790004FF0FF330B4919F0D7FE02463B69134463
:1017A0003B610A4B18680023022200211BF0B4FAA7
:1017B0004FF0FF3100201BF013FAC3E6642803202A
:1017C000800500208415002068280320782203204B
:1017D000702803207428032080B586B000AF78609D
:1017E0000023FB82564B1B68184619F097FE0346F0
:1017F000012B5ED9524B18684FF0FF33022251493A
:1018000019F0CDFF0346022B53D14F4B03F5805304
:101810009B8AB3F5805F4CD20023FB8215E0484BD6
:101820001868FB8A494A9918474B03F580539B8AED
:101830001A46FB8AD31A1A464FF0FF3319F0AFFF4E
:1018400003469AB2FB8A1344FB823F4B03F5805355
:101850009B8AFA8A9A42E2D11AF0E2FC03461946C0
:10186000394802F06FF90346002B22D116E0344BC1
:101870001B68184619F052FE0346012B18D8344B4A
:101880001B78DBB2002B05D02F4B03F5005393F8E8
:10189000233000E00A23184618F019FF1AF0C0FCA4
:1018A0000346184605F034FC0346012BDFD100E067
:1018B00000BF284B1B68184619F030FE0346012B69
:1018C00038D9244B186807F114014FF0FF33022276
:1018D00019F065FF0346022B2CD1BB8A082B29D8AF
:1018E0000023FB8213E01B4B1868FB8A07F10C02F4
:1018F000D118BB8A1A46FB8AD31A1A464FF0FF3317
:1019000019F04DFF03469AB2FB8A1344FB82BB8A4F
:10191000FA8A9A42E7D102E00A2018F0D8FE1AF0BB
:101920007FFCBA8A07F10C03194606F0F5F9034665
:10193000012BF1D14FF0FF3100201BF051F951E79D
:1019400068280320E8B40120D4A40120F0B40120C9
:10195000540003207428032080B584B000AF786061
:101960000E490F4803F0F0F90D4B18684FF0FF33A4
:1019700080220C4919F013FFF860FB68002BF3D0AC
:10198000FB689BB21A460749074810F0C1FB4FF0AD
:10199000FF3101201BF024F9E6E700BF28270320D0
:1019A00080270320800400206805032080B582B0D2
:1019B00000AF7860786801F071F800BF0837BD4665
:1019C00080BD80B582B000AF7860002001F071F872
:1019D00000BF0837BD4680BD80B582B000AF7860DB
:1019E0007B681B680E4A934205D10E4B1B6801337E
:1019F0000C4A13600FE07B681B680B4A934202D1CC
:101A000007F040F807E07B681B68084A934202D160
:101A1000786801F031F800BF0837BD4680BD00BFCF
:101A200000140040A4280320002C014000100040B6
:101A300080B400AF72B600BF00BFFDE780B500AF55
:101A4000054BDB8B9BB2DAB2044B1A70034803F0F0
:101A500031F900BF80BD00BF58000320A828032033
:101A600080B483B000AF03460A46FB711346BB71D6
:101A7000BB79002B09D00F4BDB8B9AB2FB799BB261
:101A800013439AB20B4BDA830DE00A4BDB8B9BB20C
:101A90001AB2FB799BB2DB439BB21BB213401BB261
:101AA0009AB2044BDA8300BF0C37BD465DF8047B65
:101AB000704700BF5800032080B582B000AF786047
:101AC000104B9B8B9AB2104B9A840E4BDB8B9AB2C5
:101AD0000E4B9A847B6840F6B732934207D80C4B82
:101AE0001B78002B03D1074BFF22DA8302E0084B5F
:101AF00001221A70074803F0DDF800BF0837BD4621
:101B000080BD00BF58000320D400032044010320FF
:101B1000A92803207600032080B400AF00BFBD4693
:101B20005DF8047B7047000080B584B000AF78603A
:101B30000B467B80194B00225A62184B0222DA6254
:101B4000164B01221A63154B40F2FF729A63002371
:101B5000FB7318E0FB7B114A9362FB7B5B007A68A6
:101B600013441B881A460D4B5A630D4B1B680D49D5
:101B7000184609F0CCF80346002B01D0FFF758FFB8
:101B8000FB7B0133FB73FB7B9BB27A889A42E1D8E3
:101B900000BF00BF1037BD4680BD00BF000003205E
:101BA000AC2803202400032080B584B000AF786007
:101BB0000B467B80194B4FF08042DA63174B0222B1
:101BC0005A64164B01229A64144B6FF000421A6556
:101BD0000023FB7317E0FB7B104A1364FB7B9B0025
:101BE0007A6813441B680D4AD3640D4B1B680D497A
:101BF000184609F08CF80346002B01D0FFF718FFB8
:101C0000FB7B0133FB73FB7B9BB27A889A42E2D861
:101C100000BF00BF1037BD4680BD00BF00000320DD
:101C2000AC2803203C00032080B48BB000AF786068
:101C30006FF000433B620123FB757B68404A93428F
:101C400003D940F2EE233B830AE07B683D4A93428E
:101C500003D94FF448733B8302E040F26B333B837C
:101C60003B8B394AA2FB03231B09BB82374B3B61E9
:101C70000123BB833A697B68B2FBF3F3FB770AE08D
:101C8000BB8B0133BB83BB8B3A69B2FBF3F27B683E
:101C9000B2FBF3F3FB77FB7F192BF1D845E0FB7F19
:101CA0005B08FB7631E0FA7FFB7ED31ADBB2013BA7
:101CB000FB733A8BFB7E4FF47A7103FB01F1FB7FE0
:101CC00091FBF3F3D31A7B627B6A002B02DA7B6A07
:101CD0005B427B627A6A3B6A9A4213DABB8A7A6A0F
:101CE0009A420FDC7B6A3B62194B1B68BA8B5A61C4
:101CF000174B1B68FA7EDA61154B1B68FA7B1A6278
:101D00000023FB75FB7E0133FB76FA7EFB7F023BF3
:101D10009A42C8DBBB8B0133BB83BB8B3A69B2FBF6
:101D2000F3F27B68B2FBF3F3FB77BB8BB3F5806F09
:101D3000B5D3FB7D18462C37BD465DF8047B704754
:101D400000350C0020A10700CDCCCCCC005A62029B
:101D5000AC28032080B582B002AF00224021434866
:101D60000AF060FD424B1B68184608F0ADFF404B7F
:101D70001B680D225A633E4B1B6801229A633C4B41
:101D80001B68184608F04EFE0346002B01D0FFF7F3
:101D90004FFE0D213748FFF7C7FE01213648FFF7F8
:101DA00003FF334B18680023009300230222022113
:101DB00009F007F80346002B01D0FFF739FE2C4B42
:101DC0001B68184609F02EF80346002B01D0FFF7D8
:101DD0002FFE274B1B6800220121184609F068FAE4
:101DE0000346002B01D0FFF723FE214B1B68002286
:101DF0000621184609F05CFA0346002B01D0FFF7D4
:101E000017FE1B4B1B6807224FF4F051184609F0D0
:101E10004FFA0346002B01D0FFF70AFE144B1B6854
:101E200007228021184609F043FA0346002B01D00F
:101E3000FFF7FEFD0E4B1B6800221049184609F003
:101E400037FA0346002B01D0FFF7F2FD084B1B6861
:101E500000224FF46021184609F02AFA0346002BAD
:101E600001D0FFF7E5FD00BFBD4680BD0004024282
:101E7000AC280320A8F10108C4F10108004071005A
:101E800080B584B000AFF860B9607A60094AFB6839
:101E90001360094ABB681360084A7B6813600849ED
:101EA000012018F002FE0346064A136000BF1037F7
:101EB000BD4680BDAC280320B0280320B4280320F1
:101EC000502903204C29032080B500AF0A4B1B6822
:101ED000184608F0F9FE084B1B68184608F0A2FDEA
:101EE0000346002B01D0FFF7A3FD00F08FF8FFF7AA
:101EF00031FF00BF80BD00BFAC28032080B500AF1C
:101F0000034B1B68184608F0DFFE00BF80BD00BF12
:101F1000AC28032080B584B000AF78600023FB7349
:101F20007B68082B4DD801A252F823F0511F0008FE
:101F30005F1F00086D1F00087B1F0008871F000837
:101F4000931F00089F1F0008AB1F0008B71F000861
:101F500042F21070FFF768FE0346FB7344E044F65C
:101F60002060FFF761FE0346FB733DE04CF250300A
:101F7000FFF75AFE0346FB7336E01E48FFF754FE98
:101F80000346FB7330E01C48FFF74EFE0346FB732D
:101F90002AE01A48FFF748FE0346FB7324E018487E
:101FA000FFF742FE0346FB731EE01648FFF73CFEB8
:101FB0000346FB7318E01448FFF736FE0346FB7335
:101FC00012E07B6842F20F7293420AD97B680E4A94
:101FD000934206D87868FFF727FE0346FB7300BFDD
:101FE00001E00123FB7300BFFB7B18461037BD46A1
:101FF00080BD00BFA086010048E8010090D003002A
:1020000020A1070000350C0040420F0080B400AF53
:102010000E4B00221A710D4B0022DA600B4B00228E
:102020001A610A4B00225A61084B00229A61074B41
:1020300000229A60054B0022DA61044B002283F8EB
:10204000202000BFBD465DF8047B704700000320E0
:1020500080B586B000AF786039600023BB747B68C0
:10206000DB68184605F0E4FB0346FB747B689B685D
:10207000B3F1005F01D10023FB74FB7C2433FB60D0
:1020800000BF2C4B1B684FF0FF31184618F025FF9E
:102090000346012BF5D1284B1B68184619F014FA9A
:1020A0000246FB6893420AD9244B1B79DBB243F00A
:1020B0000203DAB2214B1A710223BB7425E01E4BD6
:1020C00018684FF0FF332422796819F03DFA7861DF
:1020D000FB7C002B0BD0184B1868FA7C4FF0FF33B9
:1020E000396819F031FA02467B6913447B617A69D9
:1020F000FB689A4209D0114B1B79DBB243F008030D
:10210000DAB20E4B1A710123BB740A4B1868002314
:102110000022002118F0E4FC094B1B68186800231A
:10212000022200211AF0F8FDBB7C18461837BD4684
:1021300080BD00BF4C290320A429032000000320F8
:10214000B028032080B586B000AF786039600023E6
:10215000BB603B6803F00103002B4FD0454B464A60
:102160004021786808F03AFF0346002B01D0FFF7C2
:10217000D3FC424B5B690133404A53613E4BDB6801
:10218000184605F055FB0346FB74FB7C2833FB60C7
:102190003B4B1B68184619F097F90246FB689342BF
:1021A0000ED9364B9B690133344A9361354B1B681A
:1021B0001B6807F10802114618461AF00BFF1DE0D4
:1021C0002F4B186807F1080328222B4919F055FAFC
:1021D0007861FB7C002B0BD0294B1868FA7C07F147
:1021E0000803244919F049FA02467B6913447B61CC
:1021F0007A69FB689A4201D0FFF78EFC3B6803F0D6
:102200000203002B0BD01D4B1B79DBB243F0010303
:10221000DAB21A4B1A717B681B6802221A653B6896
:1022200003F00403002B19D0144B9B690133134AAC
:102230009361124B1B79DBB243F00803DAB20F4B08
:102240001A717B681B6804221A650E4B1B681B6899
:1022500007F10802114618461AF0BCFEBB68002BB5
:1022600003D0094B4FF080521A6000BF1837BD46AB
:1022700080BD00BFB8280320F828032000000320F9
:10228000A0290320B428032004ED00E080B584B029
:1022900000AF786039600023FB600C4B1B69013391
:1022A0000A4A13610A4B1B681B6807F10C021146AE
:1022B00018461AF08FFEFB68002B03D0054B4FF039
:1022C00080521A6000BF1037BD4680BD0000032059
:1022D000B028032004ED00E080B584B000AF786042
:1022E0000023FB600C4BDB6901330B4AD3610B4BC2
:1022F0001B681B6807F10C02114618461AF06AFEAB
:10230000FB68002B03D0064B4FF080521A6000BFD1
:102310001037BD4680BD00BF00000320B428032055
:1023200004ED00E080B582B000AF786039601E49EE
:10233000786808F05BFF3B6803F40033002B0BD098
:10234000194BDB68002B03D1184B00221A6003E005
:10235000164B4FF000421A603B6803F48023002BB9
:1023600014D0114B1B69012B08D1104B1B79DBB228
:1023700043F00403DAB20D4B1A7107E00B4B1B79E3
:10238000DBB223F00403DAB2084B1A713B6803F4A2
:102390000023002B03D0054B012283F8202000BF2F
:1023A0000837BD4680BD00BF202903200000032060
:1023B00080B483B000AF7860044A7B68136000BFCC
:1023C0000C37BD465DF8047B704700BFA829032089
:1023D00080B485B000AF786039607B68FB604FF0F7
:1023E000FF33BB600EE0FB685A1CFA601B781A468C
:1023F000BB685340DBB20A4A52F82320BB681B0A71
:102400005340BB603B685A1E3A60002BEBD1BB685F
:10241000DB4318461437BD465DF8047B704700BFA8
:10242000C8F1010880B584B000AF03463960FB8075
:10243000234B00225A61224B00229A61204B00223A
:102440009A601F4B00225A60FB881D4A136038684F
:1024500005F049FA03467B810023FB8127E0002336
:102460007B737A89FB89D31A082B02D908237B73E3
:1024700005E07B89DAB2FB89DBB2D31A7B737B7B05
:10248000184605F0E7F903460D4AD360FB893A6820
:1024900013447A7B19460B4805F006FA09490848A7
:1024A000FFF7D6FD7B7B9AB2FB891344FB81FA8947
:1024B0007B899A42D3D300BF00BF1037BD4680BD91
:1024C000B0290320D429032080B483B000AF786002
:1024D00039607B689B68002B2DD17B681B68194A8B
:1024E000934228D13B681B78502B24D13B680133A1
:1024F0001B78342B1FD13B6802331B78242B1AD155
:102500003B6803331B78242B15D13B6804331B78BD
:10251000572B10D13B6805331B78302B0BD13B6810
:1025200006331B78522B06D13B6807331B78442BAC
:1025300001D1012300E0002318460C37BD465DF8A9
:10254000047B7047FECA770080B582B000AF80235D
:10255000FB80274B00225A61254B00229A61244BB5
:1025600000229A60224B00225A60214B4FF4DE6217
:102570001A60204B1B88002B09D1022005F06AF954
:1025800003461B4AD3601C4B00225A7005E0012011
:1025900005F060F90346164AD360164B1B88DB082A
:1025A0009BB21A46154B9B5C1A46124B1B88DB43A9
:1025B00003F0070342FA03F3DBB203F00103DAB2DC
:1025C0000D4B1A700B4B1B8801339AB2094B1A80C2
:1025D000084B1B88FA889A4202D2064B00221A80C6
:1025E00005490348FFF734FD00BF0837BD4680BDED
:1025F000DC2903200A2A0320002A032070EE0108A8
:1026000080B582B000AF9023FB802A4B00225A6134
:10261000284B00229A61274B00229A60254B00220A
:102620005A60244B40F2F1621A60234B1B88002B46
:1026300009D1012005F00EF903461E4AD3601F4B55
:1026400000221A7005E0002005F004F90346194A3B
:10265000D360194B1B88DB089BB21A46184B9B5C56
:102660001A46154B1B88DB4303F0070342FA03F3BA
:1026700003F00103002B03D10E4B00229A6003E00C
:102680000C4B4FF000529A600B4B1B8801339AB2EF
:10269000094B1A80084B1B88FA889A4202D2064BD3
:1026A00000221A8005490348FFF7D2FC00BF083713
:1026B000BD4680BDDC2903200C2A0320002A03200C
:1026C00084EE010880B582B000AF9823FB80274BD1
:1026D00000225A61254B00229A61244B00229A6005
:1026E000224B00225A60214B40F2F2621A60204BCA
:1026F0001B88002B09D1012005F0ACF803461B4ACA
:10270000D3601C4B00221A7005E0002005F0A2F8EF
:102710000346164AD36017491448FFF799FC144B37
:102720001B8801339AB2124B1A80114B1B88FA880E
:102730009A4202D20E4B00221A800D4B1B88DB08F6
:102740009BB21A460C4B9B5C1A46094B1B88DB4319
:1027500003F0070342FA03F303F00103002B00D058
:10276000C5E700BF00BF0837BD4680BDDC29032098
:102770000E2A0320002A032098EE010880B483B0BB
:1027800000AF7860044B00221A6000BF0C37BD46D2
:102790005DF8047B704700BFAC29032080B584B08E
:1027A00000AFF860B9607A60FB689B68002B0AD1C3
:1027B000FB681B6840F25642934204D127494FF40C
:1027C000EE60FFF72FFEFB689B68B3F1005F0AD154
:1027D000FB681B6840F27272934204D1204940F2B8
:1027E0007270FFF71FFEFB689B68002B12D1FB681D
:1027F0001B6840F2574293420CD108221949B8682D
:102800001BF080FE0346002B04D1174940F2717083
:10281000FFF708FEB968F868FFF756FE0346002B7D
:1028200004D0124940F27370FFF7FCFDFB689B680F
:10283000002B0ED1FB681B68B3F58B6F09D1FB68C9
:10284000DB68002B05D10A4B01221A70094B0022CC
:102850001A6000BF1037BD4680BD00BFACEE010856
:10286000C4EE0108DCEE0108E8EE0108FCEE010808
:10287000082A0320AC29032080B582B000AF78601D
:10288000154B1B78002B23D0144B1968144BA3FB5A
:102890000123DA0813469B0013445B00CA1A002A7E
:1028A00003D1FFF751FEFFF7ABFE0C4B1A680D4B3F
:1028B000A3FB02135B09642101FB03F3D31A002B72
:1028C00001D1FFF7FFFE054B1B680133034A13607C
:1028D00000BF0837BD4680BD082A0320AC2903206D
:1028E000CDCCCCCC1F85EB5180B483B000AF7860E9
:1028F000044B00221A6000BF0C37BD465DF8047B14
:10290000704700BF102A032080B5A8B002AFF8605E
:10291000B9607A600023C7F89430FB68DB6818461A
:1029200004F086FF034687F89230FB681A6897F830
:10293000923007F11000009313463A4A80211BF0B1
:10294000ABFDC7F89400D7F89430002B65DDD7F8BD
:1029500094307F2B61D8002387F893301FE0D7F89D
:10296000943007F11002D018D7F89430C3F18001E9
:1029700097F89330BA6813441B782B4A1BF08CFDF0
:102980000246D7F894301344C7F89430D7F89430FF
:102990007C2B0FD897F89330013387F8933097F852
:1029A000932097F892309A4205D297F893303F2BB4
:1029B000D5D900E000BFD7F894307D2B1AD8D7F8CE
:1029C00094305A1CC7F8942098333B440D2203F8E6
:1029D000882CD7F894305A1CC7F8942098333B447D
:1029E0000A2203F8882C07F11002D7F89430134418
:1029F00000221A70002204210C4809F013FFD7F8B6
:102A000094309AB207F11001642309480EF07CFA61
:102A100001220421054809F005FF00BF9837BD4693
:102A200080BD00BF18EF01083CEF0108000402421E
:102A30001006032080B582B000AF78600B4B1A6897
:102A40000B4BA3FB02135B09642101FB03F3D31AB5
:102A5000002B02D1074802F0D7F9044B1B68013361
:102A6000024A136000BF0837BD4680BD102A03200C
:102A70001F85EB5144EF010880B483B000AF78604C
:102A8000054B1B680133044A136000BF0C37BD4679
:102A90005DF8047B704700BF142A032080B582B024
:102AA00000AF7860002019F0D3F900BF0837BD46A9
:102AB00080BD80B582B000AF7860002019F0C8F901
:102AC00000BF0837BD4680BD80B483B000AF7860DA
:102AD0000B467B8000BF0C37BD465DF8047B70471A
:102AE00080B582B000AF78607B689B6E9BB2184661
:102AF00004F012FF03461A467B68DA847B682433AD
:102B000004211846FFF764FC02467B689A62044B76
:102B10001A687B681A6100BF0837BD4680BD00BFD8
:102B20000000032080B400AF034B00221A7000BFE6
:102B3000BD465DF8047B70475400032080B584B027
:102B400000AFF860B9607A607B681B889AB27B68D6
:102B50001A80BB68012B06D87B681B889BB2DBB24E
:102B60009AB27B681A80BB68002B00F0BA81FB68C0
:102B7000B3F5EA7F80F0B281FB68B3F5DC7F3CD22D
:102B8000FB6840F2A712934200F08C81FB68B3F51A
:102B9000D47F80F0A381FB68B3F5A87F00F090811B
:102BA000FB68B3F5A87F00F29981FB68A22B00F0C7
:102BB0006481FB68A22B00F29181FB68982B00F0E6
:102BC0005581FB68982B00F28981FB68772B00F216
:102BD0008581FB68582B51D2FB681A2B00F0E980E5
:102BE000FB681A2BC0F07A81FB68432B00F27681D8
:102BF000FB68242B80F08A8070E1FB68A3F5DC730E
:102C00001B2B00F26B8101A252F823F0B12E0008B9
:102C1000DD2E0008DD2E0008CD2E0008DD2E000878
:102C2000DD2E0008DD2E0008DD2E0008DD2E000858
:102C3000DD2E0008DD2E0008DD2E0008DD2E000848
:102C4000DD2E0008DD2E0008DD2E0008DD2E000838
:102C5000992E0008DD2E0008DD2E0008DD2E00086C
:102C6000DD2E0008DD2E0008DD2E0008DD2E000818
:102C7000DD2E0008DD2E0008892E0008FB68583B79
:102C80001F2B00F22B8101A252F823F0212E000805
:102C9000DD2E0008DD2E0008DD2E0008DD2E0008E8
:102CA000DD2E0008DD2E0008DD2E0008DD2E0008D8
:102CB000DD2E00080B2E0008DD2E0008DD2E00089A
:102CC000DD2E0008DD2E0008DD2E0008DD2E0008B8
:102CD000DD2E0008DD2E0008DD2E0008DD2E0008A8
:102CE0005D2E0008DD2E0008DD2E0008DD2E000818
:102CF000DD2E0008DD2E0008DD2E0008DD2E000888
:102D0000DD2E0008DD2E0008372E0008FB68243B6E
:102D10001F2B00F2E38001A252F823F09D2D000842
:102D2000DD2E0008DD2E0008DD2E0008DD2E000857
:102D3000DD2E0008DD2E0008DD2E0008DD2E000847
:102D4000DD2E0008DD2E0008DF2D0008DD2E000836
:102D5000DD2E0008DD2E0008DD2E0008DD2E000827
:102D6000DD2E0008DD2E0008DD2E0008DD2E000817
:102D7000C92D0008DD2E0008DD2E0008DD2E00081C
:102D8000DD2E0008DD2E0008DD2E0008DD2E0008F7
:102D9000DD2E0008DD2E0008F52D00087B681B885D
:102DA0009BB2184604F0B8FD03461A464F4B1A80F2
:102DB00097E07B681B889BB2184604F0ADFD034684
:102DC0001A464A4B5A808CE07B681B889BB2184697
:102DD00004F0A2FD03461A46444B9A8081E07B68CA
:102DE0001B889BB2184604F097FD03461A463F4BDA
:102DF000DA8076E07B681B889BB2184604F08CFD75
:102E000003461A46394B9A826BE07B681B889BB25B
:102E1000184604F081FD03461A46344B1A8160E0DF
:102E20007B681B889BB2184604F076FD03461A4661
:102E30002E4B5A8155E07B681B889BB2DAB22B4B34
:102E40001A73BB68012B4BD97B681B889BB21B0A8A
:102E50009BB2DAB2254B83F8202041E07B681B88C7
:102E60009BB2DBB29AB2214BDA813AE07B681B88D5
:102E70009BB2DAB21D4B9A7533E07B681B889BB21C
:102E8000DAB21A4BDA752CE07B681B889BB2DBB296
:102E90009AB2164B1A8224E07B681B889AB2134BB5
:102EA0005A821EE07B681B889AB2104B5A8318E046
:102EB0007B681B889BB2DBB29AB20C4B9A8310E002
:102EC0007B681B889AB2094B1A830AE07B681B88CF
:102ED0009BB2DBB29AB2054BDA8302E000BF00E09E
:102EE00000BF00BF1037BD4680BD00BF58000320A3
:102EF00080B584B000AF78600023FB8131E0FB89AE
:102F00001C4A52F82330DB6E7A68D21AFB891949C1
:102F100051F823305B6E9A4220D3FB89154A52F850
:102F200023301846FFF7DCFDFB89124A52F82330A4
:102F30001846FB890F4A52F8233024331946FFF70D
:102F400087F8FB890B4A52F823309A6E01329A6651
:102F5000FB89084A52F823307A68DA66FB89013324
:102F6000FB81FB89012BCAD900BF00BF1037BD46CA
:102F700080BD00BF7C00032080B584B000AFF86046
:102F8000B9607A603B600C4ABB6813600B4A7B688F
:102F900013600B4A3B6813600A4ABB69136000F078
:102FA00063F8F86804F080F8F86804F08FFE0023F6
:102FB00018461037BD4680BD182A03201C2A03205E
:102FC000202A0320242A032080B584B000AF786033
:102FD0000023FB73786804F07BF803461A46FB7BFA
:102FE0001343FB73786804F07DFE03461A46FB7BAF
:102FF0001343FB73FB7B18461037BD4680BD0000B2
:1030000080B584B000AFF860B9607A60134B1B687C
:103010007A68B968F86804F08DF80346012B07D187
:103020000F4B1B68186800230222002119F074FE60
:103030000C4B1B687A68B968F86804F08FFE034689
:10304000012B07D1064B1B681868002302220021C0
:1030500019F062FE00BF1037BD4680BD1C2A032058
:10306000182A0320242A032080B582B000AF002351
:10307000FB713B461946102000F0E9F80346002B8F
:1030800008D00021102000F0BEF80346002B01D02C
:103090000123FB71FB7918460837BD4680BD80B51A
:1030A00082B000AF3B46184600F080F80346002B84
:1030B00012D13B68002B0CD00021102000F0A3F8A7
:1030C0000346002B02D00123FB7107E00023FB71B4
:1030D00004E00023FB7101E00123FB71FB7918463A
:1030E0000837BD4680BD80B584B000AF78603960D8
:1030F0000123FB730023BB6007F10803194610206E
:1031000000F0A5F80346002B10D1BB687A689A42FC
:103110000CD27B689BB211339BB23968184600F021
:1031200096F80346002B01D10023FB73FB7B184666
:103130001037BD4680BD000080B584B000AF786018
:103140000023BB600123FB73174B1B78002B02D1BC
:103150000023FB7322E007F108031946102000F05A
:1031600076F80346002B19D1BB681133FF2B15D815
:10317000BB689BB211339BB27968184600F043F8E4
:103180000346002B0AD1BB6801331946102000F01A
:103190003AF80346002B01D10023FB73FB7B184652
:1031A0001037BD4680BD00BF8400032080B584B0C9
:1031B00000AF78600023FB737968102000F047F8B7
:1031C0000346002B01D00123FB73FB7B184610370D
:1031D000BD4680BD80B582B000AF0023FB8008F003
:1031E000DDFB002013F0EAFB0346FB80FB88002B8D
:1031F00002D0002014F0E0FC08F0F2FBFB88184637
:103200000837BD4680BD80B584B000AF0346396045
:10321000FB800023FB8108F0C1FBFB88396818465E
:1032200014F0F5FD0346FB81FB8903F48073002B4A
:1032300006D014F007FE03461A46FB891343FB81B0
:1032400008F0CEFBFB8918461037BD4680BD80B51F
:1032500084B000AF03463960FB800023FB81FB880C
:103260003968184614F0AEFD03461A46FB8913432D
:10327000FB81FB8918461037BD4680BD80B483B002
:1032800000AF78600B46FB701346BB70FB7803F011
:103290000103002B02D07B6800221A70FB7803F038
:1032A0000203002B04D07B6803F5805303221A74B9
:1032B00000BF0C37BD465DF8047B704780B586B013
:1032C00000AFF8600B467A60FB727B681B7803F0F6
:1032D0000F03FB75FB681B78002B04D0062201212D
:1032E000F868FFF7CBFFFB7D002B17D0FB7D072B8A
:1032F00014D8FA7DFB7A013B9A420FD8FB6803F1A0
:103300000D007B680133FA7D194604F0CDFAFB7D90
:103310009AB2FB685A80FB6802221A7000BF183705
:10332000BD4680BD80B584B000AFF8600B467A60C2
:10333000FB72FB681B78002B04D006220121F86881
:10334000FFF79CFFFB7A072B43D97B681B781BB2E6
:103350001B021BB203F470631AB27B6801331B7843
:103360001BB213431BB29AB2FB689A80FB689B881E
:10337000072B2ED9FB689B88B3F5805F1CD8FB68B0
:1033800003F10D007B6802330622194604F08CFA23
:10339000FB6806225A80FB6801221A70FB6803F55D
:1033A000005300229A77FB6801221A73FB6803F529
:1033B00080530122DA810CE0FB6803F500530222FE
:1033C0009A77FB6801221A7307220121F868FFF738
:1033D00055FF00BF1037BD4680BD80B586B000AF39
:1033E000F8600B467A60FB72FB681B78012B75D185
:1033F0007B681B7803F00F03FB75FB7D9AB2FB68BB
:1034000003F58053DB8903F00F039BB29A4205D08A
:1034100004220121F868FFF731FF60E0FB689A8819
:10342000FB685B88D31ABB82BB8A072B02D9FB7A65
:10343000082B54D1BB8A072B04D8FB7A9BB2BA8ADB
:103440009A424CD2FB6803F58053DB8901339AB270
:10345000FB6803F58053DA81BB8A062B02D8BB8A4E
:10346000DBB202E0FB7A013BDBB2FB74FB685B88FA
:103470000833FA681344581D7B680133FA7C1946F7
:1034800004F012FAFB685A88FB7C9BB213449AB290
:10349000FB685A80FB685A88FB689B889A4203D174
:1034A000FB6802221A701AE0FB6803F50053DB7F09
:1034B000002B14D0FB6803F58053DB89013BFA68CD
:1034C00002F50052D27F93FBF2F101FB02F29B1A4C
:1034D000002B04D1FB6801221A7300E000BF1837EB
:1034E000BD4680BD80B584B000AFF8600B467A6001
:1034F000FB727B681B7803F00F03DAB2FB6803F5FD
:10350000005383F82120FB7A012B08D97B68013313
:103510001A78FB6803F5005383F8222005E0FB6866
:1035200003F50053002283F82220FB7A022B08D9EE
:103530007B6802331A78FB6803F5005383F8232075
:1035400005E0FB6803F50053002283F82320FB68A5
:1035500003F5005393F82130022B24D0022B28DCF2
:10356000002B02D0012B0CD023E0FB6803F5805325
:103570001B7C022B23D1FB6803F5805301221A74B4
:103580001DE0FB6803F580531B7C022B05D0FB6814
:1035900003F580531B7C012B13D1FB6803F580538B
:1035A00002221A740DE008220221F868FFF766FE75
:1035B00008E005220221F868FFF760FE02E000BF84
:1035C00000E000BF00BF1037BD4680BD80B485B0AD
:1035D00000AF786039607B6800221A707B68002237
:1035E0005A807B6800229A807B6800221A737B686D
:1035F00000229A607B6803F5805300221A747B686E
:1036000003F5805300225A827B6803F58053002221
:103610009A827B6803F580531A46002393617B6886
:1036200003F50053002283F821207B6803F5005343
:10363000002283F822207B6803F50053002283F8E0
:1036400023207B6803F5005300229A777B6803F5FB
:1036500000530022DA777B6803F50053002283F8D9
:1036600020207B6803F580530022DA817B6803F514
:10367000005300229A837B6803F500531A463B6887
:1036800053620023FB6008E07A68FB6813440D3343
:1036900000221A70FB680133FB60FB68B3F5805FA2
:1036A000F2D30023BB600AE07A68BB68134403F5D9
:1036B00080531C3300221A70BB680133BB60BB68A7
:1036C000B3F5805FF0D300BF00BF1437BD465DF88F
:1036D000047B704790B589B000AFF8607A603B60BA
:1036E0000B46FB72FB683A689A60FB7A002B2ED07F
:1036F0007B681B781B09DBB2032B27D801A252F889
:1037000023F000BF153700082337000831370008C1
:103710003F370008FB7A7A681946F868FFF7CEFD54
:1037200015E0FB7A7A681946F868FFF7FBFD0EE0B2
:10373000FB7A7A681946F868FFF74FFE07E0FB7AD4
:103740007A681946F868FFF7CDFE00E000BFFB6815
:103750001B7B012B1BD107F1140207F11F03194634
:10376000F86800F019F8FA7FFB6803F500535C6A0B
:10377000104604F06FF80346E360FB6803F500535E
:103780005B6A07F1140211461846FEF761FC00BFA0
:103790002437BD4690BD00BF80B487B000AFF8604D
:1037A000B9607A600023FB75FB681B7B002B1FD080
:1037B000FB6803F500539B7F43F03003DAB27B686C
:1037C0001A707B680133FA6802F50052D27F1A70D2
:1037D0007B680233FA6802F5005292F820201A70D2
:1037E000BB6803221A700123FB75FB6800221A7361
:1037F000FB7D18461C37BD465DF8047B704780B5DD
:1038000086B000AFF860B9607A603B600023FB755A
:10381000FB6803F580531B7C012B40F01381FB6890
:1038200003F5005393F82330BB75BB7DF02B01D912
:103830000123BB75FB6803F580539B693A68D21A74
:10384000BB7D9A42C0F0FE80FB6803F580535B8A23
:10385000002B6AD1FB6803F580539B8A072B2FD876
:10386000FB6803F580539B8ADAB27B681A707B6829
:10387000581CFB6803F580531C33FA6802F580522C
:10388000928A194604F010F8FB6803F580539B8A6E
:10389000DBB20133DAB2BB681A70FB6803F5805300
:1038A0009A8AFB6803F580535A82FB6803F500533C
:1038B00001229A83FB6803F5805303221A74B9E04E
:1038C000FB6803F580539B8A1B0A9BB25BB203F033
:1038D0000F035BB243F010035BB2DAB27B681A707D
:1038E000FB6803F580539A8A7B680133D2B21A7061
:1038F0007B68981CFB6803F580531C33062219462D
:1039000003F0D2FFBB6808221A70FB6803F58053EE
:1039100006225A82FB6803F5005301229A83FB6852
:1039200003F5805302221A7484E0FB6803F5805388
:103930009A8AFB6803F580535B8AD31ABB82FB68C3
:1039400003F500539B8B5BB203F00F035BB243F0B4
:1039500020035BB2DAB27B681A70BB8A072B39D9B5
:103960007B68581CFB6803F580535B8A03F5805322
:103970001833FA68134404330722194603F094FFFE
:10398000BB6808221A70FB6803F580535B8A073313
:103990009AB2FB6803F580535A82FB6803F5005323
:1039A00093F82230002B3BD0FB6803F500539B8B30
:1039B000FA6802F5005292F8222093FBF2F101FB23
:1039C00002F29B1A002B2BD1FB6803F580530222D5
:1039D0001A7425E07B68581CFB6803F580535B8AEA
:1039E00003F580531833FA6813440433BA8A19462E
:1039F00003F05AFFBB8ADBB20133DAB2BB681A703C
:103A0000FB6803F580535A8ABB8A13449AB2FB6859
:103A100003F580535A82FB6803F5805303221A741E
:103A2000FB6803F500539B8B01339AB2FB6803F5E7
:103A300000539A830123FB75FB6803F580531A46F4
:103A40003B689361FB7D18461837BD4680BD00007A
:103A500080B584B000AF786039607B681B78012B3B
:103A60000DD17B689B683A68D31AFB60FB68064AF5
:103A7000934204DD032201217868FFF7FFFB002356
:103A800018461037BD4680BD400D030080B598B084
:103A900000AFF860B9607A60002387F85F30FB6898
:103AA00003F580531B7C012B05D0FB6803F5805385
:103AB0001B7C022B0FD1FB6803F580539B69BA680E
:103AC000D31ABB65BB6D1E4A934204D90222022160
:103AD000F868FFF7D3FB07F1140207F15701BB6841
:103AE000F868FFF78CFE0346002B14D097F8573088
:103AF000184603F0AFFE02467B68DA6002E0012060
:103B000003F020FF07F1140319467868FEF7A0FAC6
:103B10000346002BF3D1FB6803F580531B7C032B7A
:103B200007D1012387F85F30FB6803F5805300223B
:103B30001A7497F85F3018466037BD4680BD00BFE5
:103B4000400D030080B584B000AF78603960012378
:103B5000FB737B6803F580539B8AB3F5805F21D8A4
:103B60007B6803F580531B7C002B04D001220221CB
:103B70007868FFF783FB7B6803F5805300225A8245
:103B80007B6803F5005300229A837B6803F580531A
:103B90001A463B6893617B6803F5805301221A74CF
:103BA0000023FB73FB7B18461037BD4680BD80B4F5
:103BB00085B000AFF860B9607A60FB70BB687F22A7
:103BC0001A70BB680133FA6812781A70BB68023346
:103BD000FA781A707B6803221A8000BF1437BD463A
:103BE0005DF8047B7047000080B586B000AFF860D8
:103BF0007A603B600B467B817B89022B06D01223C7
:103C00003A687968F868FFF7D2FFB6E2FB681B787C
:103C10004033DAB27B681A70FB685A1C7B68013348
:103C200012781A70FB6801331B789A2B00F29E827F
:103C300001A252F823F000BFA53E0008CD3E0008C7
:103C40006D4100086D410008113F0008213F000848
:103C50006D4100086D4100086D4100086D4100088C
:103C60006D4100086D410008313F00085D3F0008CC
:103C70006D4100086D4100086D410008773F000864
:103C80006D4100086D4100086D4100086D4100085C
:103C90006D4100086D4100086D4100086D4100084C
:103CA0006D4100086D4100086D4100086D4100083C
:103CB0006D410008873F0008BD3F0008E53F000850
:103CC0006D4100086D4100086D4100086D4100081C
:103CD0006D4100086D4100086D4100086D4100080C
:103CE0006D4100086D4100086D4100086D410008FC
:103CF0006D4100086D410008FD3F00080D400008BF
:103D00006D4100086D4100086D4100086D410008DB
:103D10006D4100086D4100086D4100086D410008CB
:103D20006D4100086D4100086D4100086D410008BB
:103D30006D4100086D410008254000084D40000815
:103D4000754000086D4100086D4100086D41000894
:103D50008D4000086D4100086D4100086D4100086C
:103D60006D4100086D4100086D4100089D4000084C
:103D7000B54000086D4100086D4100086D41000824
:103D80006D4100086D4100086D4100086D4100085B
:103D90006D4100086D4100086D4100086D4100084B
:103DA0006D410008CD4000086D4100086D410008DC
:103DB0006D4100086D410008DD4000086D410008BC
:103DC0006D4100086D4100086D4100086D4100081B
:103DD0006D4100086D4100086D4100086D4100080B
:103DE0006D4100086D4100086D4100086D410008FB
:103DF0006D4100086D4100086D4100086D410008EB
:103E00006D4100086D4100086D4100086D410008DA
:103E10006D4100086D4100086D4100086D410008CA
:103E20006D4100086D4100086D4100086D410008BA
:103E30006D4100086D410008054100086D41000812
:103E40006D4100086D4100086D4100086D4100089A
:103E50006D4100086D4100086D4100086D4100088A
:103E60006D4100086D4100086D4100086D4100087A
:103E70006D4100086D4100086D4100086D4100086A
:103E80006D4100086D4100086D4100086D4100085A
:103E90006D4100086D4100086D4100086D4100084A
:103EA0002D4100083B6806221A807B680233982265
:103EB0001A707B68033318221A707B6804338022DF
:103EC0001A707B68053303221A7056E107F1140358
:103ED0001846FFF76BF90346002B01D000237B61E6
:103EE0003B6806221A807B69DAB27B68023302F0F3
:103EF0007F02D2B21A707B68033300221A707B688B
:103F0000043300221A707B68053300221A7034E1F2
:103F10003B6803221A807B6802334C221A702CE122
:103F20003B6803221A807B68023374221A7024E1F2
:103F30003B6804221A80934B9B889BB2DB001A12C9
:103F40007B680233D2B21A708E4B9B889BB2DAB276
:103F50007B680333D200D2B21A700EE13B680322B1
:103F60001A80884B9B8A9BB21B0A9AB27B680233E9
:103F7000D2B21A7001E13B6803221A807B680233D7
:103F800000221A70F9E03B6804221A8018F048F900
:103F900003467D4AA2FB03239B091A0A7B6802336E
:103FA000D2B21A7018F03CF90346774AA2FB0323F9
:103FB0009A097B680333D2B21A70DEE03B680622AE
:103FC0001A807B68023380221A707B6803330122D7
:103FD0001A707B68043380221A707B6805330122D3
:103FE0001A70CAE03B6804221A807B680233002200
:103FF0001A707B68033300221A70BEE03B6803220C
:104000001A807B68023300221A70B6E03B680422F3
:104010001A807B68023300221A707B680333002207
:104020001A70AAE03B6806221A807B680233A42239
:104030001A707B6803330C221A707B6804330022E9
:104040001A707B68053321221A7096E03B680622BD
:104050001A807B68023300221A707B6803330022C7
:104060001A707B68043300221A707B6805330022C3
:104070001A7082E03B6804221A807B680233352282
:104080001A707B680333BF221A7076E03B68032204
:104090001A807B68023351221A706EE03B6804225A
:1040A0001A807B68023300221A707B680333002277
:1040B0001A7062E03B6804221A807B680233002297
:1040C0001A707B68033300221A7056E03B680322A3
:1040D0001A807B6802336D221A704EE03B6806221C
:1040E0001A807B68023300221A707B680333002237
:1040F0001A707B68043300221A707B680533012232
:104100001A703AE03B6806221A807B68023300226C
:104110001A707B68033300221A707B680433002214
:104120001A707B68053340221A7026E03B6809222A
:104130001A807B68023306221A707B6803330022E0
:104140001A707B68043332221A707B680533402270
:104150001A707B68063300221A707B6807330E22C0
:104160001A707B68083300221A7006E012233A683E
:104170007968F868FFF71BFD00BF00BF1837BD4620
:1041800080BD00BF58000320D34D621080B588B0B9
:1041900000AFF8607A603B600B467B817B89012B26
:1041A00006D012233A687968F868FFF700FD4DE001
:1041B00007F118031846FEF7F9FF0346002B06D057
:1041C00010233A687968F868FFF7F1FC3EE0BB69B4
:1041D00001339BB25B009AB23B681A80FB681B7884
:1041E0004033DAB27B681A70BA697B680133D2B2A5
:1041F0001A7026E0FB8B07F1140211461846FEF7F1
:1042000072FF0346002B07D010233A687968F868DC
:10421000FFF7CDFC00BF19E07B69190EFB8B013362
:104220005B007A681344CAB21A707B69190CFB8B65
:104230005B0003337A681344CAB21A70FB8B0133F4
:10424000FB83FA8BBB69DBB29A42D3D300BF203722
:10425000BD4680BD80B584B000AFF8607A603B6039
:104260000B467B817B89012B06D012233A68796843
:10427000F868FFF79CFC14E0FEF711FF0346002BE3
:1042800006D010233A687968F868FFF790FC08E0D8
:10429000FB681B784033DAB27B681A703B680122F6
:1042A0001A8000BF1037BD4680BD0000B0B586B093
:1042B00000AFF8607A603B600B467B817B89022B04
:1042C00006D012233A687968F868FFF770FCD5E0E9
:1042D000FB681B784033DAB27B681A70FB685A1CA3
:1042E0007B68013312781A70FB6801331B780A2B44
:1042F00000F2BC8001A252F823F000BF294300085D
:104300006D440008514300086D440008E74300086D
:104310006D4400080B4400086D4400086D4400081B
:104320006D4400083B4400087B68023354221A7035
:104330007B68033340221A707B68043300221A70B2
:104340007B68053300221A703B6806221A8095E0CC
:104350007B68023301221A703B6814221A80002302
:10436000FB827B68033319460120FEF770FF03468A
:104370001A46FB8A1343FB827B68073319460220E7
:10438000FEF765FF03461A46FB8A1343FB827B68F0
:104390000B3319460320FEF75AFF03461A46FB8AE1
:1043A0001343FB827B680F3319460420FEF74FFF4F
:1043B00003461A46FB8A1343FB827B681333194674
:1043C0000520FEF744FF03461A46FB8A1343FB828F
:1043D000FB8A002B51D07B68033311220021184641
:1043E0001AF0A0F849E07B68023301221A707B685A
:1043F0000333244A1C4615460FCD20606160A2603D
:10440000E3603B6813221A8038E07B6802330122A4
:104410001A707B68033312221A707B6804333422CB
:104420001A707B68053356221A707B68063378222F
:104430001A703B6807221A8020E07B680233012251
:104440001A707B68033314220021184603F00EFA19
:104450007B6803330C491A460B4603CB106051604E
:104460001B8813813B6817221A8007E012233A68E1
:104470007968F868FFF79BFB00E000BF00BF1837C2
:10448000BD46B0BD58EF010868EF010880B584B0A3
:1044900000AFF8607A603B600B467B81FB681B785D
:1044A000013B092B32D801A252F823F0D544000871
:1044B0000D450008E3440008F14400080D450008DC
:1044C0000D450008E34400080D450008FF440008BE
:1044D000E344000879893B687A68F868FFF784FB51
:1044E00024E079893B687A68F868FFF74FFE1DE0A1
:1044F00079893B687A68F868FFF7ACFE16E079893D
:104500003B687A68F868FFF7D1FE0FE07B687F228E
:104510001A707B680133FA6812781A707B6802336C
:1045200011221A703B6803221A8000BF002318462C
:104530001037BD4680BD00BF80B58AB000AF3B1DBF
:10454000184607F007FCFB6903F48013002B01D029
:10455000012300E0022318462837BD4680BD80B500
:1045600088B000AF78600023FB610223FB607B68AA
:104570003B6100237B618023BB6107F11C0207F1D3
:104580000C031146184607F00DFB0346184620376A
:10459000BD4680BD80B485B000AF7860396001232E
:1045A000FB733A687B689A4202D80023FB7314E0DD
:1045B0007B68B3F1006F03D37B680B4A934202D947
:1045C0000023FB7309E03B68B3F1006F03D93B683C
:1045D000064A934201D90023FB73FB7B184614372C
:1045E000BD465DF8047B7047FFFF03080000040828
:1045F00080B485B000AF786039600023FB733A68FF
:104600007B689A4202D80023FB7309E07B68B3F110
:10461000005F05D33B68064A934201D80123FB7330
:10462000FB7B18461437BD465DF8047B704700BF1E
:104630000000042080B485B000AF786039600023AA
:10464000FB733A687B689A4202D80023FB7341E00F
:104650007B68B3F1005F06D33B68224A934202D8DD
:104660000123FB7336E07B681F4A934206D93B68FF
:104670001E4A934202D80123FB732BE07B681C4A3D
:10468000934206D93B681B4A934202D80123FB732D
:1046900020E07B68184A934206D93B68174A934248
:1046A00002D80123FB7315E07B68B3F1006F11D3CF
:1046B0003B68134A93420DD8124B1B88B3F5007F19
:1046C00002D10123FB7305E03B680F4A934201D8F6
:1046D0000123FB73FB7B18461437BD465DF8047B52
:1046E000704700BF00000420FFFFF90B0002FA0B27
:1046F000FFFFF80B0080F90B3F20024040210240F1
:1047000000000808E005FA0B0000040880B58AB034
:1047100000AF3B1D184607F01DFB7B69AA2B01D19A
:10472000002300E0012318462837BD4680BD80B530
:104730008AB000AF002387F8273072B600BF3B462F
:10474000184607F007FB04233B604FF400537B61DE
:10475000BB6943F08063BB6107F020F903461A464A
:1047600097F82730134387F8273097F82730002B26
:1047700037D107F04FF903461A4697F8273013430D
:1047800087F8273097F82730002B2AD13B46184668
:1047900007F078FA03461A4697F82730134387F84C
:1047A000273097F82730002B09D107F06DF9034621
:1047B0001A4697F82730134387F8273011E007F09F
:1047C0004BF903461A4697F82730134387F82730EA
:1047D00007F006F903461A4697F82730134387F87F
:1047E000273062B600BF012318462837BD4680BD7A
:1047F00080B58AB000AF002387F8273007F0CEF8E5
:10480000034687F8273007F005F903461A4697F85C
:104810002730134387F827303B46184607F09AFAAB
:1048200004233B604FF480737B61BB6903F4801306
:10483000002B02D00023BB6102E04FF48013BB6168
:1048400097F82730002B17D13B46184607F01AFA85
:1048500003461A4697F82730134387F8273097F80E
:104860002730002B08D107F00FF903461A4697F8B6
:104870002730134387F8273007F0EEF803461A462F
:1048800097F82730134387F8273007F0A9F8034635
:104890001A4697F82730134387F8273097F82730C0
:1048A000002B01D1002300E0012318462837BD4624
:1048B00080BD80B582B000AF07F070F80346FB7191
:1048C000FFF73AFE03461846FFF749FE03461A462D
:1048D000FB791343FB7107F083F803461A46FB7913
:1048E0001343FB71FB79002B01D1002300E001236E
:1048F00018460837BD4680BD80B584B000AF1D4B5B
:104900007B601D4B3B6007F049F80346FB737B68F7
:10491000BB6019E0BB68D3E90023B3F1FF3F08BFD8
:10492000B2F1FF3F0DD0BB6803F58021BB68D3E92E
:104930000023084600F057F803461A46FB7B134352
:10494000FB73BB680833BB60BA683B689A42E1D32B
:1049500007F046F803461A46FB7B1343FB73FB7BC9
:10496000002B01D1002300E0012318461037BD467B
:1049700080BD00BF00E003080000040880B586B0D9
:1049800000AF00233B6107F009F80346FB750223E3
:104990003B60FFF7D1FD0346012B01D1022300E06C
:1049A00001237B607C23BB600423FB6007F11002C2
:1049B0003B461146184607F0F5F803461A46FB7DBC
:1049C0001343FB7507F00CF803461A46FB7D1343AF
:1049D000FB75FB7D002B01D1002300E0012318466D
:1049E0001837BD4680BD80B586B000AFF860C7E916
:1049F0000023D7E90023F968012006F08DFF034664
:104A0000FB75FB7D002B01D1002300E0012318463C
:104A10001837BD4680BD80B483B000AF0346FB802D
:104A2000FB88B3F5407F01D8012306E0FB88B3F58E
:104A3000206F01D8022300E0032318460C37BD463F
:104A40005DF8047B7047000080B582B000AF7860ED
:104A5000064B5B881846FFF7DEFF03461A46044BF9
:104A60001A7000BF0837BD4680BD00BF282A03204A
:104A70008800032080B400AF034B00221A6000BFFF
:104A8000BD465DF8047B7047302A032080B582B0B4
:104A900000AF7860054A064B1B7813707868FFF703
:104AA000D3FF00BF0837BD4680BD00BF342A0320B6
:104AB0008800032080B400AF034B00221A7000BFAF
:104AC000BD465DF8047B7047352A032080B582B06F
:104AD00000AF78605A4B1B781A465A4B9A83584B52
:104AE0001B78022B03D0564B1B78032B01D10123DB
:104AF00000E00023DBB219460120FCF7B1FF514B67
:104B00001B8B9BB203F47F43002B14BF01230023B4
:104B1000DBB219460220FCF7A3FF4A4B1B889BB26D
:104B20000F2B04D8474B1B8A9BB2002B01D00123CB
:104B300000E00023DBB219460420FCF791FF414B53
:104B40001B8B9BB2DBB2022B0BD03E4B1B8B9BB261
:104B5000DBB2032B05D03B4B1B8B9BB2DBB2042B90
:104B600001D1012300E00023DBB219460820FCF745
:104B700077FF344B1B8B9BB2DBB2032B05D0314B41
:104B80001B8B9BB2DBB2042B01D1012300E000237D
:104B9000DBB219461020FCF763FF2A4B1B8B9BB23C
:104BA000DBB2042B0CBF01230023DBB2194620200B
:104BB000FCF756FF234B5B8B9BB203F47F43002B28
:104BC00014BF01230023D9B27A681F4BA3FB020351
:104BD0009B094FF47A7000FB03F3D31A40F2F312EF
:104BE00093428CBF01230023DBB20B40DBB219469A
:104BF0004020FCF735FF134B5B8B9BB2DBB2002BE5
:104C000014BF01230023D9B27A680F4BA3FB020320
:104C10009B094FF47A7000FB03F3D31A40F2F312AE
:104C200093428CBF01230023DBB20B40DBB2194659
:104C30008020FCF715FF00BF0837BD4680BD00BFD0
:104C40008800032058000320D34D621080B483B045
:104C500000AF78603960064A7B681360054A3B689C
:104C6000136000BF0C37BD465DF8047B704700BF82
:104C7000382A03203C2A032080B584B000AF786036
:104C80000023FB60094B1B681B6807F10C021146EF
:104C9000184618F09FF9FB68002B03D0044B4FF027
:104CA00080521A6000BF1037BD4680BD3C2A0320E9
:104CB00004ED00E080B582B000AF786000220421EE
:104CC000094807F0AFFD094B1B68012279681846B7
:104CD0000CF090FA01220421034807F0A3FD00BF65
:104CE0000837BD4680BD00BF00040242382A0320B9
:104CF00080B483B000AF7860044A7B68136000BF63
:104D00000C37BD465DF8047B704700BF402A032086
:104D100080B483B000AF786000BF0C37BD465DF84B
:104D2000047B704780B582B000AF064B1B683A1D0C
:104D3000114618460BF0D8FE7B6818460837BD466A
:104D400080BD00BF402A032080B582B000AF7860EC
:104D50003960084A7B681360074A3B68136007495B
:104D6000012015F0A2FE0346054A136000BF083774
:104D7000BD4680BD442A0320482A03204C2A032034
:104D80009C2A032080B584B000AF7860396000238E
:104D9000BB600023FB7300BF194B1B684FF0FF3152
:104DA000184616F09AF80346012BF5D1154B1B68EF
:104DB00018684FF4FA633A68796816F0C5FBB86072
:104DC0000F4B186800230022002115F089FEBA68F5
:104DD0003B689A420ED00123FB7302E00A2015F0D3
:104DE00076FC084B1B681B68184616F038FB034618
:104DF000012BF3D1FB7B18461037BD4680BD00BFA9
:104E00009C2A0320442A032080B582B000AF78603A
:104E1000786802F068FD034619467868FFF7B2FF2C
:104E2000034618460837BD4680BD000080B485B0F3
:104E300000AF78600B467B807B88002B12D000236C
:104E4000FB810BE0FB897A681A440B4B1968FB89DC
:104E50000B4412781A70FB890133FB81FA897B8835
:104E60009A42EFD3054B1B687A881A8000BF14372B
:104E7000BD465DF8047B7047B42A0320B82A03209E
:104E800080B483B000AF78600B46FB700C4B1B689E
:104E90007F221A700A4B1B6801337A6812781A70E5
:104EA000074B1B680233FA781A70064B1B68032203
:104EB0001A8000BF0C37BD465DF8047B704700BF09
:104EC000B42A0320B82A032080B485B000AF7860EC
:104ED0000B467B807B681A78104B1B684032D2B23D
:104EE0001A700123FB810BE0FB897A681A440B4B93
:104EF0001968FB890B4412781A70FB890133FB8116
:104F0000FA897B889A42EFD3054B1B687A881A800E
:104F100000BF1437BD465DF8047B7047B42A0320F8
:104F2000B82A032080B400AF054B1B7F022B0CBFB7
:104F300001230023DBB21846BD465DF8047B7047B1
:104F4000BC2A032080B483B000AF78607B68002265
:104F50001A607B6800225A607B6800229A607B6836
:104F600000221A747B680022DA6000BF0C37BD464D
:104F70005DF8047B7047000080B584B000AF034645
:104F8000FB710023FB730C4B1B78022B07D0FB79C2
:104F9000002B01D07E2300E07F23FB7306E0FFF7A8
:104FA000C1FF0346012B01D03323FB73FB7B184663
:104FB0001037BD4680BD00BFBC2A032080B582B03B
:104FC00000AF7860094B01221A70094B00225A7316
:104FD000084B00221A700848FFF7B4FF034A7B68A9
:104FE000536000BF0837BD4680BD00BFBC2A032008
:104FF000A02A0320B02A0320C82A032080B584B049
:1050000000AF78600B467B805023BB817B88022BEE
:1050100004D013217868FFF733FF75E07B68013314
:105020001B7803F07F03032B1CD0032B62DC012BC6
:1050300002D0022B3AD05DE0354B5B681846FFF793
:10504000BDFF7B6801331B787B737B6801331B7862
:105050005BB2002B53DB07F10C0302211846FFF76C
:10506000E5FE4CE02B4B9B8A9BB2B3F5805F04D3EB
:1050700088217868FFF704FF43E0254B5B681846FA
:10508000FFF79CFF224B03221A707B6801331B78C9
:105090007B737B6801331B785BB2002B31DB07F13C
:1050A0000C0302211846FFF7C1FE2AE0194B9B8A28
:1050B0009BB2B3F5805F04D322217868FFF7E0FE4E
:1050C00021E0134B5B681846FFF778FF104B022274
:1050D0001A707B6801331B787B737B6801331B7804
:1050E0005BB2002B0FDB07F10C0302211846FFF720
:1050F0009DFE08E012217868FFF7C2FE04E000BFC1
:1051000002E000BF00E000BF00BF1037BD4680BD19
:10511000BC2A03205800032080B582B000AF78601D
:105120000B467B807B88022B04D013217868FFF725
:10513000A7FE23E0134B1B78012B04D17F21786855
:10514000FFF79EFE1AE07B6801331B7803F07F03B4
:10515000012B0DD17B8819467868FFF7B5FE7B6877
:1051600001331B785BB2002B07DA04F0A8FF04E0E0
:1051700012217868FFF784FE00E000BF00BF083707
:10518000BD4680BDBC2A032080B582B000AF7860E8
:105190000B467B807B88042B04D013217868FFF7B3
:1051A0006FFE21E07B6801331B78FF2B09D17B6800
:1051B00002331B78FF2B04D17B6803331B78FF2B52
:1051C00004D031217868FFF75BFE0DE0FDF767FF43
:1051D0000346002B04D072217868FFF751FE03E0EC
:1051E00001217868FFF770FE00BF0837BD4680BD1B
:1051F00080B586B000AF78600B467B800023FB75DE
:105200007B88022B04D813217868FFF739FEC7E0AA
:10521000654B1B6859221A707B685A1C624B1B68CD
:10522000013312781A70604B1B68023304221A7023
:105230007B6801331B7803F07F03012B02D0022B24
:105240002ED099E07B88032B04D013217868FFF7D8
:1052500017FE96E0544B1B68033300221A7007F1C7
:1052600008031846FDF7A2FF0346002B04D0722165
:105270007868FFF705FE84E0BB681A0A4A4B1B6892
:105280000433D2B21A70BA68474B1B680533D2B2E6
:105290001A70454B1B6806211846FFF7C7FD70E0E2
:1052A0007B88032B04D013217868FFF7E9FD68E0C1
:1052B0003D4B1B68033300221A7007F108031846A0
:1052C000FDF774FF0346002B04D072217868FFF7C6
:1052D000D7FD56E000233B6135E007F10C0319468A
:1052E0003869FDF700FF0346002B02D00123FB7550
:1052F00026E0FB68190E2C4B1A683B699B000333B0
:105300001344CAB21A70FB68190C274B1A683B6920
:1053100001339B001344CAB21A70FB68190A224B6E
:105320001A683B699B0005331344CAB21A70F968C6
:105330001D4B1A683B699B0006331344CAB21A70AE
:105340003B6901333B61BB683A699A42C5D3FB7D37
:10535000002B0CD1144B1A68BB689BB29B009BB20C
:1053600003339BB219461046FFF760FD09E0722136
:105370007868FFF785FD04E012217868FFF780FD6B
:1053800000BF7B6801331B785BB2002B08DA064B49
:105390001B681B787F2B03D0044B1B6800221A80EC
:1053A00000BF1837BD4680BDB42A0320B82A0320A9
:1053B00080B588B000AF78600B467B807B88012B7E
:1053C00004D813217868FFF75BFDCEE07B680133DA
:1053D0001B7803F00F03042B04D012217868FFF729
:1053E0004FFDC2E07B6801331B7803F0F003402BD4
:1053F00004DD12217868FFF743FDB6E05D4B1B78B2
:10540000012B04D17F217868FFF73AFDADE000233E
:10541000FB617B6801331B781B09FB737A88FB7B7C
:1054200006339A4204D013217868FFF729FD9CE0E7
:105430007B6802331B781A067B6803331B781B04D6
:105440001A447B6804331B781B0213447A680532C4
:1054500012781344BB600023FB7614E0FB7E063316
:105460001A467B6813441B781946FA7BFB7E01338E
:10547000D31ADB0001FA03F31A46FB691343FB61FD
:10548000FB7E0133FB76FA7EFB7B9A42E6D3FB6917
:1054900040F6FE72934204D931217868FFF7F0FCA0
:1054A00063E0BA68FB6913441946B868FFF7C2F8AD
:1054B0000346002B29D0FB6940F6FE72934224D8A4
:1054C0007B681A782C4B1B684032D2B21A700023CA
:1054D0007B610EE0BA687B6913441946264B1A6853
:1054E0007B69013313440A78D2B21A707B690133A5
:1054F0007B617A69FB699A42ECD3FB699AB21F4BD4
:105500001B68013292B21A802FE0BB681C4A93429A
:1055100026D1FB69112B23D87B681A78164B1B68A0
:105520004032D2B21A7000233B610DE03B69154A4C
:105530001A44114B19683B6901330B441278D2B2FB
:105540001A703B6901333B613A69FB699A42EDD3BA
:10555000FB699AB2094B1B68013292B21A8004E0CF
:1055600031217868FFF78CFCFFE700BF2037BD468C
:1055700080BD00BFBC2A0320B42A0320B82A032020
:105580006745230174EF010880B592B000AF7860E1
:105590000B467B807B88032B04D013217868FFF7B0
:1055A0006FFC75E17B6801331B781B029BB27A6844
:1055B000023212781344A7F8423007F12C0300227C
:1055C0001A605A609A60DA601A61002387F84730DF
:1055D0000023A7F84430B7F84230B3F5007F38D342
:1055E000B7F84230B3F5806F33D207F12C02B7F829
:1055F000423011461846FDF72AFE0346A7F844300C
:10560000B7F84430002B1AD17B681B784033DBB2EB
:105610003B727B685B787B727B689B78BB7207F11F
:105620002C0107F1080303330422184602F03CF969
:1056300007F1080307211846FFF7F8FB27E1B7F841
:105640004430002B00F0238131217868FFF718FCEB
:105650001DE1B7F842304FF29012934200F3F5800B
:105660004FF2841293420DDA47F24272934259D0BC
:1056700047F24272934200F3E880012B26D0022BBE
:1056800030D0E2E0A3F57143843B0C2B00F2DD80C7
:1056900001A252F823F000BF3D5700084B58000804
:1056A00069570008775700084B5800084B58000806
:1056B0004B5800084B5800088F5700084B580008FB
:1056C0004B5800084B580008A757000807F108037B
:1056D000033313227049184602F0E6F8162387F8C0
:1056E0004730B6E0FFF71EFC0346012B0BD107F154
:1056F0000803033313226949184602F0D5F816232C
:1057000087F84730A5E07B683F221A707B68013339
:1057100022221A707B68023333221A70032387F81F
:10572000473096E007F10803033315225C49184619
:1057300002F0BAF8182387F847308AE007F1080327
:1057400003330C225749184602F0AEF82023FB75AC
:1057500007F10803103309225349184602F0A4F850
:10576000192387F8473074E0504B1B78FB720423F1
:1057700087F847306DE007F10803033304224C49F2
:10578000184602F091F8072387F8473061E007F1E7
:10579000080303330C224749184602F085F80F230B
:1057A00087F8473055E007F12C0319460120FDF733
:1057B0004EFD03461A46B7F844301343A7F8443069
:1057C00007F12C03043319460220FDF740FD034680
:1057D0001A46B7F844301343A7F8443007F12C03B6
:1057E000083319460320FDF732FD03461A46B7F881
:1057F00044301343A7F8443007F12C030C33194607
:105800000420FDF724FD03461A46B7F8443013433D
:10581000A7F8443007F12C03103319460520FDF793
:1058200016FD03461A46B7F844301343A7F8443030
:1058300007F12C0107F1080303331122184602F087
:1058400033F8142387F8473003E00823A7F84430DF
:1058500000BFB7F84430002B14D17B681B7840336D
:10586000DBB23B727B685B787B727B689B78BB7238
:1058700097F847309AB207F1080311461846FFF728
:10588000D5FA05E031217868FFF7FAFA00E000BFA9
:1058900000BF4837BD4680BD88EF01089CEF010876
:1058A000B0EF0108C8EF0108D4EF0108BC2A0320BB
:1058B000E0EF01089005FA0B80B582B000AF786088
:1058C0000B467B8011217868FFF7DAFA00BF0837B2
:1058D000BD4680BD80B584B000AF78600B467B804C
:1058E00067233B727B6801331B7803F07F03DBB2D5
:1058F0007B720023BB720023FB7200233B730023E7
:105900007B73FFF70FFA0346164AD360154BDA682C
:10591000154B5340134A1361124BDB681B0EDBB26D
:10592000BB72104BDB681B0CDBB2FB720D4BDB68F0
:105930001B0ADBB23B730B4BDB68DBB27B73094B9F
:1059400001221A777B6801331B785BB2002B05DBE1
:1059500007F1080306211846FFF768FA00BF103761
:10596000BD4680BDBC2A03207856341280B584B071
:1059700000AF78600B467B8067233B727B68013306
:105980001B7803F07F03DBB27B727B6802331B78EA
:105990001A067B6803331B781B041A447B680433A4
:1059A0001B781B0213447A68053212781344FB609B
:1059B000234B9B69042B04D936217868FFF760FAE2
:1059C00039E01F4B5A681E4B5B69D31A092B04D868
:1059D00037217868FFF754FA2DE0194B1B7F012B14
:1059E00004D024217868FFF74BFA24E0144B1B699C
:1059F000FA689A420FD1124B02221A777B68013360
:105A00001B785BB2002B16DB07F108030221184656
:105A1000FFF70CFA0FE00A4B00221A77084B9B693C
:105A20000133074A9361064B5B68054A5361352190
:105A30007868FFF725FA00BF1037BD4680BD00BF6C
:105A4000BC2A032080B582B000AF78600B467B8013
:105A50007B88012B04D813217868FFF711FA22E024
:105A60007B6801331B7803F07F03012B02D0022BEC
:105A700006D013E07B8819467868FFF72BFF12E009
:105A80007B88062B04D013217868FFF7F9F90AE028
:105A90007B8819467868FFF769FF04E0122178686F
:105AA000FFF7EEF900BF00BF0837BD4680BD80B5E7
:105AB00082B000AF78600B467B8011217868FFF7D9
:105AC000DFF900BF0837BD4680BD80B582B000AFAA
:105AD00078600B467B8011217868FFF7D1F900BF11
